S01C000074656D705F4445564943455F4558414D504C45312E73726563A7
S21408000058A70720D11C0800CD1C0800CD1C0800E6
S214080010CD1C0800CD1C0800CD1C08000000000000
S214080020000000000000000000000000CD1C0800D2
S214080030CD1C080000000000CD1C0800CD1C0800E0
S214080040CD1C0800CD1C0800CD1C0800CD1C0800DF
S214080050CD1C0800CD1C0800CD1C0800CD1C0800CF
S214080060CD1C0800CD1C080000000000990B0800F5
S214080070AD0B0800C10B0800D50B080000000000F7
S21408008000000000CD1C0800CD1C0800CD1C080090
S214080090CD1C0800CD1C0800CD1C0800CD1C08008F
S2140800A0CD1C080000000000CD1C0800CD1C080070
S2140800B0CD1C0800CD1C0800CD1C0800CD1C08006F
S2140800C0CD1C0800CD1C0800CD1C0800CD1C08005F
S2140800D0CD1C0800CD1C0800CD1C0800CD1C08004F
S2140800E0E5120800CD1C0800CD1C0800CD1C080031
S2140800F0CD1C080010B5054C237833B9044B13B152
S2140801000448AFF300800123237010BDF0050720D4
S2140801100000000010220800084B10B51BB1084864
S2140801200849AFF300800848036803B910BD074BB9
S214080130002BFBD0BDE81040184700BF00000000A9
S21408014010220800F405072010220800000000000E
S21408015010B5044B3B209847034C5520A047562023
S214080160A04710BD810908004D09080010B53B20BE
S214080170034CA0475520A0475620A04710BD00BFF7
S2140801804D09080008B53B20014B984708BD00BF3D
S2140801908109080008B510B15620034B01E0034B4F
S2140801A05620984708BD00BF810908004D09080079
S2140801B008B54FF47A73B0FBF3F202FB130080B273
S2140801C010B95520044B04E0B0F5FA7F02D1034B72
S2140801D05520984708BD00BF810908004D0908004A
S2140801E008B5044B98470020034B9847034B98479D
S2140801F008BD00BFA90C0800F90C08000D0D080082
S21408020010B50E480E4CA04700203E210D4B9847CF
S2140802100D4B98470028FBD00C4B98470C4A0D4BC3
S2140802209A620D4B98470028FBD00C4B1020984735
S2140802300B4B98470148A04710BD00BF00BD0105FD
S214080240890007202D0C0800790C0800890C080086
S214080250013F0D2000060E40990C0800E90B080027
S214080260511D0800014B1878704700BF0C06072080
S21408027008B5034B1B78012B01D1024B984708BDE4
S2140802800C0607202120080008B5064B9847C378B7
S214080290054A012B137002D1044B984708BD01206C
S2140802A008BD00BFDD0408000C060720DD1F080097
S2140802B008B50C4A137813F0800F03F0600305D0D6
S2140802C0402B0CD1537853B9074B06E0402B06D188
S2140802D0537823B9D08818B1044B984708BD002036
S2140802E008BD00BF3C870720592008002D200800BD
S2140802F013B504460B460092002122468320024C82
S214080300A04702B010BD00BFD119080013B50446B7
S2140803100B460092002122460420024CA04702B059
S21408032010BD00BFD119080013B504460B4600924D
S214080330002122468520024CA04702B010BD00BF0F
S214080340D119080013B504460B4600920021224630
S2140803500620024CA04702B010BD00BFD119080005
S21408036013B504460B460092002122468120024C13
S214080370A04702B010BD00BFD119080013B5044647
S2140803800B460092002122460220024CA04702B0EB
S21408039010BD00BFD119080008B5034B9878034B69
S2140803A000F07F00984708BD3C870720AD17080077
S2140803B030B5114B1B780BB9002030BD0F4B1B68AE
S2140803C01B681A798242F7D90D4A13605C881C4468
S2140803D09C420ED95D78042D08D19D78854205D1BA
S2140803E0DD788D4202D11360012030BD1D782B4484
S2140803F0EEE71360E0E700BF1C060720100607209C
S21408040020060720084B1B681A6853881A44037886
S2140804101844824205D94378042B02D0052BF6D11E
S21408042000E00020704700BF1006072070B50F4B8D
S21408043005469847B8B10E4B1C6820460D4B9847A2
S214080440044638B18078E178A2880B4B9847002894
S214080450F3D108E0094B1B685B6853F82530BDE804
S21408046070401B681847002070BD00BFB103080025
S21408047020060720050408009D1A08001006072015
S21408048070B50021104C0546A04708B9002519E0AC
S2140804900E4B1B685B6853F82560F368984701465F
S2140804A02846A04705460028F0D0094B1C68204679
S2140804B0084B9847044618B18078074B9847F6E7E4
S2140804C073689847284670BDB103080010060720D1
S2140804D0200607200504080001180800014B1868C4
S2140804E0704700BF2006072008B5014B984708BD8F
S2140804F01D11080038B50B4B1A781C462AB900237C
S2140805002370094B01221A8038BD0025074BE8B234
S2140805101B6801351B681B798342F0D9044B984742
S214080520F4E700BF1C0607201A0607201006072057
S2140805308104080010B50A4B1B7803B910BD0024C7
S214080540084B1A6813681979E3B2994207D95268B2
S21408055052F823301B6903B198470134F0E710BD01
S2140805601C06072010060720F8B59B4C0023A3811D
S2140805702361636123785AB2002A03DAE1880029E6
S21408058000F0A28113F0600140F05C81002A80F23E
S214080590A380E588904E002D00F0548113F01F03C9
S2140805A063D17378062B09D0082B56D0002B40F061
S2140805B04981022D40F04681884852E073881D0A1A
S2140805C0022D0CD006D8012D40F03C81844B1868CB
S2140805D0017838E0032D19D00F2D10D032E1804A6B
S2140805E0DBB21168497C994240F22C81526852F875
S2140805F033007C4B41889847B3685D7025E0784B9C
S2140806009868002800F01E8141881CE0DBB2012BA8
S21408061009D005D3022B40F015811421724A04E054
S214080620724804210FE0724A09211346714D13F8E7
S214080630010B25F8020B981AC0B28842F7D3490076
S2140806406D4802310170674B9847E388A2899A4241
S21408065040F23881604A938134E1012D40F0F280FF
S214080660664829465F4B98472CE1012B23D17378BF
S2140806700A2B40F0E780012D40F0E4805F4B1B78A2
S214080680002B00F0DF805E4B35791E6833681B79D7
S214080690AB4240F2D78028465A4B9847002800F0CD
S2140806A0D180736853F82530DB689847564B01218C
S2140806B018701846D6E7022B40F0C4807378002BD3
S2140806C040F0C080022D40F0BD80504B30799847EE
S2140806D04F4B18801846C4E713F01F0351D16378B0
S2140806E0013B082B00F2AE80DFE803F00DACACACA3
S2140806F005ACACAC1C00E388002B40F0A380454A50
S214080700354B1A61DEE0E388002B40F09B80324BC5
S2140807105B88012B40F09680304A138823F002034A
S2140807201380CFE0E5882C4F002D40F08B803A4BA5
S2140807309847002800F08680294EBA7833685B7C94
S2140807409A427FDC354B9847BB782C4A1370002BAF
S21408075000F0B8802A4A7168164603F10053013B38
S21408076001EBC30313603368E8B21B681B79834246
S21408077040F2A88000212A4B984701350028F2D17C
S21408078060E0012B16D16278134B0B2A5AD1DA880F
S214080790002A57D1194A1278002A53D01D795E8844
S2140807A02846204B984700284CD02846F1B21C4BC8
S2140807B0984745E0022B45D16378074D012B02D0B8
S2140807C0032B33D03EE0EB88002B3BD16B88002B05
S2140807D038D12879144B32E03C8707201A060720C0
S2140807E008010720F517080071010720BC0107203B
S2140807F08601072092010720900107201C06072083
S21408080010060720B103080018060720511808002C
S2140808101406072099030800D5170800F5040800F1
S2140808202D0408008104080019190800EB884BB944
S2140808306B883BB92879254B98472879244B9847E5
S21408084000283FD1237803F01F03012B1BD1214B2F
S2140808501B78C3B1204B1D79204B1E6833681B7963
S214080860AB4210D9284600211D4FB84758B17368C7
S21408087053F82560F368984701462846B84710B1EC
S214080880B3689847F0B9237803F01F03022B1BD1EF
S214080890104B1B78C3B10025104BECB21B681A68C6
S2140808A01279A24210D95B6853F82460F368984717
S2140808B00B4B01462046984730B1B3689847013538
S2140808C00028E9D00120F8BD0020F8BD551C080016
S2140808D0651808001C0607203C8707201006072016
S2140808E0B1030800144B4FF4004210B50B205A60B1
S2140808F0124CA0470C20A0470D20A0470E20A0476A
S2140809000F4C4FF060513B20A0474FF060515520E8
S214080910A0474FF060515620A0470A496820A047D4
S21408092009495C20A0474FF000612B20A0474FF0F4
S21408093000612A20A04710BD501A0E40BD0C0800C2
S214080940790A0800790000280100002838B505460D
S2140809500024084BE258954207D123445B68284692
S214080960012B0CBF044B054B98470834202CF0D1BC
S21408097038BD00BFC4210800610A0800490A0800FB
S21408098038B505460024084BE258954207D123445B
S2140809905B682846012B0CBF044B054B9847083468
S2140809A0202CF0D138BD00BFC4210800490A080031
S2140809B0610A0800B1F1805F426414D009D8B1B169
S2140809C0B1F1006F12D1036F016F0B4023EA0203E7
S2140809D00BE0B1F1405F0AD0B1F1605F07D0B1F12A
S2140809E0205F03D17047036F134303674260704765
S2140809F0D30741644CBF4166016612F00A0F14BF64
S214080A0001624162930702D5C0F8801003E013071D
S214080A1048BFC0F8841041610160704710B5029C59
S214080A2041640CB1416600E001660BB1016500E067
S214080A3041650AB1016300E041630161016010BDD0
S214080A40C06C7047806C7047430903F5001303F2C7
S214080A50077300F01F0001225B0282401A6370478A
S214080A60430903F5001303F2077300F01F00012281
S214080A705B0282405A637047F7B545090E4605F58E
S214080A80001501F0F04105F20775B1F1205F4FEA55
S214080A9045252BD014D8B1F1006F18D0B1F1805F7E
S214080AA042D100F01F02012000FA02F36B642A6F9D
S214080AB01A432A67F2076B604CBF6B662B6634E0F6
S214080AC0B1F1405F1CD0B1F1605F19D02CE000F0A6
S214080AD01F00012404FA00F73A462846144B9847A4
S214080AE0F1074CBF6F662F6620461EE000F01F0217
S214080AF0012404FA02F1284632460E4B9847F3E7DB
S214080B00012406F0605206EA0403009302F1484303
S214080B105A4200F01F015A41284604FA01F1C6F36A
S214080B208003054DA847DFE7002003B0F0BD00BFEF
S214080B30B5090800F10908001D0A0800F8B5134BA6
S214080B4004460F469847124B0546204698470540E8
S214080B501BD0104C04F1600654F80C3CBB4210D174
S214080B6054F8081C29420CD023683846984754F88D
S214080B70083CB44225EA030507D01034002DEBD113
S214080B80F8BDB44201D01034E6E7F8BD410A0800C3
S214080B90450A08003006072008B502480B21024B14
S214080BA0984708BD000E0E403D0B080008B50248E1
S214080BB00C21024B984708BD00100E403D0B08005C
S214080BC008B502480D21024B984708BD00120E4092
S214080BD03D0B080008B502480E21024B984708BD91
S214080BE000140E403D0B08000F4B1A6B22F07002E3
S214080BF0104340F601021863986E0B49000703D4A9
S214080C00013AF9D1012070470A6B22F0030242F03C
S214080C1002020A6340F60102996E090702D4013AF5
S214080C20FAD1EFE70020704700060E400F4A136A15
S214080C3028B10F4919400F4B0B431362704723F432
S214080C405C1323F0030343F45C13090243F0010327
S214080C5089B20B431362936E0449DB07FBD50B6A14
S214080C6043F09B7343F480330B62704700060E40D4
S214080C70FCFFC8FE02003701024B986E00F4803075
S214080C80704700BF00060E40024B4FF000529A62B3
S214080C90704700BF00060E40024B986E00F0020038
S214080CA0704700BF00060E40034B4FF44412DA614B
S214080CB09A6E5206FCD5704700060E402C2815D8AA
S214080CC01F280C4A4FF0010306D891698340194043
S214080CD099420DD013610BE0D2F8081120388340F2
S214080CE01940994204D0C2F8003101E0012070474B
S214080CF00020704700060E40000200F47060024BA9
S214080D0040F001009863704700060E40014B202211
S214080D101A60704700060E40034AC0F31200136FAD
S214080D2003431367704700BF00060E40024B18784F
S214080D3080F00100704700BF94060720EFF310808C
S214080D4072B6BFF35F8FB0FA80F0024B00221A70BB
S214080D5040097047C0010720034B05221A70034B51
S214080D604FF400221A6070472D070720F0C10A408A
S214080D70024B1B6903B11847704700BF3C87072022
S214080D8028B1034B01221A70BFF35F8F62B6704713
S214080D90C001072038B5074D04462B5CFF2B00D151
S214080DA0FEE7054B98472B5D01332B55034B9847B9
S214080DB038BD00BF348707203D0D0800810D0800A8
S214080DC038B5064D04462B5C03B9FEE7044B984736
S214080DD02B5D013B2B55034B984738BD34870720BE
S214080DE03D0D0800810D080038B5074C05462378E8
S214080DF018B933B10220054B02E013B9044B0220A0
S214080E009847257038BD00BF2C070720C10D08007D
S214080E10950D080008B5094B9847094B01221A603A
S214080E20084B9847084B02221A60084A00231361A9
S214080E3053619381064A137008BD00BF3D0D080034
S214080E4020C20A40810D080060C10A403C8707207E
S214080E502D07072008B5084B03221A70074B98473A
S214080E600749084B01220A601A6008220A601A60BD
S214080E70054B984708BD00BF2D0707203D0D080005
S214080E8060C10A40F0C10A40810D08002DE9F0470C
S214080E90314CA047314B0122314F1A60314EB047D2
S214080EA03B78A246032B05D12F4B98472F4B9847E4
S214080EB0BDE8F0872E4B2F4D1988AC899946641AE1
S214080EC0A4B2D4B92C4A13880B449BB21380EA8880
S214080ED09A4202D0294B1B7843B104233B70D04773
S214080EE0274A10231360C2F8903032E06B695BB172
S214080EF0984748B1A9F80040AC893F2C04D91F4B45
S214080F0000221A70402402E01C4B01221A70B9F81D
S214080F100080AD68D0471B4B45441B6802469B07BC
S214080F2001D4194B04E0B04704233B70BDE8F087B2
S214080F30D9B2A14204D215F8011B03F8011BF7E742
S214080F4010460F4901234444A9F800400B60C1F835
S214080F509030B047BDE8F0873D0D080020C20A4033
S214080F602D070720810D0800710D0800150E0800D2
S214080F702E0707203C8707202A0707202807072070
S214080F8060C10A4030C10A400000182010B5037D31
S214080F900446D80710D56FF30003237523685BB1A2
S214080FA0064850F82200C00548BF42F080020846AE
S214080FB0A168BDE81040184710BD00BF00C10A4030
S214080FC02DE9F74F4B4F00F1FF38182303FB087342
S214080FD01A7D0446D50740F18A80DA689D68DFF8EE
S214080FE018A1AA425CD0AD1A5AF82010B5F5803F71
S214080FF0414B92BF2E044FF48035002611F4807FB3
S21408100053F8201010D0C1F3021108238B40013B7F
S2140810101D4217D0182303FB0873197D46F00806EF
S2140810206FF3410119750DE0C1F3C121012907D1FC
S21408103053F820100823C1F302118B409D4201D8B3
S21408104046F014064FF0180909FB0879DFF8C8B00F
S21408105023019B44D9F804301344CBF80430274BBB
S2140810609847DBF80C30264A13F0100F09F10803EE
S21408107010D146F02106CBF808605968C9F8105018
S214081080294459601F494FF0007303FA08F38B612F
S21408109090472CE001939047019B5B68C9F808309D
S2140810A05AF82430D8051BD5182303FB08731B7D74
S2140810B0990715D5144A012342F82430303A52F8D5
S2140810C02420D20344BF114A42F82430104A42F87A
S2140810D024304FF48053A340A2F5F872936106E0DB
S2140810E0182000FB0870002122460A4B984703B0D8
S2140810F0BDE8F08F9806072000C10A403D0D08009D
S214081100810D080000C00A4060C10A4090C10A402C
S214081110F0C10A408D0F080000C30A4010B53C4BCA
S21408112098473C4B0446282098473B4B98473B4BF0
S214081130502283F828234FF480725A604FF4802098
S214081140374B9847374BD3F8002822F08072C3F8FD
S2140811500028D3F8002842F00072C3F80028D3F815
S214081160002822F08072C3F80028D3F8002842F43A
S2140811708052C3F80028D3F8002842F40042C3F887
S21408118000281A6822F480521A601A6842F44062EC
S2140811901A60D3F8002822F48042C3F80028D3F84F
S2140811A004285004FBD500221F49182303FB02130A
S2140811B0197D013201F0FE016FF38201062A1975C6
S2140811C0F2D1184B0222C3F80828D3F804180905E8
S2140811D048BFC3F80C28D3F8002842F00202C3F828
S2140811E00028D3F8002842F48042C3F800280F4AA3
S2140811F0137833B9012111700D4A032013700D4B73
S21408120001E00D4B0020984720460C4B984710BD30
S2140812103D0D0800BD0C0800E101080000E100E0F3
S214081220190D080000C00A4098060720290707205D
S2140812302C070720950D0800E90D0800810D080009
S21408124038B5174B9847174B044601209847164B56
S214081250D3F8002822F48042C3F800281A46D2F8A9
S2140812600418114B4904FAD51A68082522F4807226
S2140812701A600121102204209D6199619A61986183
S2140812809D60986002209860D9609A60D3F800281C
S214081290204642F48042C3F80028044B984738BDDD
S2140812A03D0D0800E90D080000C00A40810D080041
S2140812B008B50A4B0020D3F8002822F48042C3F869
S2140812C000281A6842F480721A60D3F8002842F49C
S2140812D08042C3F80028024B984708BD00C00A4061
S2140812E0E90D0800F8B58E4B98478E4A48B95368FA
S2140812F013F0010305D172B6BFF35F8F8A4A1370E5
S214081300F8BD5268874B57070AD504229A60D3F867
S214081310043813F4405F01D1844B9847844BFDE0B2
S2140813205A68960703D502229A60804BF6E05B68F7
S214081330DD0440F14F817F4B10221A6008221A60A4
S214081340F03B1A681D4612F0040F41D07A4C2378F9
S2140813501BB17A4B98477A4B98472B68C3F30A53C6
S214081360082B04D0774B98470422774BAAE0774B94
S21408137013F8011B764A774E1A449155764A9342DB
S214081380F6D1764B984704276F4D18B96D4B98479A
S2140813902F60F8BD2F6096F90030002B07DA704AE8
S2140813A0002313806F4A13800223237017E0F38804
S2140813B0002B56D06A4A002313806A4A13800123FA
S2140813C023701024684B2C609847684B1C6064E0B8
S2140813D01B68DC0705D5664B1B68D80701D5654B27
S2140813E0F6E02A68644B91075AD5534A1278012AC0
S2140813F009D0022A01D0042A01D1504B00E0514BF3
S21408140098474F4BE4E0574C1A6852482388C2F373
S2140814100A5281899D18A94225468468B8BFCA1A07
S214081420591E2144494C92B2E6B2964204D214F8A8
S214081430016B01F8016FF7E713449BB2402A494E47
S2140814402B80414C06D1464DC7882A8841491A4404
S214081450974208DC838143690BB1984750B1022351
S2140814602360464BB4E08A899A420ED14B690BB189
S214081470984720B9334B984702232360F8BD328833
S2140814802B8813442B8000233380022310252360E7
S214081490354B25609847354B1D60394B9847F8BD46
S2140814A01A68120710D5284A082111601B68DF073A
S2140814B000F15781204B1B78032B40F052812B4BB1
S2140814C04FF400221A60F8BD1A68D60640F18280EA
S2140814D01D4A102111601B689D0700F14281164BBA
S2140814E01B78012BBDD0042BE7E71A69D5074DD525
S2140814F05A68D4074AD5D3F8002822F48042C3F89D
S214081500002801225A6110229A61D3F8002842F472
S2140815108042C3F800281B4B98471B4B9847F8BDDA
S2140815202D0D080000C00A40C00107203505080038
S214081530BD1F080020C20A402D070720710D0800AD
S214081540150E0800590D080060C10A400000182052
S214081550FFFFE7DF3C87072008001820690508001A
S2140815602A0707202E0707203D0D0800F0C10A406D
S214081570C0C10A408D0E080030C10A40550E08004A
S214081580810D0800E90D0800A51F0800754B1A69AB
S21408159012F0100F1A4640F0C880D2F80428714B93
S2140815A0920740F1DE80D3F8002822F48042C3F880
S2140815B000280222C3F80828D3F8002842F48042FC
S2140815C0C3F80028D3F804381B054CBF664B674B96
S2140815D09847F8BD664C0120624D431E2E694FF0B1
S2140815E0007199403142C2B219D06E68314216D0A5
S2140815F0604814012044C468E40700F1B2806961B9
S214081600C1680C0C07D05C48182101FB0303D96895
S214081610091BD96099601046584B9847F8BD296948
S2140816204FF4805585400D423CD0D4F89070810028
S214081630FF0704F1900612D52768FF070FD5504814
S214081640504D01240C504C514FF480440C504A49DC
S214081650182000FB031000214B4B9847F8BD326852
S214081660D6041FD52268C2F30132DAB944484FF4CB
S21408167080540C50A0F5087045613F48182404FBB8
S2140816800303187D62F38200404A18758B5823F4CA
S21408169000738B503E4B4FF40022CA504FF4802202
S2140816A0CA50F8BD0130072804F1040494D12D4B24
S2140816B0586810F008003FF418AF08229A60002314
S2140816C02D4A5C1C182000FB032001212E4BE2B299
S2140816D09847062C2346F3D1224C2E4B984723686E
S2140816E02A4A23F07F032360236843F0800323609D
S2140816F0136823F4CB5323F01C0343F03003136022
S214081700136843F002031360E36943F00103E361DF
S214081710214B98471E4B04221A6002221A604FF487
S2140817208053A3611D4B98476BE65968C8067FF53A
S21408173034AFD3F8002822F48042C3F80028094BB7
S214081740D3F8042812F4804F1A4602D15B68D907EA
S214081750F5D5102301205361114B90619847114B22
S214081760DCE6F8BD00C00A4041120800B1120800C5
S21408177034C10A4000C30A4098060720C10F080073
S21408178020C20A4060C10A408D0F080000C10A4006
S214081790F0C10A40F50408003D0D0800810D080058
S2140817A0E90D0800B11F080000207047084B00F03C
S2140817B07F001A6822F080021A601A6822F07F02F8
S2140817C002431A601A6842F080021A60704700BF27
S2140817D000C00A40024B186800F07F00704700BF40
S2140817E000C00A40024B186AC0F3CA00704700BF20
S2140817F000C00A40014B9860998170473C870720D3
S21408180000F00F02062A10B51BD80E480121C3693E
S21408181001FA02F423EA0403C36100F5807050F865
S2140818202230182423F0020340F822300648531EBC
S21408183004FB0304054B20469847237D6FF3820379
S214081840237510BD00C00A40980607208D0F0800B3
S214081850034B00F00F0053F82000C0F3C040704759
S214081860C0C10A40F8B500F00F04062C06463ED85C
S214081870214B53F824301A033BD4204A631E1825FC
S21408188005FB03252B7D03F0040202F0FF0082BB54
S214081890DB072FD41A4B984716F0800F07461949CE
S2140818A0194A12D0194B53F8243013F4405F0CD061
S2140818B02B7D43F004032B754FF4805341F82430F6
S2140818C0A340A1F5F8718B610FE0114850F8243059
S2140818D023F4007340F824300E4B402043F82400CD
S2140818E038464FF4002341F82430904701E00020A2
S2140818F0F8BD0120F8BD00BFC0C10A409806072001
S2140819003D0D0800F0C10A40810D080030C10A40AC
S21408191000C10A4060C10A4000F00F00062838B52A
S21408192049D8264B451E182202FB0532147D04F0C2
S214081930040404F0FF016CB1117D6FF38201117588
S2140819401F4A4FF4805142F820108140A2F50872D1
S214081950516101211B4A52F8202012031CD51A4A4D
S21408196052F82020540641BF184A402142F8201059
S2140819704FF4802144BF903242F82010104A4FF4AA
S214081980002142F82010A2F5907252F8201041F477
S214081990007142F8201000E059B118226A43134437
S2140819A0197DC80705D56FF300011975034B9B58B9
S2140819B09847012038BD002038BD00BF980607208C
S2140819C020C20A40C0C10A4030C10A4060C10A406D
S2140819D02DE9F04F00F00F0885B0B8F1060F019119
S2140819E002921F4649D8274A0125D06905FA08F207
S2140819F0104043D0244A52F8280010F400203CD166
S214081A0008F1FF344FF0180A0AFB04FA1F4E06EBDB
S214081A100A0999F8141001F0040179BB1C49884793
S214081A2099F814101B4B294001D0984725E099F8DF
S214081A3014E003914EF0010E89F814E09847029BD3
S214081A400399C9F804300E9A019BC9F80870C9F8BA
S214081A500C10C9F8101046F80A2013B9B7FA87F51B
S214081A606D09182202FB0464227D404665F3410294
S214081A702275094B9847012000E0002005B0BDE814
S214081A80F08F00BF00C00A40C0C10A409806072071
S214081A903D0D0800810D0800C10F08002DE9F3412F
S214081AA000F00F04062C00F29C80644B4FF0010EE9
S214081AB0DB690EFA04F71F4040F0938001F0030339
S214081AC0022B06D0032B02D0734540F0B3804FF0AC
S214081AD0000E5B4D10F0800F55F82430A2F580609C
S214081AE080B223F4CB534FEAC1210CBF00274FF432
S214081AF08077B0F57C4F4FEA840623F01C0301F488
S214081B00C05104D3082A05D95200013A03E040F22E
S214081B10FF7200E00F22B2FA82F241EA8E0141EA31
S214081B20070041F67C11C2F11C0240EA021211407D
S214081B300B4373510125A540ADB20622D3B2A3428A
S214081B4014D93E490123C869934003420CD0C8699A
S214081B501D4320EA0303CB613A4BADB213449B0006
S214081B60196821F002011960013AE7E745FA04F31B
S214081B70D80705D40134E4B2072CF7D101205AE07F
S214081B80DFF8CCE0671E182101FB07E10B7D2C4A25
S214081B9003F0010C6FF300030B75A3001A441068DA
S214081BA0DFF8988040F002001060D8F81C6001202A
S214081BB0A0403043C8F81C0023487646C35813F4A0
S214081BC0802F10D10D6865B113680120D9054FF034
S214081BD0180303FB07E648BF44F08004F168224672
S214081BE0A847002027E0136843F400731360BCF18D
S214081BF0000FBFD001F10800CB6809695B1A436083
S214081C001268D2054FF0180202FB07F73E44317DF2
S214081C1072685EF80770B6684CBF44F080002046CD
S214081C201A440097F31AC1F34001084EB04700283B
S214081C30A0D1D6E7384602B0BDE8F08100C00A4019
S214081C4000C10A4040B0021030C10A40D11908004D
S214081C509806072000F00F0270B51549561E4FF07B
S214081C600073B3404B61134B1401234400249C605B
S214081C704FF48053934004064B6107D40E4B18204C
S214081C8000FB063001210D4B984770BD0C4B0D4CE0
S214081C9091000B440C44186810F4405FEED04FF4E3
S214081CA000502060084D68588004FBD4F3E700BF56
S214081CB000C00A4000C30A40980607208D0F080097
S214081CC030C10A40F0C10A40C0C10A40FEE7000021
S214081CD008B5164A164B9A4201D0043A01E0154B4D
S214081CE007E015498B42FAD252F8041F43F8041B42
S214081CF0F7E7124A934203D2002243F8042BF8E788
S214081D000F4B104A23F0604121F07F0103F1604336
S214081D10B3F5801F91603EBF936843F0005393600D
S214081D20094B9847094B9847FEE700BF1022080062
S214081D3000000720F0050720F00507205487072035
S214081D400000080000ED00E085200800591F080084
S214081D5010B52C4A136B03F00303012B2A4B0DD046
S214081D6003D3116ACC011AD525E028494969080623
S214081D704CBF4FF400414FF4FA4130E0116AC901F4
S214081D800BD423491960116A01F07001102902D09A
S214081D90202902D024E01F4921E01F491FE01C49E2
S214081DA01960116A01F07001102902D0202902D0AA
S214081DB003E0184900E018491960116B114801F052
S214081DC00301022901BF816A806AC1F30A441968BF
S214081DD003BFC0B204FB0111B1FBF0F10F49196053
S214081DE0126B02F07002702A03BF1A680321B2FB56
S214081DF0F1F2044A1FBF116B1A68C1F30211CA40F8
S214081E001A6010BD00060E40C4010720101A0E40C6
S214081E1000093D0000127A00001BB700001C4E0E99
S214081E2008B50020014B984708BD00BF950108007B
S214081E3008B50020044B98474FF40041034A044B6A
S214081E400448984708BD00BF95010800691E0800A9
S214081E500D0308003407072008B508B9014B984752
S214081E6008BD00BF311E080010B50C4638B9012061
S214081E70034B984703482146034A044B984710BD2E
S214081E809501080034070720591E0800F1020800CB
S214081E9010B50C4658B944F25C43994202D13B202F
S214081EA0034B984703482146034A044B984710BDFE
S214081EB0490A080034070720391F080029030800C4
S214081EC070B50646104C114D48B10120104B984786
S214081ED02878314604EB80300E4A0F4B98472B780B
S214081EE0B3FA83F35B092B7004EB83340B4B9847E8
S214081EF0002818BF4021204608BF4FF48071084AC2
S214081F00084B984770BD00BF3407072031070720E5
S214081F1095010800211E080061030800A91708009B
S214081F20291F08007D03080008B510B90846014BAC
S214081F30984708BDC11E080008B528B903484FF4DD
S214081F400041034A034B984708BD00BF34070720E3
S214081F50911E0800450308000C4B012210B51A70A4
S214081F60BFF35F8F62B60A4B00245A711C705C7010
S214081F709C70DC701C71074B9847074B9847074BBB
S214081F809847074B9847204610BD00BFC00107205A
S214081F903487072001020800E508080051010800F8
S214081FA0E904080008B5014B984708BD6D0108000C
S214081FB008B5014B984708BD8501080008B5044BCD
S214081FC01B781BB1034B9847034B984708BD00BFC7
S214081FD030070720E5170800B1010800094B10B5BF
S214081FE001241C70084B98474FF40041074A084BD9
S214081FF008489847084B00201870084B9847204612
S21408200010BD00BF30070720311E0800911E0800CB
S214082010450308003407072031070720C11E0800BB
S214082020014B00221A7070473007072008B50120B8
S214082030064B9847064A074B01209360D38813F44B
S214082040004F18BF4FF40043938108BD9501080060
S2140820503C8707203407072008B50020064B98471A
S214082060064A074B01209360D38813F4004F18BF25
S2140820704FF40043938108BD950108003C8707206C
S2140820803407072070B50F4E0F4D761BB61018BFD5
S214082090002405D0013455F8043B9847A642F9D1E8
S2140820A00A4E0B4D00F0A2F8761BB61018BF002497
S2140820B006D0013455F8043B9847A642F9D170BDBE
S2140820C070BD00BFF8210800F821080000220800AB
S2140820D0F8210800024B13B1024800F005B8704713
S2140820E000000000F52008000146002002460346CE
S2140820F000F016B838B5084B084DED1AAC1018BFE6
S214082100ED1805D0013C55F8043D9847002CF9D148
S214082110BDE8384000F074B80C2208001022080009
S2140821202DE9F047254C064625688846D5F84841E7
S21408213092469946C4B360681F2817DC411C76B1DE
S21408214004EB8003C3F888A0D4F8885101228240A3
S2140821501543022EC4F88851C3F808911ED0831C74
S2140821606160002044F82380BDE8F087144B03B371
S2140821704FF4C870AFF300800446D0B1D5F84831A4
S214082180002784E888003846C5F848410121C4F885
S2140821908871C4F88C71002EE1D0D1E7D4F88C3160
S2140821A01A43C4F88C21DAE705F5A674C5F8484141
S2140821B0C1E74FF0FF30BDE8F08700BFE821080010
S2140821C0000000003B000000000000005500000072
S2140821D00000000056000000000000005700000045
S2140821E00100000043000000C8010720F8B500BF42
S2140821F0F8BC08BC9E467047D520080019010800A0
S214082200F8B500BFF8BC08BC9E467047F500080045
S2140822101A4A4FF480631360C2F80032184B1A6AE1
S214082220D10102D5174A1A6205E0174A1A629A6E51
S214082230D207FCD5F6E79A6E1149D003FBD50A6B90
S21408224022F0030242F001020A639A6E1207FCD5D6
S2140822500E490B4A91629A6E9007FCD5084A1121DE
S21408226011639A6E1107FCD5054A122111639A6EFE
S2140822701207FCD5064A074B1A607047000A0E403C
S21408228000060E400908370109083700013F0D20EF
S21408229000BD0105C4010720114B124A9842124B93
S2140822A001D8002118E01149884202D84FF48071FD
S2140822B012E00F49884202D84FF400710CE00D492D
S2140822C0884202D84FF4407106E00B49884294BF12
S2140822D04FF480614FF4A06111601960704700BF29
S2140822E0BFEA2101000A0E40000C0E407FF0FA02F9
S2140822F0FF8FD003FFB3C4047F4A5D058902080038
S21408230071020800B102080065020800000000001B
S2140823102C010720140107201801072000010720B8
S21408232000000000EC000720120100020000004038
S214082330EB03232400010102000100000902450006
S214082340010100C0320904000000FFFFFF00090475
S214082350000106FFFFFF000705830340000107058D
S2140823600403400001070585024000000705060231
S2140823704000000705810100010107050201000170
S2140823800156656E646F7220436C617373204578DE
S214082390616D706C650041544D454C2041534600B4
S2140823A0000300000000000000000000000000001D
S2140823B00000000000000000000000000000000010
S2140823C000000000000000000000000004030904EC
S2140823D00100000000093D0000000000B4040720CA
S2140823E01C050720840507200000000000000000E8
S2140823F000000000000000000000000000000000D0
S214082400000000000000000000000000E4210800B2
S21408241000000000000000000000000000000000AF
S214082420000000000000000000000000000000009F
S214082430000000000000000000000000000000008F
S214082440000000000000000000000000000000007F
S214082450000000000000000000000000000000006F
S214082460000000000000000000000000000000005F
S214082470000000000000000000000000000000004F
S21408248001000000000000000E33CDAB34126DE6EC
S214082490ECDE05000B000000000000000000000055
S2140824A0000000000000000000000000000000001F
S2140824B0000000000000000000000000000000000F
S2140824C000000000000000000000000000000000FF
S2140824D000000000000000000000000000000000EF
S804081CD106
