:020000040040BA
:1000000090EE0020152440001124400011244000EF
:100010001124400011244000112440000000000081
:10002000000000000000000000000000112440005B
:10003000112440000000000011244000412840002D
:1000400011244000112440001124400011244000DC
:100050001124400011244000112440000000000041
:1000600011244000112440000000000065074000FA
:1000700079074000000000001124400011244000D6
:100080000000000000000000112440001124400086
:10009000112440001124400011244000112440008C
:1000A0001124400011244000000000000000000066
:1000B00000000000112440001124400011244000E1
:1000C0001124400011244000410E400010B5054CA1
:1000D000237833B9044B13B10448AFF300800123F4
:1000E000237010BDE804002000000000CC2B40006D
:1000F000084B10B51BB108480849AFF30080084809
:10010000036803B910BD074B002BFBD0BDE81040BE
:10011000184700BF00000000CC2B4000EC0400207A
:10012000CC2B40000000000000207047014B1878E5
:10013000704700BF0405002008B5034B1B78012B56
:1001400001D1024B984708BD040500201929400041
:1001500008B5074B9847C378064A012B137005D1A1
:10016000054B9847003018BF012008BD012008BD8D
:10017000DD02400004050020B525400013B504460B
:100180000B460092002122460520024CA04702B0F7
:1001900010BD00BF411B400008B5034B9878034BCE
:1001A00000F07F00984708BD2C0600200918400089
:1001B00030B5114B1B780BB9002030BD0F4B1B68BD
:1001C0001B681A798242F7D90D4A13605C881C4477
:1001D0009C420ED95D78042D08D19D78854205D1C9
:1001E000DD788D4202D11360012030BD1D782B4493
:1001F000EEE71360E0E700BF1405002008050020CB
:1002000018050020084B1B681A6853881A440378A5
:100210001844824205D94378042B02D0052BF6D12D
:1002200000E00020704700BF0805002070B50F4BAC
:1002300005469847B8B10E4B1C680E4B20469847B0
:10024000044638B18078E178A2880B4B98470028A3
:10025000F3D108E0094B1B685B6853F82530BDE813
:1002600070401B681847002070BD00BFB1014000FE
:100270001805002005024000651840000805002010
:1002800070B50021104C0546A04708B9002519E0BB
:100290000E4B1B685B6853F82560F368984701466E
:1002A0002846A04705460028F0D0094B1C68094B9A
:1002B00020469847044618B18078074B9847F6E7E0
:1002C00073689847284670BDB101400008050020BA
:1002D00018050020050240003D194000014B186838
:1002E000704700BF1805002008B5014B984708BDAE
:1002F0008917400038B50B4B1A781C4622B90A4AB8
:1003000000232370138038BD0025084B1B681B6831
:100310001B79E8B2834205F10105F0D9044B9847F7
:10032000F3E700BF14050020120500200805002097
:100330008102400010B50A4B1B7803B910BD0024A0
:10034000084B1A6813681979E3B2994207D95268C1
:1003500052F823301B6903B198470134F0E710BD10
:100360001405002008050020F8B59B4C0023A3814C
:100370002361636123785AB2002A03DAE1880029F5
:1003800000F0A28113F0600140F05C81002A80F24D
:10039000A380E588904E002D00F0548113F01F03D8
:1003A00063D17378062B09D0082B56D0002B40F070
:1003B0004981022D40F04681884852E073881D0A29
:1003C000022D0CD006D8012D40F03C81844B1868DA
:1003D000017838E0032D19D00F2D10D032E1804A7A
:1003E0001168497CDBB2994240F22C81526852F884
:1003F00033007C4B41889847B3685D7025E0784BAB
:100400009868002800F01E8141881CE0DBB2012BB7
:1004100009D005D3022B40F015810625724A03E06E
:10042000724804210FE0724A7248134613F8011B08
:1004300020F8021B991AC9B2A942F7D3691C4900D6
:100440006D48C9B20170674B9847E388A2899A4208
:1004500040F23881604A938134E1012D40F0F2800E
:10046000664829465F4B98472CE1012B23D17378CE
:100470000A2B40F0E780012D40F0E4805F4B1B78B1
:10048000002B00F0DF805E4B35791E6833681B79E6
:10049000AB4240F2D78028465A4B9847002800F0DC
:1004A000D180736853F82530DB689847564B01219B
:1004B00018701846D6E7022B40F0C4807378002BE2
:1004C00040F0C080022D40F0BD80504B30799847FD
:1004D0004F4B18801846C4E713F01F0351D16378BF
:1004E000013B082B00F2AE80DFE803F00DACACACB2
:1004F00005ACACAC1C00E388002B40F0A380364B6D
:10050000444A1A61DEE0E388002B40F09B80324BC6
:100510005B88012B40F09680304A138823F0020359
:100520001380CFE0E5882C4F002D40F08B803A4BB4
:100530009847002800F08680294EBA7833685B7CA3
:100540009A427FDC354B9847BB782C4A1370002BBE
:1005500000F0B88071682A4A03F10053013B01EBB7
:10056000C3031360164633681B681B79E8B28342E5
:1005700040F2A88000212A4B984701350028F2D18B
:1005800060E0012B16D16278134B0B2A5AD1DA881E
:10059000002A57D1194A1278002A53D01D795E8853
:1005A000204B2846984700284CD02846F1B21C4BD7
:1005B000984745E0022B45D16378074D012B02D0C7
:1005C000032B33D03EE0EB88002B3BD16B88002B14
:1005D00038D12879144B32E02C0600201205002077
:1005E0003C0000205918400014000020300000207A
:1005F0001B00002022000020200000201405002005
:1006000008050020B10140001005002099194000A4
:100610000C0500209901400041184000F5024000FF
:100620002D02400081024000811A4000EB884BB946
:100630006B883BB92879254B98472879244B9847F4
:1006400000283FD1237803F01F03012B1BD1214B3E
:100650001B78C3B1204B1D79204B1E6833681B7972
:10066000AB4210D9284600211D4FB84758B17368D6
:1006700053F82560F368984701462846B84710B1FB
:10068000B3689847F0B9237803F01F03022B1BD1FE
:10069000104B1B78C3B10025104B1B681A681279E8
:1006A000ECB2A24210D95B6853F82460F368984713
:1006B0000B4B01462046984730B1B3689847013547
:1006C0000028E9D00120F8BD0020F8BD491C4000F9
:1006D000D9194000140500202C0600200805002030
:1006E000B10140002DE9F041194B06468846984774
:1006F000184B054630469847054004D1164B1B68F9
:10070000CBB9BDE8F081154C04F1600754F80C3CFE
:10071000434517D154F8081C294213D0236840469A
:10072000984754F8083CBC4225EA0305E6D010344B
:10073000002DEBD1E2E70A4B1B683BB13046BDE828
:10074000F0411847BC42D9D01034DFE7BDE8F08152
:10075000C91F4000CD1F4000440600202C0500208A
:100760001C05002008B50248024B0B21984708BD24
:10077000000E0E40E506400008B50248024B0C2171
:10078000984708BD00100E40E506400008B515204A
:10079000014B984708BD00BFC9214000436823F4BE
:1007A000702343604368090401F470210B434360E4
:1007B0007047436823F07F434360436843EA016125
:1007C0004160704730B543F699240569AD0703D4FD
:1007D000013CFAD101200BE04468A40706D51204BD
:1007E00002F4702211430BB141F08071C16000200E
:1007F00040B230BD890001440B6B12B143F00103DC
:1008000001E023F001030B637047890001440B6B87
:1008100012B143F0020301E023F002030B637047BF
:10082000042A09D100EB81010B6B23F008030B6351
:100830000B6B43F0040311E04AB900EB81010B6B31
:1008400023F008030B630B6B23F0040306E0082A74
:1008500005D100EB81010B6B43F008030B6370477C
:1008600000EB81010B6B23F0F0030B630B6B1A435E
:100870000A63704700EB81010B6B23F47F430B632A
:100880000B6B43EA02220A63704710B500EB81014B
:10089000086B80B208630C6B44EA036343EA0242CC
:1008A0000A6310BDEFF3108072B6BFF35F8F034B86
:1008B000B0FA80F000221A7040097047A5000020AD
:1008C000034A0023136153619381024A13707047F6
:1008D0002C060020110600200D4B05221A700D4A2F
:1008E00082B0136B0093009B43F04F030093009B77
:1008F00043F020030093009B136300230193019BAB
:10090000132B03D800BF019B0133F7E702B07047F8
:1009100011060020004003400D4B03221A700D4ABF
:1009200082B0136B0093009B43F04F030093009B36
:1009300043F010030093009B136300230193019B7A
:10094000132B03D800BF019B0133F7E702B07047B8
:100950001106002000400340024B1B6903B11847F9
:10096000704700BF2C0600207FB5820002F14022B4
:1009700002F54032431E146B116B14F0020F2D4C24
:100980000AD011F040050FD1142101FB03414E7C28
:1009900065F383064E7407E0142101FB0341012631
:1009A0004D7C66F383054D74142101FB0341497CA2
:1009B00011F00C011FD1156B0095009D45F04F05FE
:1009C0000095009D25F002050095009D156301919D
:1009D000019A132A04D800BF019A01320192F7E765
:1009E00028B3032823D0142202FB034301215A7C9D
:1009F00061F383021AE0116B0291029941F04F01F9
:100A00000291029921F040010291029911630022A2
:100A10000392039A132A03D800BF039A0132F7E71F
:100A2000142202FB03435A7C6FF383025A7404B00E
:100A300070BD00BF94050020F7B55F4E431E142221
:100A400002FB0362527CC2F3810220B103280CBF77
:100A50000124022400E00124A24201DB0120A8E0DD
:100A6000142202FB0362D4689768BC4207D3557C0A
:100A700005F0400505F0FF02002D00F099801425D7
:100A800005FB036C3F1BDCF8042002EB040EBCF8F2
:100A90001020C2F30902974238BF3A4605FB0365AE
:100AA0001444EC6034BF012700270EF1080502F161
:100AB0000804641B7444072C26D9840004F14024E4
:100AC00004F5403415F808CCC4F850C015F807CC2C
:100AD000C4F850C015F806CCC4F850C015F805CCC1
:100AE000C4F850C015F804CCC4F850C015F803CCB5
:100AF000C4F850C015F802CCC4F850C015F801CCA9
:100B0000C4F850C00835D2E722F00704744402F05C
:100B100007022244944208D000F11405DFF89CE05B
:100B200014F801CB4EF825C0F4E7142202FB03624F
:100B3000547CC4F38105013565F38304547441B9D1
:100B40000FB3142202FB0362517C6FF386115174C0
:100B500019E0800000F1402000F54030026B009267
:100B6000009A42F04F020092009A42F01002009266
:100B7000009A026300220192019A132AE0D800BF72
:100B8000019A0132F7E7142202FB0363D9689A68DD
:100B90009142FFF463AF5A7C02F0400202F0FF0082
:100BA000002A7FF45BAF5A7C42F080025A7400E066
:100BB000104603B0F0BD00BF940500200040034084
:100BC00028B1034B01221A70BFF35F8F62B67047E2
:100BD000A500002038B5074D2B5CFF2B044600D143
:100BE000FEE7054B98472B5D01332B55034B984788
:100BF00038BD00BF26060020A5084000C10B4000FC
:100C000038B5064D2B5C044603B9FEE7044B984704
:100C10002B5D013B2B55034B984738BD2606002022
:100C2000A5084000C10B400038B5074C05462378A5
:100C300018B933B10220054B02E013B9044B02206E
:100C40009847257038BD00BF0C060020010C4000FD
:100C5000D50B40002DE9F043604F3B78032B8BB060
:100C60001AD15F4A136B0093009B43F04F0300932C
:100C7000009B23F001030093009B13630023019367
:100C8000019B132B03D800BF019B0133F7E7554BA2
:100C90009847554B98479EE0544E554D3188AC8946
:100CA000641AA4B2002C28D1524A13880B449BB278
:100CB0001380EA889A4202D04F4B1B78BBB10423C1
:100CC000474A3B70136B0293029B43F04F0302931E
:100CD000029B23F001030293029B136300230393FF
:100CE000039B132B77D800BF039B0133F7E76B6996
:100CF00053B1984740B13480AC893F2C04D93E4B66
:100D000000221A70402402E03B4B01221A70DFF8E7
:100D1000D0903A4BAD68B6F800809847D9F830309B
:100D20009B07024603D405EB080318461AE0344B30
:100D3000984704233B70D9F830300493049B43F068
:100D40004F030493049B23F001030493049BC9F80D
:100D5000303000230593059B132B3CD800BF059B27
:100D60000133F7E7C11AC9B2A1421D4903D210F8F5
:100D7000015B0D65F6E7444434800B6B0693069BDC
:100D800043F04F030693069B43F010030693069B24
:100D90000B6300230793079B132B03D800BF079B0C
:100DA0000133F7E70E490B6B0893089B43F04F03A1
:100DB0000893089B23F001030893089B0B6300230F
:100DC0000993099B132B03D800BF099B0133F7E755
:100DD00010460B4B98470BB0BDE8F083110600207E
:100DE0000040034059094000C10840000E060020A1
:100DF0002C0600209005002010060020A5084000C9
:100E0000C10B400030B5437C0446D80614D56FF3BF
:100E10000413637423687BB102F10C05074850F892
:100E200025000139450548BF42F08002484248414B
:100E3000A168BDE83040184730BD00BF0040034006
:100E40002DE9F04F864BB3B0984758B9854BDB6915
:100E500013F4807306D172B6BFF35F8F824A1370AA
:100E600000F050BC814B222098477E4B9A6912F4C7
:100E7000006F1A4609D0D969090506D54FF40062FA
:100E80001A627B4B984700F03DBCD269754BD20784
:100E900040F1B5811A6B570740F19E80754D2B7854
:100EA0001BB1754B9847754B98476E4B1A6BC2F345
:100EB0000A42082A16D01A6B0492049A42F04F0292
:100EC0000492049A22F004020492049A1A63002302
:100ED0000593059B132B03D800BF059B0133F7E750
:100EE000674B57E000235F4C664E226D9A550133E5
:100EF000082B3746F7D1644B9847A0B9236B06936C
:100F0000069B43F04F030693069B23F004030693CE
:100F1000069B23630790079B132BE1D800BF079B19
:100F200001330793F7E796F90030002B236B33DA90
:100F30000893089B43F04F030893089B43F08003FA
:100F40000893089B236300230993099B132B03D861
:100F500000BF099B0133F7E7424A136B0A930A9BD0
:100F600043F04F030A930A9B23F004030A930A9B5E
:100F7000136300230B930B9B132B03D800BF0B9B16
:100F80000133F7E7414A00231380414A13800223CB
:100F90002B70404B9847B5E30C930C9B43F04F03E9
:100FA0000C930C9B23F004030C930C9B23630023F2
:100FB0000D930D9B132B03D800BF0D9B0133F7E757
:100FC000FB880BB9344BE5E7304A00231380304AE5
:100FD000138001232B7095E31A6BD607D9D41A6BB3
:100FE00012F0020200F0F280224A1278012A1FD089
:100FF000022A01D0042A01D11F4B00E0204B984760
:10100000184A136B0E930E9B43F04F030E930E9BE7
:1010100023F002030E930E9B136300230F930F9B89
:10102000132B03D800BF0F9B0133F7E7134BB1E736
:10103000174C1A6B134823888189C2F30A429D1802
:10104000A942B8BFCA1A8168194492B20E46751AED
:10105000EDB2954222D2034D2D6D06F8015BF6E705
:101060007522400000400340A5000020C921400037
:10107000350340001106002059094000C108400016
:10108000D90840002C06002069034000900500208C
:101090000E060020550C40001909400013449BB275
:1010A000402A9F4F238006D19E4DC4882A889E499E
:1010B0001A44944234DC838143699C4CD3B19847F1
:1010C0000546B8B99A4B9847236B1093109B43F091
:1010D0004F031093109B23F002031093109B236384
:1010E0001195119B132B00F20D8300BF119B01334F
:1010F0001193F6E7236B1293129B43F04F03129365
:10110000129B23F002031293129B23630023139379
:10111000139B132B3FF656AF00BF139B0133F6E72B
:101120008A899A423BD14E69804CBEB9804B984720
:10113000236B1493149B43F04F031493149B23F0DD
:1011400002031493149B23631596159B132B00F233
:10115000D98200BF159B01331593F6E7B0470646C9
:10116000B8B9734B9847236B1693169B43F04F0304
:101170001693169B23F002031693169B2363179670
:10118000179B132B00F2BE8200BF179B01331793EE
:10119000F6E73A882B8813442B8000233B80634A70
:1011A000136B1893189B43F04F031893189B23F06D
:1011B00002031893189B136300231993199B132B95
:1011C00000F2A08200BF199B0133F6E7196B0D07EF
:1011D00015D5196B0291029941F04F0102910299C4
:1011E00021F008010291029919630392039B132BCA
:1011F00000F2888200BF039B01330393F6E70122CC
:101200004A4B01219B6901FA02F919EA030FD6B290
:1012100000F0C481970007F1402404F54034DFF862
:101220001CE1206B142303FB02E810F0420002F1E2
:10123000FF35A8F11408F24640D003FB05E31F8AEE
:10124000D3F808E0DA685868236BC3F30A4BC7F396
:101250000907BBF1000F15D0C2EB0E039B454FF001
:10126000140E38BF5B460EFB05AE10441A4438BF5F
:101270000021CEF80C200344984204D0226D00F8DF
:10128000012BF9E7594630462A4B019198470199BD
:1012900011B9BB4580F03682216B11F0200140F07E
:1012A0003182224BC3F81490142303FB05A540465A
:1012B000EB68AB603246204B984723E2216B11F07C
:1012C000010100F04A8103FB05E303F1100E9EF8D3
:1012D0000120C2F38101033161F383028EF8012002
:1012E0005A7C02F0200C0CF0FF01BCF1000F6ED014
:1012F00012F00C02236B39D01A931A9B43F04F0360
:101300001A931A9B43F010031A931A9B23631B90A2
:101310001B9B132B14D800BF1B9B01331B93F7E7B8
:101320000E060020900500202C06002000400340FF
:10133000D908400069094000050E400094050020CE
:10134000236B1C931C9B43F04F031C931C9B23F0AB
:1013500001031C931C9B236300231D931D9B132BD4
:1013600000F2D08100BF1D9B0133F6E71E931E9B48
:1013700043F04F031E931E9B23F001031E931E9BFD
:1013800023631F921F9B132B04D800BF1F9B0133A5
:101390001F93F7E7236B2093209B43F04F03209389
:1013A000209B43F020032093209B23630023219361
:1013B000219B132B03D800BF219B0133F7E7142394
:1013C00003FB05A56B7C6FF345136B749AE1140660
:1013D0000BD59EF8012061F3C7128EF80120DA6860
:1013E0009A60404632468D4B9847142303FB05A371
:1013F000D9689A68914224D35C7C14F04C0420D1C3
:10140000874B9847874BC3F81490874B984707F151
:10141000402303F540331A6B2292229A42F04F0286
:101420002292229A22F001022292229A1A63239493
:10143000239B132B00F2668100BF239B0133239370
:10144000F6E7032E6BD0142303FB05A505F1100965
:1014500099F8013013F00C0F32D007F1402303F557
:1014600040331A6B2492249A42F04F022492249A19
:1014700042F010022492249A1A6300222592259A9F
:10148000132A03D800BF259A0132F7E71A6B269278
:10149000269A42F04F022692269A22F001022692C4
:1014A000269A1A6300232793279B132B03D800BF88
:1014B000279B0133F7E7304600215C4B984721E139
:1014C00001213046594CA047014658B999F80130DE
:1014D00060F3C71389F80130EB68AB6040463246D1
:1014E0004E4B984707F1402303F540331A6B28927F
:1014F000289A42F04F022892289A22F0010228925C
:10150000289A1A6300232993299B132B03D800BF21
:10151000299B0133F7E730460021A047F2E0434B17
:1015200030460121984707F1402303F540331A6BF9
:101530002A922A9A42F04F022A922A9A22F0010213
:101540002A922A9A1A6300232B932B9B132B00F2C7
:10155000D98000BF2B9B0133F6E7236B18071DD5FD
:10156000236B2C932C9B43F04F032C932C9B23F049
:1015700008032C932C9B23632D912D9B132B04D8B4
:1015800000BF2D9B01332D93F7E7236B03F4E0633A
:10159000B3F5807F00F0B680236BB3E00132072AF9
:1015A0007FF42EAE1F4B9A69920402D5DA69920439
:1015B0000DD49B699B0503D51A4BDB699F0506D4A7
:1015C000184A93695E050ED5D3695D050BD5154C98
:1015D0004FF41853236201206361154B98474FF471
:1015E000807323628AE092690E4BD40524D5DA69B0
:1015F000D00521D54FF480721A625A614FF400521F
:101600001A614FF400721A614FF480621A6122204D
:10161000084B98470020064B984773E0050E4000A2
:10162000A508400000400340C10B4000390A4000BB
:10163000290C400005224000344BDA69D10461D501
:101640004FF480521A620023314A5C1C142000FBC4
:10165000032001212F4BE2B29847062C2346F3D1F9
:101660002D4B9847294B5A6822F001025A605A685C
:1016700022F002025A609A6842F480729A609A6874
:1016800022F07F029A601A6B2E922E9A42F04F023D
:101690002E922E9A22F4074222F080022E922E9A47
:1016A00042F400422E922E9A1A6300222F922F9A11
:1016B000132A03D800BF2F9A0132F7E71A6B309232
:1016C000309A42F04F023092309A42F40042309207
:1016D000309A1A6300233193319B132B03D800BF38
:1016E000319B0133F7E70D4B084C984701232361E9
:1016F0000B4B98470B4B98474FF4807323614FF483
:101700000063236133B0BDE8F08F00BF00400340A9
:1017100094050020050E4000F5024000A508400099
:10172000C10B4000C108400010B5124B9847124B46
:10173000044601209847114B22209847104B5A6FBE
:1017400022F480725A675A6F42F400725A674FF45B
:1017500080721A614FF400521A614FF400721A61DC
:101760004FF480621A614FF400621A612046054B03
:10177000984710BDA5084000290C4000C921400031
:1017800000400340C10B400010B5154B9847154B66
:10179000044622209847144B9847144B502283F854
:1017A000222304225A6000221149142303FB02134E
:1017B0000132597C01F083016FF3C711062A597475
:1017C000F2D14FF480200B4B98470B4B0020187040
:1017D0000A4B98470A4B984720460A4B984710BD3A
:1017E000A5084000C9214000011E400000E100E0C2
:1017F00094050020612240000C060020D50B40001B
:1018000029174000C10B40000C4B5A6822F001021E
:101810005A609A6822F480729A6070B19A6800F0F7
:101820007F0022F07F02104398609A6842F4807231
:101830009A605A6842F001025A60704700400340C3
:10184000044B586810F001001CBF986800F07F003E
:10185000704700BF00400340014B9860998170477A
:101860002C060020F7B500F00F04062C5FD8A50069
:1018700005F1402505F540352B6B13F4004356D197
:1018800001F00306012E03D1002C50D0032C4ED0C2
:10189000231F012B94BF4FF4007340239A4246DC70
:1018A000244F631E4FF0140E0EFB037303F110065A
:1018B0001F8A62F309071F825B7C03F07F036FF3CB
:1018C0004513C00973701EBFDBB26FF383037370DF
:1018D000194B01229E6AA24042EA06049C629C6A5D
:1018E00024EA02029A622B6B0093009B43F04F03A1
:1018F0000093009B23F4074323F080030093009B95
:1019000008B141F00401090201F4E06141F4004131
:1019100019430091009B2B6300230193019B132B20
:1019200003D800BF019B0133F7E7012000E000204E
:1019300003B0F0BD940500200040034007B500F05F
:101940000F02062A21D8930003F1402303F5403308
:10195000196B0091009941F04F010091009921F419
:10196000004100910099196300230193019B132BFF
:1019700003D800BF019B0133F7E7054B511E14202C
:1019800000FB01300121034B984703B05DF804FBD5
:1019900094050020050E400000F00F00062810B549
:1019A00013D80B49431E142404FB03135B7C9B06D2
:1019B00009D40C30074B53F8203013F0280F14BF14
:1019C0000120002010BD012010BD002010BD00BF6F
:1019D000940500200040034037B500F00F05062DA8
:1019E000044641D8224B984723061AD505F10C012D
:1019F000204B53F8213013F0100F05F1FF321E4B2E
:101A000007D1142101FB0231497CC1F38101012975
:101A100007DD142101FB02335A7C42F020025A7484
:101A200019E0AB0003F1402303F540331A6B009239
:101A3000009A42F04F020092009A42F02002009277
:101A4000009A1A6300230193019B132B03D800BF54
:101A5000019B0133F7E70124064B04FA05F21A61F2
:101A6000064B9847204600E0002003B030BD00BF81
:101A7000A50840000040034094050020C10B400031
:101A80007FB500F00F05062D53D82B4A6E1E14218A
:101A900001FB06214B7C6FF345134B74AB0003F144
:101AA000402303F54033196B8C0640D5196B009128
:101AB000009941F04F010091009921F0200100911F
:101AC00000991963002101910199132903D800BFDE
:101AD00001990131F7E7194C0120A16AA84001439F
:101AE000A162A16A21EA0000A062196B0291029929
:101AF00041F04F010291029820F0080002900299F3
:101B0000196300230393039B132B03D800BF039B8C
:101B10000133F7E7142303FB06F153185A7CD00670
:101B200005D56FF304125A74034B5B589847012094
:101B300000E0002004B070BD940500200040034088
:101B40002DE9F04F00F00F0687B0062E8246029175
:101B500003921D466AD8B30003F1402B0BF5403BBE
:101B6000DBF8300010F4004061D0731E314F019358
:101B70004FF0140808FB03F807EB0804617C01F040
:101B8000200101F0FF00002950D1DBF8301011F0E6
:101B900020094CD128490591884794F811E005990E
:101BA0000EF0100202F0FF030493244B0AB1984791
:101BB0003CE094F811E005914EF0100E84F811E02D
:101BC0009847039B6360049BE360029B109AA560A7
:101BD00047F8082005991BB9B5FA85F56D0900E0AD
:101BE0000125019B142202FB0374627C65F38612BB
:101BF0006FF3C712627488470121114A07461AF031
:101C0000800F01FA06F010610BD0DBF8303013F0D2
:101C1000110406D130460B4DA84710B1304621467D
:101C2000A8473846054B9847012000E0002007B040
:101C3000BDE8F08F94050020A5084000C10B4000CE
:101C400000400340390A400070B500F00F04062C34
:101C500088B0064600F299804D4B984701254D4BC0
:101C6000A5405D614C4B9847300671D5A30003F148
:101C7000402303F540331A6BD1060DD41A6B06923C
:101C8000069A42F04F020692069A22F0010206924C
:101C9000069A1A63002349E06CB91A6B0492049AFD
:101CA00042F04F020492049A22F010020492049A25
:101CB0001A63002232E0032CEFD01A6B0092009AD4
:101CC00042F04F020092009A22F010020092009A15
:101CD0001A6300220192019A132A03D800BF019AC5
:101CE0000132F7E71A6B12F01002FBD1196B029167
:101CF000029941F04F010291029941F010010291C5
:101D0000029919630392039A132A03D800BF039A16
:101D10000132F7E71A6BD206FCD5BEE70592059AA9
:101D2000132AABD800BF059A0132F7E70793079B48
:101D3000132B03D800BF079B0133F7E71749631E36
:101D4000142000FB03135A7C6FF383025A740BE0D8
:101D500004F10C020F4B53F8223013F0420F03D062
:101D600020460F4B9847F3E70A4B9A6A2A439A6238
:101D70009A6A22EA05059D62084B621E142000FB48
:101D8000023001212246074B984708B070BD00BFC2
:101D9000A508400000400340C10B4000940500200E
:101DA00069094000050E4000013808B5062818D81A
:101DB000DFE800F00406090B0D111300002000E01D
:101DC0000120084B05E0002002E0102000E0202068
:101DD000054B984708BD002000E001203E21034B41
:101DE000984708BDC9204000E9204000312140004B
:101DF00008B5024B98470028FBD008BD7D21400064
:101E000008B50620094B9847094B9847094B984756
:101E1000094B0A4ADA620A4B98470028FBD0012096
:101E2000084B9847084B984708BD00BFA91D4000C4
:101E3000F11D4000AD21400000040E40023F0F00A4
:101E4000B9214000412240005522400010B50C4805
:101E50000C4CA04706200C4B98470C4B98470C4B5A
:101E600098470C4B0C4A9A620C4B98470028FBD0C1
:101E70000B4B102098470B4B98470148A04710BDCB
:101E8000000E270761254000A91D4000F11D4000FC
:101E90008D21400000040E40013F13209D21400091
:101EA000852040009524400001230360704743686B
:101EB00043F480734360436811B143F0100301E0C1
:101EC00023F01003436000207047006B70470162ED
:101ED0007047436801299FBF23F4981343EA0141E7
:101EE0004160002088BF0120704701294FF00103A5
:101EF0009DBF8B400361002018467047B1F1C05F61
:101F000010B542642DD007D8B1F1006F15D0B1F1F2
:101F1000805F1DD071BB10BDB1F1205F2BD005D803
:101F2000B1F1005F26D1036F13431FE0B1F1405FB1
:101F300021D0B1F1605F1ED01CE0016F046FD3436C
:101F4000214019400167416F446F21400B4010E070
:101F5000036F13430367436F416F0B4023EA020390
:101F600007E0036F016F0B4023EA02030367436F2F
:101F700013434367426010BDD30741644CBF4166C1
:101F8000016612F00A0F14BF01624162930702D585
:101F9000C0F8801003E0130748BFC0F88410416107
:101FA0000160704710B5029C41640CB1416600E0CD
:101FB00001660BB1016500E041650AB1016300E013
:101FC00041630161016010BDC06C7047806C704757
:101FD000F7B545090E4605F5001501F0F04105F28B
:101FE0000775B1F1005F4FEA45251ED009D8B1F160
:101FF000805F1AD0B1F1C05F17D0B1F1006F37D157
:1020000013E0B1F1405F1FD0B1F1605F1CD0B1F1BE
:10201000205F2DD100F01F03012404FA03F12846AC
:102020003246154B9847204623E000F01F0001245C
:1020300004FA00F73A462846104B9847F20701D4B5
:102040002F66F0E76F66EEE7012406F0605206EABD
:102050000403009302F148435A4200F01F015A4121
:10206000284604FA01F1C6F38003054DA847DAE7D4
:10207000002003B0F0BD00BF791F4000FD1E4000EE
:10208000A51F40000F4B1A6B22F07002104318631B
:1020900040F60102986E0B49000703D4013AF9D1CA
:1020A000012070470A6B22F0030242F002020A6329
:1020B00040F60102996E090702D4013AFAD1EFE71E
:1020C0000020704700040E40054A012801BF9368B4
:1020D00043F0254343F480139360024B1360704731
:1020E00010140E40080000A5104A116A41F45C115A
:1020F00041F008011162936E0C499B03FBD50B6AFA
:1021000023F45C1323F0700343F45C1303430B626A
:10211000936E06499B03FBD50B6A23F09B7323F454
:10212000803343F45C130B62704700BF00040E4021
:102130000F4A136A28B10F4919400F4B0B43136222
:10214000704723F45C1323F0030343F45C13090288
:1021500043F0010389B20B431362936E0449DB071A
:10216000FBD50B6A43F09B7343F480330B627047DB
:1021700000040E40FCFFC8FE02003701024B986EBF
:1021800000F48030704700BF00040E40024B4FF057
:1021900000529A62704700BF00040E40024B986ED6
:1021A00000F00200704700BF00040E40014B002207
:1021B000DA62704700040E40024B986E00F0040093
:1021C000704700BF00040E40222815D81F280C4A73
:1021D0004FF0010306D891698340194099420DD010
:1021E00013610BE0D2F8081120388340194099425E
:1021F00004D0C2F8003101E0012070470020704790
:1022000000040E40222815D81F280C4A4FF0010365
:1022100006D891698340194099420DD151610BE074
:10222000D2F80811203883401940994204D1C2F8ED
:10223000041101E0012070470020704700040E40A7
:10224000000200F47060024B40F001009863704798
:1022500000040E40014B80221A60704700040E40BB
:10226000034A136FC0F3120003431367704700BFA4
:1022700000040E40024B187880F00100704700BF48
:102280001206002000F01F02400900F5001000F2C5
:1022900007704002012393400366C0F89030436505
:1022A0004362C0F88030026F1A430267426F22EA2D
:1022B000030343677047000010B51A20024CA04783
:1022C0001820A04710BD00BF8522400038B54FF050
:1022D0000061264C0C20A0474FF000610D20A04764
:1022E0004FF000610E20A0474FF000610B20A04787
:1022F0001F4C204B204698478025022323602560F1
:10230000636843F001036360636823F00203636062
:10231000636843F010030422636020460021164BDB
:10232000984720460621154B984720460E21144B0E
:10233000984700210A462046124B984700210A463A
:102340002046114B98472A46204600210F4B104D3E
:1023500098472046002105220E4B984700210B4646
:1023600020460A46A8470123236038BDD11F4000FC
:10237000008000408D07400021084000B307400066
:102380009D074000F50740000B0840006108400031
:102390008B0840007508400038B5094C094B0A4DC0
:1023A0001E209847094B2046984720460021A84701
:1023B00020460121A84720460021054B984738BDFB
:1023C00000C00340C9214000EB1E4000A91E400090
:1023D000AF1E400008B5084B9847084B9847084B7C
:1023E0009847084B9847084B01221A70BFF35F8F3C
:1023F00062B6064B984708BD4D1E40009923400029
:10240000CD224000B9224000A5000020E902400092
:10241000FEE7000038B5164A164B9A420BD9043A2B
:1024200015498B4204D252F8041F43F8041BF7E706
:1024300000BF124B0CE0FBD20F48043AC31A1344FE
:1024400019469142F4D0C41A51F804590D51F8E7D5
:102450000B4A934203D2002243F8042BF8E7094BBE
:10246000094A9A60094B9847094B9847FEE700BF15
:10247000CC2B400000000020E8040020E8040020ED
:1024800090BE002000ED00E0000040002529400043
:10249000A126400010B52C4A136B03F00303012B57
:1024A0002A4B0DD003D3116ACC011AD525E0284957
:1024B000496908064CBF4FF400414FF4FA4130E03F
:1024C000116AC9010BD423491960116A01F0700126
:1024D000102902D0202902D024E01F4921E01F4901
:1024E0001FE01C491960116A01F07001102902D027
:1024F000202902D003E0184900E018491960116B47
:10250000114801F0030102290BBF816AC16A806A88
:10251000C06AC1F30A441968C0B204FB0111B1FBDF
:10252000F0F11960126B02F07002702A17BF064AB0
:102530001A68116B1A6819BFC1F30211CA4003214E
:10254000B2FBF1F21A6010BD00040E40A80000209A
:1025500010140E4000093D0000127A00001BB70065
:102560000C4B98420C4B02D84FF080620FE00B4AA4
:10257000904201D80A4A0AE00A4A904201D80A4A1F
:1025800005E00A4A90428CBF094A4FF004221A60C3
:10259000704700BF3F81BA01000A0E407F027503F9
:1025A00000010004FFC53E0500020004FF0D2707DF
:1025B0000005000408B5064B4FF080721A63054B06
:1025C000054A1868054B4FF400719847012008BD73
:1025D000000E0E40AC000020112740007D0140009D
:1025E00070B5C1781E4D04460022134609011D48EE
:1025F000A84721791B4800220901134601F58041B3
:10260000A8476179174800220901134641F40041A7
:10261000A847A179134809010022A1F540511346AA
:1026200089B2A847104B11489847C30716D5002117
:102630000F4E0E480F4DB047637821780B481B09A9
:1026400003EB0111A84701210848B0476378A1783E
:10265000064803F00F0301EB0321A84770BD00BF3C
:10266000C507400000800040CB1E400000C0034072
:10267000D31E4000CF1E400007B5074B18689A884C
:102680009B7900908DF806306846044BADF8042025
:10269000984703B05DF804FB982B4000E12540000B
:1026A00008B5064B9847064B4FF080621A634FF00F
:1026B00080725A63034B9847002008BDD523400021
:1026C000000E0E40792640004CF25033984205D857
:1026D000B0F57A7F38BF4FF47A7000E01846084BA7
:1026E000084A1860084BB3FBF0F0084BF021586023
:1026F00082F8231000229A6007221A60704700BFF8
:10270000B400002000ED00E0000E270710E000E01C
:102710002DE9F0473F4F404D3878296800284BD1CC
:102720000B78AA2B26D14B78AA2B23D18B78AA2BF6
:1027300020D1CB78AA2B1DD14B790A798C7903EB68
:102740000222364B1A60CB7903EB0423C3EBC3039D
:10275000334C04339BB22380A2F57A724BF6687433
:10276000A24229D840F60552934225D82D4B082283
:10277000188003E02B4B1B88F3B10022DFF8A08008
:10278000284EB8F800303088C2F50074A4B21B1A85
:10279000A3423CDC9CB24FF00109DFF8A0A0DAF8BC
:1027A00000301144184422461F4B984733881C447C
:1027B0003480B9F1000F07D128681C4A1C4B4FF434
:1027C00000719847BDE8F087B8F80020DAF80010EB
:1027D0008B188A5CBB2A17D113F8012CBB2A13D1A2
:1027E00013F8022CBB2A0FD113F8033CBB2B0BD1DF
:1027F000104B197801223A700029DDD11A70074B6D
:1028000018680D4B9847D7E700233380D4E74FF083
:102810000009C2E713060020AC000020B40000202D
:102820001C060020240600207529400011274000C6
:102830007D01400014060020C9264000B0000020A1
:10284000F8B51F4B19781F4B4FF08072002934D018
:102850001A631D4B1D4C1B6822681D4D1D4E073B06
:102860009A42274622D91C4B1A78E2B12C681B48A1
:102870001B4A1C49844208BF14604FF000041C70BE
:10288000194B18BF1160194A18BF28601868184BF7
:1028900008BF29601480984728683C60B0473B68AF
:1028A00007333B60F8BD2260286801E028681044C7
:1028B000B047236807332360F8BD5A63F8BD00BFF3
:1028C00014060020000E0E402006002018060020EE
:1028D000B8000020E1254000130600204808002031
:1028E000B00000206B630020B4000020240600200C
:1028F000C926400008B5054B00221A70044B9847C2
:10290000044B4FF080725A6308BD00BF14060020CC
:1029100079264000000E0E4008B5014B984708BDCF
:10292000F528400070B50F4E0F4D761BB61018BF3E
:10293000002405D0013455F8043B9847A642F9D14C
:102940000A4E0B4D761B00F02FF9B61018BF00246D
:1029500006D0013455F8043B9847A642F9D170BD22
:1029600070BD00BFB42B4000B42B4000BC2B400016
:10297000B42B4000844641EA000313F003036DD1F9
:10298000403A41D351F8043B40F8043B51F8043B32
:1029900040F8043B51F8043B40F8043B51F8043B39
:1029A00040F8043B51F8043B40F8043B51F8043B29
:1029B00040F8043B51F8043B40F8043B51F8043B19
:1029C00040F8043B51F8043B40F8043B51F8043B09
:1029D00040F8043B51F8043B40F8043B51F8043BF9
:1029E00040F8043B51F8043B40F8043B51F8043BE9
:1029F00040F8043B51F8043B40F8043B51F8043BD9
:102A000040F8043B403ABDD2303211D351F8043B78
:102A100040F8043B51F8043B40F8043B51F8043BB8
:102A200040F8043B51F8043B40F8043B103AEDD227
:102A30000C3205D351F8043B40F8043B043AF9D278
:102A4000043208D0D2071CBF11F8013B00F8013B4B
:102A500001D30B8803806046704700BF082A13D358
:102A60008B078DD010F003038AD0C3F10403D21A70
:102A7000DB071CBF11F8013B00F8013B80D331F8A4
:102A8000023B20F8023B7BE7043AD9D3013A11F824
:102A9000013B00F8013BF9D20B7803704B7843708F
:102AA0008B78837060467047024B13B1024800F088
:102AB00005B8704700000000C92A40000146002008
:102AC0000246034600F016B838B5084B084DED1A1B
:102AD000AC1018BFED1805D0013C55F8043D9847DF
:102AE000002CF9D1BDE8384000F068B8C82B400090
:102AF000CC2B40002DE9F047254C2568D5F84841FE
:102B00000646884692469946CCB360681F2818DC72
:102B1000431C7EB104EB80050121C5F888A0D4F8E0
:102B2000887101FA00F21743022EC4F88871C5F8C3
:102B300008911ED00230636044F820800020BDE878
:102B4000F087144B03B34FF4C870AFF30080044612
:102B5000D0B1D5F84831002780E88800C5F8484151
:102B600038460123C4F88871C4F88C71002EE1D076
:102B7000D0E7D4F88C110A43C4F88C21DAE705F5C4
:102B8000A674C5F84841C0E74FF0FF30BDE8F087B4
:102B9000A42B40000000000080080000000000009E
:102BA00043000000C0000020F8B500BFF8BC08BC1E
:102BB0009E467047A92A4000F1004000F8B500BFCA
:0C2BC000F8BC08BC9E467047CD004000E9
:102BCC005101400039014000290140002D01400015
:102BDC00000000004C41534441430048494200006E
:102BEC0000030000000000000000000000000000D6
:102BFC000403090460000020480000204C00002061
:102C0C00340000200000000000000020120100022F
:102C1C0000000040EB03232400010102000100002E
:102C2C000902450001010080640904000000FFFF57
:102C3C00FF000904000106FFFFFF000705830340A6
:102C4C000001070506034000010705810240000052
:102C5C000705020240000007058401000201070578
:102C6C00050100020101000000093D00480600209A
:102C7C006B630020204E000048080020000000007C
:102C8C0000000000AC030020140400207C04002091
:102C9C000000000000000000000000000000000028
:102CAC000000000000000000000000000000000018
:102CBC0000000000A02B40000000000000000000FD
:102CCC0000000000000000000000000000000000F8
:102CDC0000000000000000000000000000000000E8
:102CEC0000000000000000000000000000000000D8
:102CFC0000000000000000000000000000000000C8
:102D0C0000000000000000000000000000000000B7
:102D1C0000000000000000000000000000000000A7
:102D2C000000000000000000010000000000000096
:102D3C000E33CDAB34126DE6ECDE05000B0000005B
:102D4C000000000000000000000000000000000077
:102D5C000000000000000000000000000000000067
:102D6C000000000000000000000000000000000057
:102D7C000000000000000000000000000000000047
:04000005004024157E
:00000001FF
