S01600006C61736461635F61726475696E6F2E7372656355
S214080000C0110820291D0800251D0800251D080008
S214080010251D0800251D0800251D080000000000F5
S214080020000000000000000000000000251D080079
S214080030251D080000000000251D08007D21080079
S214080040251D0800251D0800251D0800251D08007B
S214080050251D0800251D0800251D0800251D08006B
S214080060251D0800251D0800000000001D0C0800BE
S214080070310C0800450C0800590C08000000000068
S21408008000000000251D0800251D0800251D080085
S214080090251D0800251D0800251D0800251D08002B
S2140800A0251D080000000000251D0800251D080065
S2140800B0251D0800251D0800251D0800251D08000B
S2140800C0251D0800251D0800251D0800251D0800FB
S2140800D0251D0800251D0800251D0800251D0800EB
S2140800E069130800251D0800251D0800251D0800A1
S2140800F0251D080010B5054C237833B9044B13B1F9
S2140801000448AFF300800123237010BDD8050720EC
S2140801100000000074290800084B10B51BB10848F9
S2140801200849AFF300800848036803B910BD074BB9
S214080130002BFBD0BDE81040184700BF00000000A9
S21408014074290800DC050720742908000000000050
S21408015000207047014B1878704700BFF405072049
S21408016008B5034B1B78012B01D1024B984708BDF5
S214080170F4050720FD1F080008B5074B9847C37805
S214080180064A012B137005D1054B9847003018BF57
S214080190012008BD012008BD21030800F40507203A
S2140801A0A11E080013B504460B46009200212246FD
S2140801B00420024CA04702B010BD00BF291A080050
S2140801C013B504460B460092002122460620024C30
S2140801D0A04702B010BD00BF291A080008B5034B97
S2140801E09878034B00F07F00984708BD2C07072037
S2140801F01518080030B5114B1B780BB9002030BD18
S2140802000F4B1B681B681A798242F7D90D4A136090
S2140802105C881C449C420ED95D78042D08D19D78D4
S214080220854205D1DD788D4202D11360012030BDAC
S2140802301D782B44EEE71360E0E700BF00060720B2
S214080240F805072004060720084B1B681A68538819
S2140802501A4403781844824205D94378042B02D0FE
S214080260052BF6D100E00020704700BFF8050720F0
S21408027070B50F4B05469847B8B10E4B1C6820461C
S2140802800D4B9847044638B18078E178A2880B4B26
S21408029098470028F3D108E0094B1B685B6853F8B9
S2140802A02530BDE870401B681847002070BD00BFA9
S2140802B0F50108000406072049020800F51A080098
S2140802C0F805072070B50021104C0546A04708B968
S2140802D0002519E00E4B1B685B6853F82560F36829
S2140802E0984701462846A04705460028F0D0094BFF
S2140802F01C682046084B9847044618B18078074B78
S2140803009847F6E773689847284670BDF5010800D1
S214080310F8050720040607204902080059180800AF
S214080320014B1868704700BF0406072008B5014B44
S214080330984708BDA111080038B50A4B1A781C461C
S21408034022B9094A00232370138038BD0025074BBD
S214080350E8B21B6801351B681B798342F1D9044B48
S2140803609847F4E700060720FE050720F80507204B
S214080370C502080010B50A4B1B7803B910BD002447
S214080380084B1A6813681979E3B2994207D9526874
S21408039052F823301B6903B198470134F0E710BDC3
S2140803A000060720F8050720F8B5984C0023A38117
S2140803B02361636123785AB2002A03DAE1880029A8
S2140803C000F09A8113F0600140F05481002A80F210
S2140803D09C80E5888D4E002D00F04C8113F01F039D
S2140803E05CD17378062B09D0082B4FD0002B40F031
S2140803F04181022D40F03E8185484BE073881D0AF6
S214080400022D0CD006D8012D40F03481814B186897
S214080410017831E0032D19D00F2D10D02AE17D4A3E
S214080420DBB21168497C994240F22481526852F83E
S2140804303300794B41889847B3685D701EE0754B6A
S2140804409868002800F01681418815E013F0FF032D
S21408045005D0022B40F00E81704A002302E0704857
S214080460042109E06F49595C0133062B22F8021B68
S214080470F8D16D480E210170674B9847E388A2892A
S2140804809A4240F23781614A938133E1012D40F068
S214080490F18066482946604B98472BE1012B23D10B
S2140804A073780A2B40F0E680012D40F0E3805F4B1E
S2140804B01B78002B00F0DE805D4B35791E683368AC
S2140804C01B79AB4240F2D68028465A4B98470028FC
S2140804D000F0D080736853F82530DB689847564B91
S2140804E0012118701846D6E7022B40F0C3807378AF
S2140804F0002B40F0BF80022D40F0BC804F4B307977
S21408050098474F4B18801846C4E713F01F0351D17D
S2140805106378013B082B00F2AD80DFE803F00DABF3
S214080520ABAB05ABABAB1C00E388002B40F0A2805E
S214080530444A364B1A61DDE0E388002B40F09A8087
S214080540324B5B88012B40F09580314A138823F0A4
S21408055002031380CEE0E5882C4F002D40F08A80F9
S214080560394B9847002800F085802A4EBA783368B9
S2140805705B7C9A427EDC354B9847BB782B4A1370D7
S214080580002B00F0B7802A4A7168164603F100531C
S214080590013B01EBC30313603368E8B21B681B79A1
S2140805A0834240F2A7800021294B9847013500284E
S2140805B0F2D15FE0012B16D16278144B0B2A59D181
S2140805C0DA88002A56D1194A1278002A52D01D799C
S2140805D05E8828461F4B984700284BD02846F1B21D
S2140805E01B4B984744E0022B44D16378074D012BF8
S2140805F002D0032B32D03DE0EB88002B3AD16B8833
S214080600002B37D12879144B31E000BF2C07072080
S214080610FE050720080107204D1808007A01072064
S21408062088010720710107207801072000060720A7
S214080630F8050720F5010800FC050720A91808009A
S214080640F6050720DD0108003D18080039030800F4
S21408065071020800C502080071190800EB884BB93A
S2140806606B883BB92879254B98472879244B9847B7
S21408067000283FD1237803F01F03012B1BD1214B01
S2140806801B78C3B1204B1D79204B1E6833681B7935
S214080690AB4210D9284600211D4FB84758B1736899
S2140806A053F82560F368984701462846B84710B1BE
S2140806B0B3689847F0B9237803F01F03022B1BD1C1
S2140806C0104B1B78C3B10025104BECB21B681A6898
S2140806D01279A24210D95B6853F82460F3689847E9
S2140806E00B4B01462046984730B1B368984701350A
S2140806F00028E9D00120F8BD0020F8BDAD1C080090
S214080700BD180800000607202C070720F805072054
S214080710F501080008B5034B984202D11820024B91
S214080720984708BD00800040410D0800436809044A
S21408073023F470234360436801F470210B4343603D
S2140807407047436823F07F434360436843EA016188
S2140807504160704730B543F699240569AD0703D460
S214080760013CFAD101200BE04468A40706D5120420
S21408077002F4702211430BB141F08071C160002071
S21408078040B230BD890001440B6B12B143F001033F
S21408079001E023F001030B637047890001440B6BEB
S2140807A012B143F0020301E023F002030B63704723
S2140807B0042A09D100EB81010B6B23F008030B63B5
S2140807C00B6B43F0040311E04AB900EB81010B6B95
S2140807D023F008030B630B6B23F0040306E0082AD8
S2140807E005D100EB81010B6B43F008030B637047E0
S2140807F000EB81010B6B23F0F0030B630B6B1A43C2
S2140808000A63704700EB81010B6B23F47F430B638D
S2140808100B6B43EA02220A63704710B500EB8101AE
S214080820086B80B208630C6B44EA036343EA02422F
S2140808300A6310BD012303607047436811B143F093
S214080840100301E023F01003436000207047006B9C
S214080850704701627047436801299FBF23F49813C5
S21408086043EA01414160002088BF01207047012902
S2140808704FF001039DBF8B40036100201846704768
S21408088008B5044B98470020034B9847034B9847F6
S21408089008BD00BF2D0D08007D0D0800910D08004D
S2140808A010B50E480E4CA04700203E210D4B984729
S2140808B00D4B98470028FBD00C4B98470C4A0D4B1D
S2140808C09A620D4B98470028FBD00C4B102098478F
S2140808D00B4B98470148A04710BD00BF00BD010557
S2140808E089000720B10C0800FD0C08000D0D080053
S2140808F0013F0D2000060E401D0D08006D0C080077
S214080900A91D0800084B196851B9EFF31080074A6B
S21408091028B972B6BFF35F8F0549087001211170B8
S2140809201A6801321A607047080607200C06072066
S2140809308C010720074B1A68013A1A601B6843B9EE
S214080940054B1B782BB1054B01221A70BFF35F8F3E
S21408095062B67047080607200C0607208C01072099
S214080960174B4FF4004210B50B205A60154CA047A1
S2140809700C20A0470D20A0470E20A047124C4FF091
S21408098060513B20A0474FF060515520A0474FF0DC
S21408099060515620A0470D496820A0470C495C20A6
S2140809A0A0470C4A0C4B4FF440710C4898474FF040
S2140809B000612B20A0474FF000612A20A04710BDF9
S2140809C0501A0E40410D0800750A080079000028E4
S2140809D00100002801000008390B0800000E0E4030
S2140809E0B1F1805F426414D009D8B1B1B1F1006F9B
S2140809F012D1036F016F0B4023EA02030BE0B1F13B
S214080A00405F0AD0B1F1605F07D0B1F1205F03D133
S214080A107047036F1343036742607047D307416408
S214080A204CBF4166016612F00A0F14BF01624162AC
S214080A30930702D5C0F8801003E0130748BFC0F834
S214080A40841041610160704710B5029C41640CB186
S214080A50416600E001660BB1016500E041650AB138
S214080A60016300E041630161016010BDC06C70471E
S214080A70806C7047F7B545090E4605F5001501F078
S214080A80F04105F20775B1F1205F4FEA45252BD0F6
S214080A9014D8B1F1006F18D0B1F1805F42D100F0E0
S214080AA01F02012000FA02F36B642A6F1A432A67B2
S214080AB0F2076B604CBF6B662B6634E0B1F1405FA3
S214080AC01CD0B1F1605F19D02CE000F01F000124A3
S214080AD004FA00F73A462846144B9847F1074CBFE5
S214080AE06F662F6620461EE000F01F02012404FAF7
S214080AF002F1284632460E4B9847F3E7012406F0E3
S214080B00605206EA0403009302F148435A4200F092
S214080B101F015A41284604FA01F1C6F38003054D21
S214080B20A847DFE7002003B0F0BD00BFE1090800D2
S214080B301D0A0800490A080002F0F043B3F1205FD6
S214080B4073B505460C4616461CD00BD8B3F1006F95
S214080B500FD0B3F1805F29D16964036F0B43036735
S214080B6069600AE0B3F1405F10D0B3F1605F0DD062
S214080B701CE0194622460F4B9847F2074CBF6C6696
S214080B802C6601E00C4B9847012010E006F06052F6
S214080B9006F00103009302F148435A4221465A419F
S214080BA02846C6F38003054CA047EDE7002002B0B0
S214080BB070BD00BFE10908001D0A0800490A0800C0
S214080BC0F8B5134B04460F469847124B0546204681
S214080BD0984705401BD0104C04F1600654F80C3CAE
S214080BE0BB4210D154F8081C29420CD0236838465A
S214080BF0984754F8083CB44225EA030507D0103451
S214080C00002DEBD1F8BDB44201D01034E6E7F8BDAC
S214080C106D0A0800710A08001C06072008B5024875
S214080C200B21024B984708BD000E0E40C10B08006A
S214080C3008B502480C21024B984708BD00100E4024
S214080C40C10B080008B502480D21024B984708BD9D
S214080C5000120E40C10B080008B502480E21024BD0
S214080C60984708BD00140E40C10B08000F4B1A6BBE
S214080C7022F07002104340F601021863986E0B4982
S214080C80000703D4013AF9D1012070470A6B22F015
S214080C90030242F002020A6340F60102996E09074F
S214080CA002D4013AFAD1EFE70020704700060E405A
S214080CB00F4A136A28B10F4919400F4B0B431362AA
S214080CC0704723F45C1323F0030343F45C13090210
S214080CD043F0010389B20B431362936E0449DB07A2
S214080CE0FBD50B6A43F09B7343F480330B62704763
S214080CF000060E40FCFFC8FE02003701024B986E45
S214080D0000F48030704700BF00060E40024B4FF0DC
S214080D1000529A62704700BF00060E40024B986E5B
S214080D2000F00200704700BF00060E40034B4FF469
S214080D304412DA619A6E5206FCD5704700060E40D9
S214080D402C2815D81F280C4A4FF0010306D891699D
S214080D508340194099420DD013610BE0D2F8081170
S214080D60203883401940994204D0C2F8003101E087
S214080D70012070470020704700060E40000200F46D
S214080D807060024B40F001009863704700060E4002
S214080D90014B20221A60704700060E40034AC0F333
S214080DA01200136F03431367704700BF00060E4018
S214080DB0024B187880F00100704700BF80060720B5
S214080DC0EFF3108072B6BFF35F8FB0FA80F0024B75
S214080DD000221A70400970478C010720034B052231
S214080DE01A70034B4FF400221A6070471A07072040
S214080DF0F0C10A40024B1B6903B11847704700BF91
S214080E002C07072028B1034B01221A70BFF35F8F07
S214080E1062B670478C01072038B5074D04462B5C30
S214080E20FF2B00D1FEE7054B98472B5D01332B556A
S214080E30034B984738BD00BF26070720C10D08009A
S214080E40050E080038B5064D04462B5C03B9FEE7C8
S214080E50044B98472B5D013B2B55034B984738BDF1
S214080E6026070720C10D0800050E080038B5074CF0
S214080E700546237818B933B10220054B02E013B9AA
S214080E80044B02209847257038BD00BF1807072076
S214080E90450E0800190E080008B5094B9847094B77
S214080EA001221A60084B9847084B02221A60084A23
S214080EB00023136153619381064A137008BD00BF6F
S214080EC0C10D080020C20A40050E080060C10A408D
S214080ED02C0707201A07072008B5084B03221A70A4
S214080EE0074B98470749084B01220A601A600822F0
S214080EF00A601A60054B984708BD00BF1A07072006
S214080F00C10D080060C10A40F0C10A40050E08007D
S214080F102DE9F047314CA047314B0122314F1A607A
S214080F20314EB0473B78A246032B05D12F4B984746
S214080F302F4B9847BDE8F0872E4B2F4D1988AC8964
S214080F409946641AA4B2D4B92C4A13880B449BB2A7
S214080F501380EA889A4202D0294B1B7843B10423AF
S214080F603B70D047274A10231360C2F8903032E00F
S214080F706B695BB1984748B1A9F80040AC893F2C2B
S214080F8004D91F4B00221A70402402E01C4B012291
S214080F901A70B9F80080AD68D0471B4B45441B68EB
S214080FA002469B0701D4194B04E0B04704233B7064
S214080FB0BDE8F087D9B2A14204D215F8011B03F8A0
S214080FC0011BF7E710460F4901234444A9F80040DF
S214080FD00B60C1F89030B047BDE8F087C10D080037
S214080FE020C20A401A070720050E0800F50D08005B
S214080FF0990E08001C0707202C070720160707204D
S2140810001907072060C10A4030C10A4000001820AE
S21408101010B5037D0446D80710D56FF30003237573
S21408102023685BB1064850F82200C00548BF42F066
S21408103080020846A168BDE81040184710BD00BFEA
S21408104000C10A402DE9F74F4B4F00F1FF3818232F
S21408105003FB08731A7D0446D50740F18A80DA68D0
S2140810609D68DFF818A1AA425CD0AD1A5AF820107D
S214081070B5F5803F414B92BF2E044FF480350026CD
S21408108011F4807F53F8201010D0C1F30211082302
S2140810908B40013B1D4217D0182303FB0873197DAC
S2140810A046F008066FF3410119750DE0C1F3C1213A
S2140810B0012907D153F820100823C1F302118B40E9
S2140810C09D4201D846F014064FF0180909FB087926
S2140810D0DFF8C8B023019B44D9F804301344CBF892
S2140810E00430274B9847DBF80C30264A13F0100FCD
S2140810F009F1080310D146F02106CBF808605968B4
S214081100C9F81050294459601F494FF0007303FA74
S21408111008F38B6190472CE001939047019B5B682E
S214081120C9F808305AF82430D8051BD5182303FB0D
S21408113008731B7D990715D5144A012342F82430F5
S214081140303A52F82420D20344BF114A42F82430D9
S214081150104A42F824304FF48053A340A2F5F872A0
S214081160936106E0182000FB0870002122460A4B0F
S214081170984703B0BDE8F08F8406072000C10A40F0
S214081180C10D0800050E080000C00A4060C10A40EC
S21408119090C10A40F0C10A401110080000C30A4076
S2140811A010B53C4B98473C4B0446282098473B4B89
S2140811B098473B4B502283F828234FF480725A6096
S2140811C04FF48020374B9847374BD3F8002822F047
S2140811D08072C3F80028D3F8002842F00072C3F8DB
S2140811E00028D3F8002822F08072C3F80028D3F825
S2140811F0002842F48052C3F80028D3F8002842F4A6
S2140812000042C3F800281A6822F480521A601A6846
S21408121042F440621A60D3F8002822F48042C3F8E9
S2140812200028D3F804285004FBD500221F491823A9
S21408123003FB0213197D013201F0FE016FF38201F0
S214081240062A1975F2D1184B0222C3F80828D3F8D3
S2140812500418090548BFC3F80C28D3F8002842F03C
S2140812600202C3F80028D3F8002842F48042C3F8E4
S21408127000280F4A137833B9012111700D4A03204C
S21408128013700D4B01E00D4B0020984720460C4B81
S214081290984710BDC10D0800410D080081080800D8
S2140812A000E100E09D0D080000C00A408406072003
S2140812B01407072018070720190E08006D0E0800E7
S2140812C0050E080038B5174B9847174B04460120FB
S2140812D09847164BD3F8002822F48042C3F8002813
S2140812E01A46D2F80418114B4904FAD51A68082584
S2140812F022F480721A600121102204209D619961EF
S2140813009A6198619D60986002209860D9609A609A
S214081310D3F80028204642F48042C3F80028044B3D
S214081320984738BDC10D08006D0E080000C00A4079
S214081330050E080008B50A4B0020D3F8002822F44A
S2140813408042C3F800281A6842F480721A60D3F8FC
S214081350002842F48042C3F80028024B984708BD8C
S21408136000C00A406D0E0800F8B5944B9847944A9A
S21408137048B9536813F0010305D172B6BFF35F8FFF
S214081380904A1370F8BD52688D4B570708D504224B
S2140813909A60D3F8043813F4405F40F01E8204E0E5
S2140813A05A68960704D502229A60874B9847F8BD74
S2140813B05B68DD0440F13681844B10221A600822EF
S2140813C01A60F03B1A681D4612F0040F41D0804C94
S2140813D023781BB17F4B98477F4B98472B68C3F3FE
S2140813E00A53082B04D07D4B984704227C4BAAE06E
S2140813F07C4B13F8011B7C4A7C4E1A4491557C4A58
S2140814009342F6D17B4B98470427754D18B9734B12
S21408141098472F60F8BD2F6096F90030002B07DA42
S214081420754A00231380754A13800223237017E039
S214081430F388002B56D0704A002313806F4A138017
S2140814400123237010246E4B2C6098476D4B1C604C
S21408145064E01B68DC0705D56B4B1B68D80701D50D
S2140814606A4BA8E02A686A4B91075AD5584A1278F8
S214081470012A09D0022A01D0042A01D1554B00E0DE
S214081480564B9847544B96E05C4C1A685748238846
S214081490C2F30A5281899D18A94225468468B8BFB6
S2140814A0CA1A591E21444F4C92B2E6B2964204D24A
S2140814B014F8016B01F8016FF7E713449BB2402A52
S2140814C04E4E2B80464C06D14B4DC7882A88474936
S2140814D01A44974208DC838143690BB1984750B198
S2140814E0022323604B4B66E08A899A420ED14B69E9
S2140814F00BB1984720B9394B984702232360F8BDAB
S21408150032882B8813442B8000233380022310252F
S21408151023603B4B256098473A4B1D603E4B9847E7
S214081520F8BD1A68120710D52D4A082111601B68E5
S214081530DF0700F15281264B1B78032B40F04D81C4
S214081540304B4FF400221A60F8BD1A68D60669D5E3
S214081550234A102111601B689D0700F13E811C4B31
S2140815601B78012BBED0042BE8E71A69D50700F1D3
S214081570C680134B1A6912F0100F1A4640F01481F1
S214081580D2F804280E4B920740F12781D3F800289A
S21408159022F48042C3F800280222C3F80828D3F8A9
S2140815A0002842F48042C3F80028D3F804381B0504
S2140815B04CBF1A4B1A4B9847F8BD00BFB10D080030
S2140815C000C00A408C0107207503080020C20A40A4
S2140815D01A070720F50D0800990E0800DD0D08000B
S2140815E060C10A4000001820FFFFE7DF2C0707202D
S2140815F008001820A9030800160707201C0707205C
S214081600C10D0800F0C10A40C0C10A40110F080009
S21408161030C10A40D90E0800050E0800C512080099
S214081620351308006D4C01206D4D431E2E694FF092
S214081630007199403142C2B218D06E68314215D056
S214081640684814012044C468E40700F1C68069614C
S214081650C1680C0C07D06448182101FB0303D9683D
S214081660091BD96099601046604B5DE029694FF404
S214081670805585400D423CD0D4F890708100FF0715
S21408168004F1900612D52768FF070FD55848594D1C
S21408169001240C504C514FF480440C5052491820E9
S2140816A000FB03100021544B9847F8BD3268D60457
S2140816B01FD52268C2F30132DAB94D484FF4805478
S2140816C00C50A0F5087045614748182404FB03032E
S2140816D0187D62F38200494A18758B5823F4007304
S2140816E08B50474B4FF40022CA504FF48022CA5002
S2140816F0F8BD0130072804F1040495D116E05A68AD
S214081700D4077FF536AFD3F8002822F48042C3F812
S214081710002801225A6110229A61D3F8002842F460
S2140817208042C3F80028374B9847F8BD2C4B5868BA
S21408173010F008003FF419AF08229A6000232A4ADE
S2140817405C1C182000FB032001212B4BE2B29847B3
S214081750062C2346F3D1224C2B4B98472368274A5E
S21408176023F07F032360236843F080032360136815
S21408177023F4CB5323F01C0343F0300313601368A1
S21408178043F002031360E36943F00103E3611F4B70
S21408179098471B4B04221A6002221A604FF48053A3
S2140817A0A3611B4B98476DE65968C8067FF5E8AEF7
S2140817B0D3F8002822F48042C3F80028084BD3F850
S2140817C0042812F4804F1A4602D15B68D907F5D56B
S2140817D01023012053619061A5E7F8BD34C10A4083
S2140817E000C00A4000C30A408406072045100800C7
S2140817F020C20A4060C10A401110080000C10A4011
S214081800F0C10A406D0E080039030800C10D080033
S214081810050E0800084B00F07F001A6822F08002C8
S2140818201A601A6822F07F0202431A601A6842F0A9
S21408183080021A60704700BF00C00A40024B186852
S21408184000F07F00704700BF00C00A40014B986058
S214081850998170472C07072000F00F02062A10B55A
S2140818601BD80E480121C36901FA02F423EA0403CF
S214081870C36100F5807050F82230182423F0020364
S21408188040F822300648531E04FB0304054B204646
S2140818909847237D6FF38203237510BD00C00A4066
S2140818A08406072011100800034B00F00F0053F8B9
S2140818B02000C0F3C0407047C0C10A40F8B500F029
S2140818C00F04062C06463ED8214B53F824301A033C
S2140818D03BD4204A631E182505FB03252B7D03F001
S2140818E0040202F0FF0082BBDB072FD41A4B98478E
S2140818F016F0800F07461949194A12D0194B53F8A3
S214081900243013F4405F0CD02B7D43F004032B7572
S2140819104FF4805341F82430A340A1F5F8718B6149
S2140819200FE0114850F8243023F4007340F82430B0
S2140819300E4B402043F8240038464FF4002341F865
S2140819402430904701E00020F8BD0120F8BD00BF14
S214081950C0C10A4084060720C10D0800F0C10A402D
S214081960050E080030C10A4000C10A4060C10A409E
S21408197000F00F00062838B549D8264B451E182211
S21408198002FB0532147D04F0040404F0FF016CB178
S214081990117D6FF3820111751F4A4FF4805142F88A
S2140819A020108140A2F50872516101211B4A52F8A5
S2140819B0202012031CD51A4A52F82020540641BF8C
S2140819C0184A402142F820104FF4802144BF903234
S2140819D042F82010104A4FF4002142F82010A2F5D1
S2140819E0907252F8201041F4007142F8201000E07E
S2140819F059B118226A431344197DC80705D56FF3F1
S214081A0000011975034B9B589847012038BD0020E4
S214081A1038BD00BF8406072020C20A40C0C10A405D
S214081A2030C10A4060C10A402DE9F04F00F00F08A7
S214081A3085B0B8F1060F019102921F4649D8274A89
S214081A400125D06905FA08F2104043D0244A52F816
S214081A50280010F400203CD108F1FF344FF0180A93
S214081A600AFB04FA1F4E06EB0A0999F8141001F04F
S214081A70040179BB1C49884799F814101B4B294068
S214081A8001D0984725E099F814E003914EF0010E2E
S214081A9089F814E09847029B0399C9F804300E9A0F
S214081AA0019BC9F80870C9F80C10C9F8101046F858
S214081AB00A2013B9B7FA87F56D09182202FB0464E1
S214081AC0227D404665F341022275094B984701205E
S214081AD000E0002005B0BDE8F08F00BF00C00A4057
S214081AE0C0C10A4084060720C10D0800050E08007C
S214081AF0451008002DE9F34100F00F04062C00F20B
S214081B00C580644B4FF0010EDB690EFA04F52B40D6
S214081B1040F0BC8011F0030500F0B880022D03D910
S214081B20032D40F0B3809E465B4E10F0800F56F8AB
S214081B302450A2F5806080B225F4CB554FEAC12127
S214081B400CBF00234FF48073B0F57C4F4FEA840730
S214081B5025F01C0501F4C05104D3082A05D9520003
S214081B60013A03E040F2FF7200E00F22B2FA82F276
S214081B704FEA8E0000F00C0008430343C2F11C0233
S214081B8043EA021241F67C1313401D43BD5101255A
S214081B90A540ADB20622D3B2A34214D93D490123CB
S214081BA0C869934003420CD0C8691D4320EA030362
S214081BB0CB613A4BADB213449B00196821F0020181
S214081BC01960013AE7E745FA04F3D80705D4013463
S214081BD0E4B2072CF7D1012059E0DFF8CCE0671E05
S214081BE0182101FB07E10B7D2B4A03F0010C6FF36C
S214081BF000030B75A3001A441068DFF8988040F0BD
S214081C0002001060D8F81C600120A0403043C8F8D5
S214081C101C0023487646C35813F4802F10D10D684D
S214081C20002D33D013680120D9054FF0180303FBA5
S214081C3007E648BF44F08004F1682246A84725E036
S214081C40136843F400731360BCF1000FBFD001F1B2
S214081C500800CB6809695B1A43601268D2054FF022
S214081C60180202FB07F73E44317D72685EF807707B
S214081C70B6684CBF44F0800020461A440097F31A12
S214081C80C1F34001074EB0470028A0D1002002B09B
S214081C90BDE8F08100C00A4000C10A4040B002100A
S214081CA030C10A40291A08008406072000F00F02EF
S214081CB070B51549561E4FF00073B3404B61134B71
S214081CC01401234400249C604FF480539340040678
S214081CD04B6107D40E4B182000FB063001210D4B34
S214081CE0984770BD0C4B0D4C91000B440C4418687B
S214081CF010F4405FEED04FF400502060084D68584E
S214081D008004FBD4F3E700BF00C00A4000C30A40C3
S214081D10840607201110080030C10A40F0C10A40A6
S214081D20C0C10A40FEE7000008B5164A164B9A429C
S214081D3001D0043A01E0154B07E015498B42FAD268
S214081D4052F8041F43F8041BF7E7124A934203D2DB
S214081D50002243F8042BF8E70F4B104A23F06041A3
S214081D6021F07F0103F16043B3F5801F91603EBF09
S214081D70936843F000539360094B9847094B98477C
S214081D80FEE700BF7429080000000720D8050720D2
S214081D90D8050720C0F107200000080000ED00E085
S214081DA009280800ED23080010B52C4A136B03F029
S214081DB00303012B2A4B0DD003D3116ACC011AD585
S214081DC025E02849496908064CBF4FF400414FF4FE
S214081DD0FA4130E0116AC9010BD423491960116A27
S214081DE001F07001102902D0202902D024E01F49F2
S214081DF021E01F491FE01C491960116A01F07001B3
S214081E00102902D0202902D003E0184900E018491A
S214081E101960116B114801F00301022901BF816A9C
S214081E20806AC1F30A44196803BFC0B204FB0111F3
S214081E30B1FBF0F10F491960126B02F07002702ABC
S214081E4003BF1A680321B2FBF1F2044A1FBF116BE5
S214081E501A68C1F30211CA401A6010BD00060E4087
S214081E6090010720101A0E4000093D0000127A0063
S214081E70001BB700001C4E0E00F01F02400900F5BC
S214081E800010012300F20770934040020366436582
S214081E904362C0F88030026F134303677047000040
S214081EA008B5074B44F628611868064A064B984753
S214081EB0064B03211868064A064B9847012008BDBA
S214081EC0A801072071200800C10108009801072012
S214081ED069220800A50108002DE9F843214B224E87
S214081EE01988224B22481A6802EBC10332F831805F
S214081EF0597993F80690002209011C79DD795F88E4
S214081F0001F580511346B04700224FEA09111346DF
S214081F1001F5A0411648B04729010022A1F5E04185
S214081F20134689B21248B04721010022A1F5405154
S214081F30134689B20E48B0470E4B0F489847C3075A
S214081F400DD500210D4D0C48A8470D4C0A484146B2
S214081F50A04701210848A84707483946A047BDE8D2
S214081F60F88300BF2407072055070800AC010720A0
S214081F70008000404F08080000800C405708080002
S214081F8053080800002238B54FF48051154C134604
S214081F901548A047002213464FF4A0411248A04710
S214081FA0002213464FF410410F48A047002213465C
S214081FB04FF450410C48A0470C4B0D489847C307B0
S214081FC00FD500210B4D0A48A8470B4C08484FF47C
S214081FD00061A04701210648A84705484FF400615C
S214081FE0A04738BD55070800008000404F08080085
S214081FF000800C405708080053080800064A08B531
S21408200000231370054A1380054B9847054B4FF07D
S21408201000625A6308BD00BF1F0707202407072071
S214082020851F080000100E404CF25033984205D821
S214082030B0F57A7F38BF4FF47A7000E01846084B40
S214082040084A1860084BF021B3FBF0F0074B5860BD
S21408205082F8231000229A6007221A60704700BF91
S214082060A401072000ED00E000BD010510E000E037
S2140820702DE9F84FDFF8F8802C4C98F800304746E2
S214082080002B4BD1002849D1294BC8089847294D21
S2140820900022294BA847294B98472368013885B260
S2140820A003EBC502B2F802B0AB4537D11679DFF8B4
S2140820B0C4A0C6F340028AF8002033F83B30DFF8A5
S2140820C0B890C9F800301E4B98471E4B19781A4628
S2140820D009B1F30715D521681B4B186819601B4909
S2140820E000230B803B70012313709AF80020184BCE
S2140820F0184920601A70D9F80000174B0D809847C9
S2140821000AE0164B21681A681960154B2260A3F876
S21408211000B0012388F80030124B9847206844F630
S2140821202861114A114B9847BDE8F88FA801072087
S214082130DD260800652408000000E03FC9270800DF
S214082140050908001F070720AC01072024070720F9
S214082150940107202207072029200800A00107204D
S214082160200707203509080071200800C10108006B
S2140821701E0707209C010720A40107202DE9F84325
S214082180244A254D13784FF00066002B3ED0234C8A
S214082190DFF8B8802E632188B8F8003099422ED32D
S2140821A0DFF8AC901E4F99F80010F9B11D4B984710
S2140821B01D4A1E4B116818681960002389F80030FC
S2140821C023801B4B10601B88A8F80030194B1B781F
S2140821D03B70194B9847194B98472388013323803F
S2140821E0174B1868174B9847BDE8F8833B780BB130
S2140821F0218004E023801370134B984706E00F4BAA
S2140822009847238801332380BDE8F8836E63BDE8CA
S214082210F88300BF1F07072000100E40240707207A
S2140822209401072005090800AC010720A001072033
S214082230200707209C01072035090800D91E08003A
S214082240A401072029200800851F08002207072068
S2140822501E070720034B4FF4805208B11A637047D5
S2140822605A63704700120E4010B5104CC0B90329C7
S21408227016D1226813785288012B0AD10C4B4FF0DE
S214082280006218700B4B18800B4B5A630B4B984721
S21408229006E0022B04D1101C18BF0120084B9847F3
S2140822A020680321074A084B984710BD9801072065
S2140822B01F0707202407072000100E40851F080068
S2140822C05522080069220800A501080010B54C2010
S2140822D0034CA0473B20A0474E20A04710BD00BF98
S2140822E0791E080038B54FF00061264C1920A04723
S2140822F04FF000611A20A0474FF000611B20A0474E
S2140823004FF000611C20A0471F4C204B20469847E2
S21408231080250223236025606368042243F00103B6
S21408232063606368204623F00203636063680021E5
S21408233043F010036360164B984720460621154B5A
S214082340984720460E21144B984700210A462046F7
S214082350124B984700210A462046114B98472A46B2
S214082360204600210F4B98472046002109220E4B95
S214082370984700210B4620460A460C4DA8470123DD
S214082380236038BD750A080000800040150708005D
S214082390B1070800430708002D070800850708004E
S2140823A09B070800F1070800050808001B08080036
S2140823B038B5094C094B26209847094B20469847BC
S2140823C0084D20460021A84720460121A847204658
S2140823D00021054B984738BD00800C40410D080089
S2140823E0350808006F0808003B08080008B5104BB9
S2140823F09847104B9847104B9847104B9847104BE8
S2140824009847104B01221A70BFF35F8F62B60E4BC7
S21408241098470E4B4FF480521A630D4A4FF00061EE
S21408242051634FF480425A630A4B9847002008BD10
S214082430A108080061090800B1230800E522080081
S214082440CD2208008C0107202D03080000120E403C
S21408245000100E40851F080081F0004102E000BF12
S21408246083F0004330B54FEA41044FEA430594EA47
S214082470050F08BF90EA020F1FBF54EA000C55EA82
S214082480020C7FEA645C7FEA655C00F0E2804FEA53
S2140824905454D4EB5555B8BF6D420CDD2C4480EA35
S2140824A0020281EA030382EA000083EA010180EA65
S2140824B0020281EA0303362D88BF30BD11F0004FB3
S2140824C04FEA01314FF4801C4CEA113102D04042E9
S2140824D061EB410113F0004F4FEA03334CEA133324
S2140824E002D0524263EB430394EA050F00F0A7803C
S2140824F0A4F10104D5F1200E0DDB02FA0EFC22FA37
S21408250005F2801841F1000103FA0EF2801843FA2A
S21408251005F359410EE0A5F120050EF1200E012A1B
S21408252003FA0EFC28BF4CF0020C43FA05F3C01859
S21408253051EBE37101F0004507D54FF0000EDCF1D2
S214082540000C7EEB00006EEB0101B1F5801F1BD37B
S214082550B1F5001F0CD349085FEA30004FEA3C0C7F
S21408256004F101044FEA445212F5800F80F09A8075
S214082570BCF1004F08BF5FEA500C50F1000041EB79
S214082580045141EA050130BD5FEA4C0C404141EB7D
S214082590010111F4801FA4F10104E9D191F0000FA4
S2140825A004BF01460020B1FA81F308BF2033A3F127
S2140825B00B03B3F120020CDA0C3208DD02F1140C1E
S2140825C0C2F10C0201FA0CF021FA02F10CE002F159
S2140825D01402D8BFC2F1200C01FA02F120FA0CFC52
S2140825E0DCBF41EA0C019040E41AA2BF01EB04519B
S2140825F0294330BD6FEA04041F3C1CDA0C340EDC99
S21408260004F11404C4F1200220FA04F001FA02F3DB
S21408261040EA030021FA04F345EA030130BDC4F199
S2140826200C04C4F1200220FA02F001FA04F340EA8E
S2140826300300294630BD21FA04F0294630BD94F03F
S214082640000F83F4801306BF81F480110134013D26
S2140826504EE77FEA645C18BF7FEA655C29D094EA97
S214082660050F08BF90EA020F05D054EA000C04BF15
S2140826701946104630BD91EA030F1EBF0021002000
S21408268030BD5FEA545C05D14000494128BF41F09F
S214082690004130BD14F580043CBF01F5801130BD03
S2140826A001F0004545F0FE4141F470014FF000008E
S2140826B030BD7FEA645C1ABF194610467FEA655C3F
S2140826C01CBF0B46024650EA013406BF52EA0335E1
S2140826D091EA030F41F4002130BD00BF90F0000FCF
S2140826E004BF0021704730B54FF4806404F132040B
S2140826F04FF000054FF0000150E700BF90F0000FC4
S21408270004BF0021704730B54FF4806404F13204EA
S21408271010F0004548BF40424FF000013EE700BFBA
S21408272042004FEAE2014FEA31014FEA02701FBF4A
S21408273012F07F4393F07F4F81F06051704792F01C
S214082740000F14BF93F07F4F704730B54FF4607496
S21408275001F0004521F0004120E700BF50EA0102E1
S21408276008BF704730B54FF000050AE050EA01028E
S21408277008BF704730B511F0004502D5404261EBFE
S21408278041014FF4806404F132045FEA915C3FF43F
S214082790DCAE4FF003025FEADC0C18BF03325FEAD8
S2140827A0DC0C18BF033202EBDC02C2F1200300FA8D
S2140827B003FC20FA02F001FA03FE40EA0E0021FAB2
S2140827C002F11444C1E600BF4A0011D212F5001205
S2140827D011D20DD56FF47873B3EB62520ED44FEA6C
S2140827E0C12343F0004343EA505323FA02F07047EC
S2140827F04FF00000704750EA013002D14FF0FF302A
S21408280070474FF00000704770B50F4E0F4D761B9F
S214082810B61018BF002405D0013455F8043B984775
S214082820A642F9D10A4E0B4D00F092F8761BB61068
S21408283018BF002406D0013455F8043B9847A64232
S214082840F9D170BD70BD00BF5C2908005C2908007E
S214082850642908005C290800024B13B1024800F0FE
S21408286005B87047000000007928080001460020D7
S2140828700246034600F016B838B5084B084DED1A60
S214082880AC1018BFED1805D0013C55F8043D984724
S214082890002CF9D1BDE8384000F064B8702908006B
S2140828A0742908002DE9F047254C06462568884611
S2140828B0D5F8484192469946C4B360681F2817DC85
S2140828C0411C76B104EB8003C3F888A0D4F888517D
S2140828D0012282401543022EC4F88851C3F8089195
S2140828E01ED0831C6160002044F82380BDE8F08772
S2140828F0144B03B34FF4C870AFF300800446D0B14E
S214082900D5F84831002784E888003846C5F8484195
S2140829100121C4F88871C4F88C71002EE1D0D1E783
S214082920D4F88C311A43C4F88C21DAE705F5A67476
S214082930C5F84841C1E74FF0FF30BDE8F08700BF53
S2140829404C2908000000000043000000B0010720E2
S214082950F8B500BFF8BC08BC9E4670475928080062
S21408296019010800F8B500BFF8BC08BC9E467047B9
S208082970F500080059
S2140829741A4A4FF480631360C2F80032184B1A6A76
S214082984D10102D5174A1A6205E0174A1A629A6EE6
S214082994D207FCD5F6E79A6E1149D003FBD50A6B25
S2140829A422F0030242F001020A639A6E1207FCD56B
S2140829B40E490B4A91629A6E9007FCD5084A112173
S2140829C411639A6E1107FCD5054A122111639A6E93
S2140829D41207FCD5064A074B1A607047000A0E40D1
S2140829E400060E400908370109083700013F0D2084
S2140829F400BD010590010720114B124A9842124B5C
S214082A0401D8002118E01149884202D84FF4807191
S214082A1412E00F49884202D84FF400710CE00D49C1
S214082A24884202D84FF4407106E00B49884294BFA6
S214082A344FF480614FF4A06111601960704700BFBD
S214082A44BFEA2101000A0E40000C0E407FF0FA028D
S214082A54FF8FD003FFB3C4047F4A5D0579010800DD
S214082A646101080051010800550108000000000033
S214082A742C0107201401072018010720000107204D
S214082A8400000000EC0007201201000200000040CD
S214082A94EB0323240001000200010000090245009C
S214082AA401010080960904000000FFFFFF000904E6
S214082AB4000106FFFFFF0007058303400001070522
S214082AC404034000010705850240000007050602C6
S214082AD44000000705810100020107050201000203
S214082AE4016C617364616300000300000000000069
S214082AF400000000000000000403090401000000B0
S214082B0400093D00010000004407072001000000FA
S214082B1498A30720204E0000705507204807072072
S214082B24000000009C040720040507206C05072005
S214082B340000000000000000000000000000000084
S214082B440000000000000000000000000000000074
S214082B5400000000482908000000000000000000EB
S214082B640000000000000000000000000000000054
S214082B740000000000000000000000000000000044
S214082B840000000000000000000000000000000034
S214082B940000000000000000000000000000000024
S214082BA40000000000000000000000000000000014
S214082BB40000000000000000000000000000000004
S214082BC400000000000000000100000000000000F3
S214082BD40E33CDAB34126DE6ECDE05000B000000B8
S214082BE400000000000000000000000000000000D4
S214082BF400000000000000000000000000000000C4
S214082C0400000000000000000000000000000000B3
S214082C1400000000000000000000000000000000A3
S804081D29AD
