:020000040040BA
:100000002894002029284000252840002528400069
:100010002528400025284000252840000000000039
:100020000000000000000000000000002528400043
:10003000252840000000000025284000E92C400051
:10004000252840002528400025284000252840007C
:1000500025284000252840002528400000000000F9
:1000600025284000252840000000000081084000AD
:100070009508400000000000252840002528400089
:100080000000000000000000252840002528400056
:10009000252840002528400025284000252840002C
:1000A0002528400025284000000000000000000036
:1000B0000000000025284000252840002528400099
:1000C0002528400025284000990F400010B5054C18
:1000D000237833B9044B13B10448AFF300800123F4
:1000E000237010BDF004002000000000A831400083
:1000F000084B10B51BB108480849AFF30080084809
:10010000036803B910BD074B002BFBD0BDE81040BE
:10011000184700BF00000000A8314000F404002090
:10012000A83140000000000000207047014B187803
:10013000704700BF0C05002008B5074B9847C378EF
:10014000064A1370012B05D1054B9847003018BFA4
:10015000012008BD012008BD3D0340000C05002022
:10016000C52D400008B5034B1B78012B01D1024B74
:10017000984708BD0C050020FD2D400010B582B049
:1001800004460B460092062000212246014CA0475F
:1001900002B010BD711F400010B582B004460B467E
:1001A0000092022000212246014CA04702B010BD5F
:1001B000711F40000F4B1B681A6853881A4403785C
:1001C0001844904210D24378042B0FD08B4205D1B3
:1001D00070474378042B0BD08B420AD00378184425
:1001E0009042F6D3002070470020704700207047EF
:1001F000002070471005002008B5034B987800F0E8
:100200007F00024B984708BD2C060020851B40004C
:10021000164B1B780BB3164B1B681B681A7982426E
:100220001DD910B4134A13605C881C44A34218D231
:100230005A78042A09D19A78824206D1DA788A4219
:1002400003D10C4A136001200CE01A781344A34236
:10025000EED3084A1360002004E00020704700201D
:10026000704700205DF8044B704700BF1C0500205C
:1002700010050020200500202DE9F8430446002148
:10028000124B98478046E8B1114B1B685B6853F8E6
:100290002490D9F80C309847014620460B4B9847DC
:1002A000804678B10B4B1C6805260B4D0B4F204642
:1002B0003146A847044610B18078B847F7E7D9F827
:1002C000043098474046BDE8F88300BF1102400063
:1002D0001005002020050020B5014000ED1C400065
:1002E0002DE9F0418046104B98470346C8B10F4BAB
:1002F0001C6805260E4D0F4F20463146A847044680
:1003000038B18078E178A288B84703460028F3D155
:1003100007E0094B1B685B6853F828301B68984757
:1003200003461846BDE8F081110240002005002078
:10033000B5014000E51B400010050020014B186886
:10034000704700BF2005002008B5014B984708BD45
:10035000F51A400070B50D4B1B7883B10C4B1B6830
:100360001B681B795BB100240A4E094D2046B0473B
:100370000134E4B22B681B681B79A342F6D8002332
:10038000024A1370044A138070BD00BF1C05002090
:1003900010050020790240001A05002038B50C4BEA
:1003A0001B789BB10B4B1B681A68127972B1002441
:1003B000084D5B6853F824301B6903B1984701343A
:1003C000E4B22B681A681279A242F2D838BD00BF95
:1003D0001C05002010050020F8B5814B00229A81F1
:1003E0001A615A611B7813F0800F00F0F0817C4A8B
:1003F000D288002A40F0E781E1E113F01F0340F0CA
:1004000082807749497806290BD0082973D00029C2
:1004100079D1022A40F0838172480221724B9847B9
:10042000DCE16F4B5A88130A013B0E2B00F26E8100
:10043000DFE813F00F00160034006C016C016C0152
:100440006C016C016C016C016C016C016C016C0144
:100450002A00664B1B6818461978634B984741E0A1
:10046000D2B2624B1B685B7C934240F258815F4B77
:100470005B6853F83230184659885B4B9847584BA5
:100480009B6802225A702DE0584B9B68002B00F0AD
:10049000468118465988544B984723E0D2B2032A24
:1004A00000F23D81DFE812F007000C009701040024
:1004B00005224F4B06E04F4804214B4B984711E073
:1004C0004D4B03221C464D4813F8011B20F8021F18
:1004D000191BC9B29142F7D35200911C47480170D1
:1004E000414B98473E4BDA889B89934240F2768194
:1004F0003B4B9A8172E1012A40F011814048012171
:10050000394B98476AE1012B27D1354949780A29A7
:1005100023D1012A40F00381394B1B78002B00F0D6
:10052000FE802F4B1C79374B1D682B681B79A3422B
:1005300040F2F58020460021334B9847002800F018
:10054000EE806B6853F82430DB6898472F4B1870A7
:1005500018460121244B984740E1022B40F0DF80F0
:100560001F4B5B78002B40F0D380022A40F0D780ED
:100570001B4B1879264B9847264B188018460221AA
:10058000194B98472AE113F01F037FD1144A527880
:10059000013A082A7AD8DFE812F012007900BD008B
:1005A0007900090079007900790041000C4BDB8863
:1005B000002B40F0B480184A094B1A610EE1084B39
:1005C000DB88002B40F0AB80054B5B88012B40F0B3
:1005D000A680044A138823F002031380FEE000BFC4
:1005E0002C0600201A050020D91B40003C000020EA
:1005F00074314000300000201C000020200000204A
:100600001C050020100500201102400018050020E4
:10061000551D400014050020F9014000714BDB8896
:10062000002B7CD1704B9847002878D06D4B9A787E
:100630006E4B1B685B7C9A4271DC6D4B9847694B33
:100640009B786C4A1370002B00F0C88003F10053B4
:10065000013B664A526802EBC3006749086052F8E2
:1006600033301B79002B00F0B98000242646634DFF
:100670000F4620463146A847002850D00134E4B246
:100680003B681B681B79A342F3D8A7E0012B19D163
:10069000544A52780B2A15D1524BDB88002B3ED19D
:1006A000544B1B78002B3AD04E4B1C795D8820466A
:1006B000534B9847002832D02046E9B24F4B984719
:1006C00003462AE0022B2AD1464B5B78012B02D04D
:1006D000032B0CD020E0434BDB8803BB414B5B88F2
:1006E000EBB9404B1879474B9847034615E03D4B13
:1006F000DB88A3B93B4B5B888BB93A4C2079424BE2
:1007000098472079414B9847034606E0002304E0D0
:10071000002302E0002300E00023002B5FD1314BD7
:100720001B7803F01F03012B1ED1324B1B78DBB16A
:100730002C4B1C79304B1D682B681B79A34213D9B5
:1007400020460021324B984770B16B6853F8245013
:10075000EB689847014620462D4B984720B1AB687F
:100760009847034600283AD11E4B1B7803F01F031D
:10077000022B26D11F4B1B78EBB11F4B1A68136855
:100780001B79D3B10024224E1B4F536853F82450D9
:10079000EB68984701462046B0470346F8B1AB687E
:1007A00098470346D8B90134E4B23A681168097928
:1007B000A142EAD813E0002311E000230FE0002358
:1007C0000DE000230BE013F0600FA8D115E613F045
:1007D000600FA4D1D7E606220E4B73E6012318461C
:1007E000F8BD00BF2C060020BD1B40003C000020CF
:1007F000550340001C05002010050020E1024000C8
:1008000079024000811E4000F1204000951D40000B
:1008100011024000140000202DE9F843814688466B
:10082000124B984705464846114B9847054013D050
:10083000104C04F160062368434508D161682942E1
:1008400005D0E36840469847636825EA0305B4424B
:1008500002D01034002DEED1074B1B6823B1074B9B
:100860001B680BB148469847BDE8F88399244000BF
:100870009D24400028050020440600202405002077
:1008800008B502480B21024B984708BD000E0E40E8
:100890001908400008B502480C21024B984708BDD2
:1008A00000100E401908400008B51520014B98476C
:1008B00008BD00BFCD264000436823F47023436089
:1008C0004368090401F470210B434360704700BF83
:1008D000436823F07F434360436843EA016141601A
:1008E000704700BF30B443F6992401E0013C11D0B9
:1008F000056915F0020FF9D0446814F0020F06D014
:10090000120402F4702211430BB141F08071C160F6
:10091000002000E0012030BC704700BF32B100EB86
:100920008100036B43F001030363704700EB810018
:10093000036B23F001030363704700BF32B100EB88
:100940008100036B43F002030363704700EB8100F7
:10095000036B23F002030363704700BF042A0AD12C
:1009600000EB8100036B23F008030363036B43F088
:1009700004030363704752B900EB8100036B23F05B
:1009800008030363036B23F0040303637047082A1F
:1009900005D100EB8100036B43F00803036370474C
:1009A00000EB81010B6B23F0F0030B630B6B1A431D
:1009B0000A63704700EB81010B6B23F47F430B63E9
:1009C0000B6B43EA02220A63704700BF10B400EBCE
:1009D0008101086B80B208630C6B44EA036343EA4D
:1009E00002420A635DF8044B704700BF034A0023CC
:1009F000136153619381024A137070472C060020E3
:100A00001806002082B005220E4B1A700E4A136B96
:100A10000093009B43F04F030093009B43F020039F
:100A20000093009B136300230193019B132B06D8B3
:100A300000BF019B01330193019B132BF8D902B036
:100A4000704700BF180600200040034082B0032218
:100A50000E4B1A700E4A136B0093009B43F04F032A
:100A60000093009B43F010030093009B136300234B
:100A70000193019B132B06D800BF019B0133019307
:100A8000019B132BF8D902B0704700BF1806002055
:100A90000040034008B5024B1B6903B1984708BDED
:100AA0002C06002030B58BB0754B1B78032B1DD165
:100AB000744A136B0093009B43F04F030093009B19
:100AC00023F001030093009B136300230193019B18
:100AD000132B06D800BF019B01330193019B132BFD
:100AE000F8D9694B9847694B9847C6E0684B1A8814
:100AF000684B9C89A41AA4B2002C33D166490B8898
:100B000013449BB20B80634AD2889A4202D0634B53
:100B10001B78EBB104225A4B1A705A4A136B02939A
:100B2000029B43F04F030293029B23F001030293C5
:100B3000029B136300230393039B132B00F29D80FE
:100B400000BF039B01330393039B132BF8D994E05D
:100B5000504B5B696BB1984758B100224C4B1A80DF
:100B60004C4B9C893F2C04D900224C4B1A704024DA
:100B700002E00122494B1A70464B9968444B1B888E
:100B8000EFF31080B0FA80F0400972B6BFF35F8FC8
:100B90000025434A15703B4A126B12F0020F01D137
:100BA00024BB2DE028B101223D4B1A70BFF35F8FAB
:100BB00062B60422324B1A70324A136B0493049BC0
:100BC00043F04F030493049B23F001030493049B1D
:100BD000136300230593059B132B4ED800BF059B81
:100BE00001330593059B132BF8D946E019440A46B7
:100BF000244D12F8013B2B65531ADBB2A342F8D304
:100C0000234A13881C4414801E4A136B0693069BC8
:100C100043F04F030693069B43F010030693069B95
:100C2000136300230793079B132B06D800BF079B72
:100C300001330793079B132BF8D9124A136B0893C0
:100C4000089B43F04F030893089B23F0010308938C
:100C5000089B136300230993099B132B06D800BF3D
:100C6000099B01330993099B132BF8D928B1012261
:100C70000B4B1A70BFF35F8F62B60BB030BD00BF75
:100C80001806002000400340950A4000ED0940008E
:100C9000160600202C0600209A050020980500204A
:100CA000A500002038B50346447C14F0100F15D081
:100CB000447C6FF30414447405687DB102F10C04A4
:100CC000074850F8240010F4806F18BF42F08002EB
:100CD000012914BF002001209968A84738BD00BF32
:100CE0000040034030B484B0421E830003F140232F
:100CF00003F54033196B1C6B11F0020F0CD014F08C
:100D0000400F13D102EB8201324C04EB81014C7C89
:100D10006FF383044C7409E002EB82012D4C04EB69
:100D200081014C7C012565F383044C7402EB820144
:100D3000284C04EB8101497C11F00C0F25D1196B73
:100D40000091009941F04F010091009921F00201BA
:100D500000910099196300230193019B132B06D87E
:100D600000BF019B01330193019B132BF8D968B39A
:100D700003282BD002EB8202164B03EB82035A7C32
:100D8000012161F383025A7420E0196B02910299E8
:100D900041F04F010291029921F040010291029924
:100DA000196300230393039B132B06D800BF039BF7
:100DB00001330393039B132BF8D902EB8202054BFB
:100DC00003EB8202537C6FF38303537404B030BC93
:100DD000704700BF9C0500202DE9F04182B0884695
:100DE0008446461E06EB8602694B03EB82035B7C5E
:100DF000C3F3810320B103280CBF0122022200E0CB
:100E000001229A4240F3B98006EB8603604A02EB66
:100E10008303DA689B689A4209D306EB86015C4C2F
:100E200004EB8101497C11F0400F00F0A88006EB33
:100E30008605574901EB85056C681444991A2B8A7D
:100E4000C3F30907B9423ABF0F464FF0010E4FF006
:100E5000000E06EB86034E4901EB83033A44DA6049
:100E6000072F2BD904F108033D46820002F14022EE
:100E700002F5403213F8081C116513F8071C1165C0
:100E800013F8061C116513F8051C116513F8041CF2
:100E9000116513F8031C116513F8021C116513F892
:100EA000011C1165083D0833072DE3D8A7F108039D
:100EB00023F0070308331C4407F007074FB1E31979
:100EC000344914F8015B0CF1140241F822509C42A1
:100ED000F7D106EB86032E4A02EB83035A7CC2F35A
:100EE0008101013161F383025A74B8F1000F1CD003
:100EF000800000F1402000F54030036B0093009B20
:100F000043F04F030093009B43F010030093009BBA
:100F1000036300230193019B132B06D800BF019BA1
:100F200001330193019B132BF8D9BEF1000F08D0B8
:100F300006EB8603164A02EB83035A7C6FF3861294
:100F40005A7406EB8603124A02EB8303DA689B6845
:100F50009A4216D306EB86030D4A02EB83035B7CB1
:100F600013F0400F0FD106EB860602EB8606737C6A
:100F700043F080037374002006E0012004E00020A9
:100F800002E0012000E0012002B0BDE8F08100BFD6
:100F90009C050020004003402DE9F04FB1B0954B77
:100FA000984760B9944BDB6913F4807F07D172B620
:100FB000BFF35F8F0022914B1A7000F052BD2220C8
:100FC0008F4B98478C4B9B6913F4006F0CD08A4B66
:100FD000DB6913F4006F07D04FF40062864B1A628E
:100FE000884B984700F03DBD834BDB6913F0010F40
:100FF00000F0EF81804B1B6B13F0040F00F0C080FA
:10100000814B1B781BB1814B9847814B98477A4B9A
:101010001B6BC3F30A43082B1CD0774A136B029354
:10102000029B43F04F030293029B23F004030293BD
:10103000029B136300230393039B132B06D800BF6B
:10104000039B01330393039B132BF8D9714B9847F0
:1010500000F007BD704B03F1080067490A6D03F803
:10106000012F8342FAD16D4B9847E0B9624A136B66
:101070000493049B43F04F030493049B23F0040365
:101080000493049B136300230593059B132B06D83D
:1010900000BF059B01330593059B132BF8D95D4BCE
:1010A000984700F0DEBC5E4B93F90030002B3DDA30
:1010B000514A136B0693069B43F04F030693069B1E
:1010C00043F080030693069B136300230793079B5B
:1010D000132B06D800BF079B01330793079B132BE5
:1010E000F8D9454A136B0893089B43F04F030893C4
:1010F000089B23F004030893089B136300230993C0
:10110000099B132B06D800BF099B01330993099B48
:10111000132BF8D90023434A1380434A1380022239
:10112000394B1A70414B984700F09BBC324A136B05
:101130000A930A9B43F04F030A930A9B23F004038C
:101140000A930A9B136300230B930B9B132B06D864
:1011500000BF0B9B01330B930B9B132BF8D9304B28
:10116000DB881BB9324B984700F07BBC00232D4A2B
:1011700013802D4A13800122234B1A7000F071BC9A
:101180001D4B1B6B13F0010F03D0284B984700F049
:1011900068BC194B1B6B13F0020F00F015811A4B42
:1011A0001B78012B46D0022B01D0042B02D1174B08
:1011B000984701E0174B98470F4A136B0C930C9B11
:1011C00043F04F030C930C9B23F002030C930C9BF6
:1011D000136300230D930D9B132B06D800BF0D9BAB
:1011E00001330D930D9B132BF8D9094B984700F051
:1011F00038BC00BFA927400000400340A5000020E4
:10120000CD2640009D03400018060020950A4000AE
:10121000ED094000050A40002B060020D9034000DC
:101220002C0600209A05002016060020A50A400082
:101230004D0A4000914B196BC1F30A41904B9B89B9
:10124000904A15886A189342AEBF89B25B1B99B267
:101250008B4B98682844A9B10246884C236D02F84C
:10126000013B131ADBB28B42F8D30D44ADB2854B70
:101270001D80402906D1824BDA88834B1B882B4482
:101280009A423EDC7E4B9D815B69F3B19847E0B9A1
:101290007E4B9847794A136B0E930E9B43F04F0396
:1012A0000E930E9B23F002030E930E9B13630023F9
:1012B0000F930F9B132B00F2D48300BF0F9B0133BE
:1012C0000F930F9B132BF8D9CBE36C4A136B10933E
:1012D000109B43F04F031093109B23F002031093D5
:1012E000109B136300231193119B132B06D800BF8F
:1012F000119B01331193119B132BF8D9644B984721
:10130000AFE35F4B9B89AB4243D15D4B5B69CBB98C
:101310005E4B9847594A136B1293129B43F04F034D
:101320001293129B23F002031293129B1363002368
:10133000139303E000BF139B01331393139B132BF1
:10134000F8D98EE39847E0B9504B98474B4A136B56
:101350001493149B43F04F031493149B23F0020344
:101360001493149B136300231593159B132B00F206
:10137000788300BF159B01331593159B132BF8D968
:101380006FE341493F4A10880B8803440B800023D8
:1013900013803A4A136B1693169B43F04F03169330
:1013A000169B23F002031693169B136300231793D7
:1013B000179B132B00F2558300BF179B0133179324
:1013C000179B132BF8D94CE32C4B1B6B13F0080F16
:1013D00006D1304F39460123DFF8A0E018461AE065
:1013E000264A136B0093009B43F04F030093009B2E
:1013F00023F008030093009B136300230193019BD8
:10140000132B00F22E8300BF019B01330193019B3C
:10141000132BF8D925E3DEB2DEF818201D4600FABA
:1014200003F4144200F0218203F1FF3889469A0048
:1014300002F1402202F54032D2F830C01CF0420FD7
:1014400053D008EB8803134A02EB83039A68D968E8
:10145000B3F810A0CAF3090A5B68AD0005F1402596
:1014600005F540352F6BC7F30A47002F00F0EE82D9
:10147000501AB84240F2DE82CDE200BF0040034085
:101480002C060020160600209A050020050A4000C0
:101490004D0A40009C0500204FF0010B19440B46FB
:1014A0002A6D03F8012B5A1A9042F9D83046A54B01
:1014B0009847BBF1000F02D1BA4540F2D2822B6BA4
:1014C00013F0200F40F0CD829F4B5C619F4B4FEAA1
:1014D000880202EB080103EB8101CB688B60484670
:1014E000002132469A4B9847BBE2D2F830C01CF03C
:1014F000010F00F0908108EB8802944B03EB82020D
:10150000537CC3F38101033161F383035374537C30
:1015100013F0200F78D013F00C0F36D0AA0002F190
:10152000402202F54032136B1893189B43F04F038F
:101530001893189B43F010031893189B1363002310
:101540001993199B132B06D800BF199B01331993CC
:10155000199B132BF8D9136B1A931A9B43F04F0363
:101560001A931A9B23F001031A931A9B1363002307
:101570001B931B9B132B00F2748200BF1B9B013338
:101580001B931B9B132BF8D96BE2AA0002F140229C
:1015900002F54032136B1C931C9B43F04F031C93CA
:1015A0001C9B23F001031C931C9B136300231D93BE
:1015B0001D9B132B06D800BF1D9B01331D931D9B44
:1015C000132BF8D9136B1E931E9B43F04F031E93EE
:1015D0001E9B43F020031E931E9B136300231F9347
:1015E0001F9B132B06D800BF1F9B01331F931F9B0C
:1015F000132BF8D908EB8808544B03EB88035A7C6B
:101600006FF345125A742CE213F0800F0FD008EBE1
:1016100088024E4B03EB8203597C6FF3C711597458
:10162000DA689A60484600213246494B984708EBF1
:101630008803464A02EB8303DA689B689A4238D3F0
:1016400008EB8803414A02EB83035B7C13F04C0FE9
:101650002FD1EFF3108372B6BFF35F8F00213D4AA5
:101660001170394A54612BB901223A4B1A70BFF3F9
:101670005F8F62B6AB0003F1402303F540331A6B72
:101680002092209A42F04F022092209A22F00102EA
:101690002092209A1A6300232193219B132B00F29E
:1016A000E08100BF219B01332193219B132BF8D9AB
:1016B000D7E1002E00F08C80032E00F0898008EB2B
:1016C0008802224B03EB82035B7C13F00C0F45D0A6
:1016D000AA0002F1402202F54032136B2293229BB2
:1016E00043F04F032293229B43F010032293229B4B
:1016F000136300232393239B132B06D800BF239B44
:1017000001332393239B132BF8D9136B2493249B2E
:1017100043F04F032493249B23F001032493249B41
:10172000136300232593259B132B06D800BF259B0D
:1017300001332593259B132BF8D930460021064B06
:1017400098478EE1E50C4000004003409C050020D6
:10175000A50C4000A5000020D90D40003046012115
:10176000694B984790B91423684A03FB082898F8F6
:1017700011206FF3C71288F81120D8F80C30C8F880
:101780000830484600213246614B9847AB0003F1D0
:10179000402303F540331A6B2692269A42F04F02FB
:1017A0002692269A22F001022692269A1A63002394
:1017B0002793279B132B06D800BF279B0133279322
:1017C000279B132BF8D9304600214F4B984748E10F
:1017D000304601214C4B9847AB0003F1402303F501
:1017E00040331A6B2892289A42F04F022892289A86
:1017F00022F001022892289A1A6300232993299B38
:10180000132B00F22E8100BF299B01332993299BC2
:10181000132BF8D925E1126B12F0080F25D09B008D
:1018200003F1402303F540331A6B2A922A9A42F0BF
:101830004F022A922A9A22F008022A922A9A1A63BE
:1018400000222B922B9A132A06D800BF2B9A013222
:101850002B922B9A132AF8D91A6B02F4E062B2F594
:10186000807F00F0FE801B6BFBE001331431072BFF
:101870007FF4D1ADEEE0274BDB6913F4005F13D1A9
:10188000244B9B6913F4007F04D0224BDB6913F4D3
:10189000007F09D11F4B9B6913F4806F14D01D4B3F
:1018A000DB6913F4806F0FD01A4B4FF418521A6291
:1018B0005A610121184A11704FF480721A621A613C
:1018C0004FF400621A61CCE0124B9B6913F4807FE5
:1018D00026D0104BDB6913F4807F21D00D4B4FF4E1
:1018E00080721A625A614FF400521A614FF400720A
:1018F0001A614FF480621A612220084B9847002237
:10190000054B1A70ADE000BFD90D40009C050020CA
:10191000A50C400000400340140600202127400091
:10192000514BDB6913F4805F00F09B804FF48052D1
:101930004D4B1A62002401264C4D0134E4B2384666
:1019400031462246A8471437062CF6D1484B984713
:10195000454B5A6822F001025A605A6822F002028E
:101960005A609A6842F480729A609A6822F07F0204
:101970009A601A6B2C922C9A42F04F022C922C9A5D
:1019800022F4074222F080022C922C9A42F4004268
:101990002C922C9A1A6300232D932D9B132B06D87F
:1019A00000BF2D9B01332D932D9B132BF8D92E4A6D
:1019B000136B2E932E9B43F04F032E932E9B43F4D9
:1019C00000432E932E9B136300232F932F9B132BE7
:1019D00006D800BF2F9B01332F932F9B132BF8D9D1
:1019E000EFF3108372B6BFF35F8F0021214A1170AD
:1019F00001211D4A116123B91E4B1970BFF35F8F7E
:101A000062B61D4B9847184B4FF480721A614FF421
:101A100000621A6125E008EB8802184800EB820298
:101A20007818D06038464FF0000B37E53046144B3D
:101A3000984744E508EB880EDFF840C00CEB8E0EAB
:101A4000CEF80C2000287FF427ADEFE730460C4B92
:101A5000984731E5044B9B6913F4005F7FF40BAFAB
:101A60000EE731B0BDE8F08F00400340A50C400008
:101A700055034000A5000020ED0940009C05002012
:101A8000E50C400010B5EFF3108472B6BFF35F8F22
:101A90000022144B1A700122134B1A702220134B90
:101AA0009847134B5A6F22F480725A675A6F42F468
:101AB00000725A674FF480721A614FF400521A6133
:101AC0004FF400721A614FF480621A614FF40062A1
:101AD0001A612CB90122034B1A70BFF35F8F62B6F3
:101AE00010BD00BFA500002014060020CD26400038
:101AF0000040034038B5EFF3108572B6BFF35F8F37
:101B00000024184B1C702220174B9847174B9847FE
:101B1000174B502283F8222304225A60224615488C
:101B20009300991800EB8101497C134400EB830377
:101B300001F083016FF3C71159740132062AEFD106
:101B40004FF480200C4B984700220C4B1A700C4B22
:101B500098472DB90122034B1A70BFF35F8F62B60D
:101B600038BD00BFA5000020CD2640008D224000DA
:101B700000E100E09C0500209527400014060020AD
:101B8000851A40000C4B5A6822F001025A609A688C
:101B900022F480729A6070B19A6800F07F0022F09F
:101BA0007F02104398609A6842F480729A605A6883
:101BB00042F001025A60704700400340054B5B68E9
:101BC00013F0010F1DBF034B986800F07F00002049
:101BD000704700BF00400340014B986099817047F7
:101BE0002C060020F0B583B000F00F04062C6CD852
:101BF000A30003F1402303F540331D6B15F4004FA0
:101C000065D101F00305012D03D1002C61D0032C17
:101C100061D0251FEDB2022D34BF4FF40075402571
:101C200095425ADB661E06EB86072E4D05EB8705AF
:101C300005F11007B5F810E062F3090EA5F810E001
:101C40006A7C02F07F026FF345126A74C00903D008
:101C50007A786FF383027A70234A966A012505FA2F
:101C600004F444EA06059562956A25EA0404946240
:101C70001A6B0092009A42F04F020092009A22F4EE
:101C8000074222F08002009238B141F004021202B1
:101C900002F4E06242F4004204E00A0202F4E0626C
:101CA00042F4004200990A430092009A1A6300230A
:101CB0000193019B132B12D800BF019B01330193A9
:101CC000019B132BF8D901200AE0002008E0002036
:101CD00006E0002004E0002002E0002000E00120F7
:101CE00003B0F0BD9C0500200040034000F00F024F
:101CF000062A2AD800B583B0930003F1402303F5E8
:101D00004033196B0091009941F04F010091009907
:101D100021F4004100910099196300230193019B74
:101D2000132B06D800BF019B01330193019B132B9A
:101D3000F8D9501E00EB8000044B03EB800001211A
:101D4000034B984703B05DF804FB70479C050020E7
:101D5000A50C400000F00F00062815D8431E03EB29
:101D600083030A4A02EB83035B7C13F0200F09D143
:101D70000C30074B53F8203013F0280F14BF01200C
:101D80000020704701207047002070479C0500200C
:101D90000040034000F00F01062961D810B483B061
:101DA000EFF31082B2FA82F2520972B6BFF35F8F7C
:101DB0000024304B1C7010F0800F28D04B1E01F116
:101DC0000C002D4C54F8200010F0100F09D103EB3B
:101DD00083002A4C04EB8000407CC0F38100012882
:101DE00015DD03EB8300254B03EB8003587C40F0AB
:101DF0002000587401238B401F490B61002A31D009
:101E000001201C4B1870BFF35F8F62B62DE08B0072
:101E100003F1402303F54033186B0090009840F025
:101E20004F000090009840F0200000900098186348
:101E300000230193019B132B06D800BF019B0133A4
:101E40000193019B132BF8D901238B400A490B61A5
:101E500052B10120074B1870BFF35F8F62B604E0E8
:101E600000207047012000E0012003B05DF8044B22
:101E7000704700BFA5000020004003409C050020E3
:101E800000F00F00062867D8411E01EB8102364B97
:101E900003EB82035A7C6FF345125A74820002F1FD
:101EA000402202F54032136B13F0200F56D030B5AC
:101EB00085B0136B0093009B43F04F030093009B8E
:101EC00023F020030093009B136300230193019BE5
:101ED000132B06D800BF019B01330193019B132BE9
:101EE000F8D9224B9D6A012404FA00F040EA050467
:101EF0009C629C6A24EA00009862136B0293029B26
:101F000043F04F030293029B23F008030293029BCA
:101F1000136300230393039B132B06D800BF039B7B
:101F200001330393039B132BF8D901EB81030E4A72
:101F300002EB83035B7C13F0100F11D08800431871
:101F400002EB83035C7C6FF304145C74014452F86D
:101F500021309847012004E000207047012070479D
:101F6000012005B030BD00BF9C05002000400340AB
:101F7000F8B500F00F05062D00F2A480AC0004F1C6
:101F8000402404F54034266B16F4004F00F09C808A
:101F90006E1E06EB860E514F07EB8E077F7C17F007
:101FA000200F40F09380276B17F0200F40F09080B7
:101FB0004FF0807E4A4FC7F830E0EFF31087B7FA52
:101FC00087F77F0972B6BFF35F8F4FF0000CDFF821
:101FD00014E18EF800C006EB860EDFF800C10CEBB2
:101FE0008E0E9EF811E01EF0100F09D0002F71D058
:101FF00001223C4B1A70BFF35F8F62B60020F8BD20
:1020000006EB860EDFF8D4C00CEB8E0E9EF811C0E6
:102010004CF0100C8EF811C03FB14FF0010E314F53
:1020200087F800E0BFF35F8F62B6DFF8B0C006EB61
:102030008607BF000CEB070ECEF804200EF1080255
:10204000CEF808304FF0000EC2F804E0069A4CF8C3
:10205000072019B9B3FA83F35B0900E001231F4994
:10206000B700BA1901EB8202527C63F386123E4438
:1020700001EB860613466FF3C7137374EFF31086F4
:1020800072B6BFF35F8F0022164B1A700123AB406C
:10209000154A136110F0800F0CD0236B13F0110F51
:1020A00008D128460121114B984718B12846002134
:1020B0000E4B984786B901200A4B1870BFF35F8F0B
:1020C00062B6F8BD0020F8BD0020F8BD0020F8BDC4
:1020D0000020F8BD0020F8BD0120F8BD9C050020BF
:1020E000000E0E40A500002000400340D90D400026
:1020F000F0B589B000F00F04062C00F2BA80EFF3BF
:10210000108372B6BFF35F8F00215B4A1170012507
:10211000A5405A4A55612BB90122574B1A70BFF39B
:102120005F8F62B610F0800F0AD1A60006F140263C
:1021300006F54036336B13F0420F40F0818086E0A5
:10214000A20002F1402202F54032136B13F0100F8F
:1021500053D0002C39D0032C37D0136B0093009B45
:1021600043F04F030093009B23F010030093009B68
:10217000136300230193019B132B06D800BF019B1F
:1021800001330193019B132BF8D9136B13F0100F3C
:10219000FBD1136B0293029B43F04F030293029B0C
:1021A00043F010030293029B136300230393039BEA
:1021B000132B06D800BF039B01330393039B132B00
:1021C000F8D9136B13F0100FFBD0136B0493049B1F
:1021D00043F04F030493049B23F010030493049BE8
:1021E000136300230593059B132B06D800BF059BA3
:1021F00001330593059B132BF8D9136B0693069BAC
:1022000043F04F030693069B23F001030693069BBE
:10221000136300230793079B132B06D800BF079B6C
:1022200001330793079B132BF8D9631E03EB83023B
:10223000134B03EB82035A7C6FF383025A7406E05C
:10224000104F2046B847336B13F0420FF9D10B4BB8
:102250009A6A2A439A629A6A22EA05059D62601E7A
:1022600000EB8000064B03EB800001212246064B69
:10227000984709B0F0BD00BFA50000200040034012
:102280009C050020E50C4000A50C400010B5002086
:102290003E210A4B98470A4CA0470028FCD0094B26
:1022A0009847094A094BDA62094CA0470028FCD03C
:1022B0000020084B9847084B984710BD2D2640003A
:1022C00081264000B1264000013F020000040E407C
:1022D000BD264000752740008927400010B50E48F4
:1022E0000E4B984700203E210D4B98470D4CA047C0
:1022F0000028FCD00C4B98470C4A0D4B9A620D4CB1
:10230000A0470028FCD000200B4B98470B4B984768
:102310000B48024B984710BD000E2707ED294000DF
:102320002D2640008126400091264000013F0520D7
:1023300000040E40A1264000C5254000D9284000D9
:1023400000D8B80501230360704700BF41B143685E
:1023500043F480734360436843F01003436007E035
:10236000436843F480734360436823F01003436081
:1023700000207047006B7047016270474368012975
:1023800006D823F4981343EA0141416000207047C6
:1023900001207047012904D801238B4003610020EC
:1023A00070470120704700BF4264B1F1C05F2FD079
:1023B00007D8B1F1006F14D0B1F1805F1ED039B9E8
:1023C0007047B1F1205F37D004D8B1F1005F29D058
:1023D00042607047B1F1405F2ED0B1F1605F2BD009
:1023E000F6E710B4016F046FD34321401940016731
:1023F000416F446F21400B4043671AE0036F134362
:102400000367436F416F0B4023EA02034367DFE733
:10241000036F016F0B4023EA02030367436F13430B
:102420004367D5E7036F13430367436F1343436762
:10243000CEE742605DF8044B704700BF416412F084
:10244000010F14BF4166016612F00A0F14BF01624A
:10245000416212F0020F02D0C0F8801004E012F0C6
:10246000080F18BFC0F8841041610160704700BFB9
:1024700010B44164019C0CB1416600E001660BB1EF
:10248000016500E041650AB1016300E0416301615B
:1024900001605DF8044B7047C06C7047806C7047FA
:1024A00070B582B00D46430903F5001303F20773BC
:1024B0005C0201F0F043B3F1005F47D009D8B3F1FB
:1024C000805F21D0B3F1C05F2FD0B3F1006F6FD127
:1024D00009E0B3F1405F55D0B3F1605F52D0B3F182
:1024E000205F44D064E000F01F00012686402046B3
:1024F0004FF000613246304B984715F0010F14BF82
:1025000066662666012054E000F01F000126864022
:1025100020464FF080513246274B984715F0010F67
:1025200014BF66662666012043E000F01F00012606
:10253000864020464FF0C05132461F4B984715F059
:10254000010F14BF66662666012032E000F01F000E
:102550000126864020464FF000513246164B9847E0
:1025600015F0010F14BF66662666012021E000F019
:102570001F030126204606FA03F12A460F4B98470F
:10258000304616E000F01F03012605F0605205EA10
:1025900006010091204606FA03F1B2F1605F14BF14
:1025A00000220122C5F38003054CA047304600E01D
:1025B000002002B070BD00BFA92340003D244000B0
:1025C00071244000184A136B23F070031843106302
:1025D000936E13F0080F03D009E0013B03D11EE016
:1025E0004FF4006310498A6E12F0080FF5D00E4ABE
:1025F000136B23F0030343F002031363906E10F098
:10260000080004D000207047013B03D109E04FF4DB
:10261000006305498A6E12F0080FF5D0704701205B
:1026200070470120704700BF00040E4038B11149C7
:102630000B6A114A1A40114B13430B6270470D4A43
:10264000136A23F45C1323F0030343F45C1343F095
:102650000103090289B20B431362936E13F0010F59
:10266000FBD0044A136A43F09B7343F48033136234
:10267000704700BF00040E40FCFFC8FE0200370197
:10268000024B986E00F48030704700BF00040E408B
:102690004FF00052014B9A62704700BF00040E4099
:1026A000024B986E00F00200704700BF00040E401D
:1026B0000022014BDA62704700040E40024B986E14
:1026C00000F00400704700BF00040E4022281ED80E
:1026D0001F280CD8114B9A69012383401A4093425A
:1026E00017D0012383400D4A1361002070470B4B24
:1026F000D3F808212038012383401A4093420AD09E
:1027000001238340054AC2F80031002070470120B0
:102710007047002070470020704700BF00040E4043
:1027200022281ED81F280CD8114B9A6901238340F8
:102730001A40934217D1012383400D4A5361002070
:1027400070470B4BD3F808212038012383401A40EF
:1027500093420AD101238340054AC2F80431002084
:10276000704701207047002070470020704700BF6D
:1027700000040E40000200F4706040F00100014BC4
:102780009863704700040E408022014B1A60704726
:1027900000040E40034A136FC0F312000343136793
:1027A000704700BF00040E40024B187880F0010013
:1027B000704700BF190600200B4B1B687BB9EFF375
:1027C00010834BB972B6BFF35F8F0022074B1A70AC
:1027D0000122074B1A7002E00022054B1A70024AD0
:1027E00013680133136070471C060020A500002009
:1027F00020060020084B1A68013A1A601B6853B97A
:10280000064B1B7813F0FF0F05D00122044B1A7002
:10281000BFF35F8F62B670471C06002020060020C1
:10282000A5000020FEE700BF08B5204B204A9A42D1
:1028300013D9204B1D4A9A421FD21146043203334A
:102840009B1A23F003030433194A134452F8040B70
:1028500041F8040B9A42F9D10FE0144B144A9A4202
:102860000BD2144B114A9A1A134881182AB151F805
:10287000042943F8042D8142F9D100BF0F4B104ABF
:102880009A420BD2131D0F4AD21A22F003021A44A5
:10289000043B002143F8041B9342FBD10A4B0B4A33
:1028A0009A600B4B98470B4B9847FEE700000020BF
:1028B000A8314000F0040020A4314000246400202E
:1028C000F00400202764002000ED00E0000040003C
:1028D00035304000D12F40003D4B1B6B03F003030C
:1028E000032B5DD8DFE803F0020E2B2B394B5B691D
:1028F00013F0800F14BF4FF400424FF4FA42364BEE
:102900001A604DE0324B1B6A13F0807F03D0334ACC
:10291000314B1A6044E0324A2F4B1A602C4B1B6A31
:1029200003F07003102B02D0202B04D038E02D4A86
:10293000294B1A6034E0294A274B1A6030E0244BB7
:102940001B6A13F0807F03D0244A234B1A6012E0E5
:10295000234A214B1A601E4B1B6A03F07003102B95
:1029600002D0202B04D006E01E4A1B4B1A6002E066
:102970001A4A194B1A60164B1B6B03F00303022B08
:10298000134A07BF936A926AD36AD26A1248C3F3A2
:102990000A41036801FB0333D2B2B3FBF2F30360D5
:1029A0000B4B1B6B03F07003702B07D10A4A1368A3
:1029B0000D49A1FB03135B0813607047044B1A6BAE
:1029C0000549C2F302120B68D3400B60704700BF89
:1029D00000040E4010140E40A8000020001BB70099
:1029E00000093D0000127A00ABAAAAAA124B984235
:1029F00004D84FF08062114B1A607047104B984218
:102A000003D8104A0D4B1A6070470F4B984203D8F9
:102A10000E4A0A4B1A6070470D4B984203D80D4A74
:102A2000064B1A6070470C4B984294BF4FF004223B
:102A30000A4A024B1A6070473F81BA01000A0E40F1
:102A40007F02750300010004FFC53E05000200047B
:102A50007FCBA40000030004FF0D2707000500043E
:102A60002DE9F843244B1F88244BD3F8008008EB52
:102A70000704234E61790901304601F58051002297
:102A80001346204DA847A1790901304601F5A04120
:102A900000221346A847E1790901A1F5E04189B276
:102AA000304600221346A84721790901A1F540517B
:102AB00089B2304600221346A8471348134B984763
:102AC00010F0010F16D0104D28460021DFF8449079
:102AD000C847617818F80730284603EB01210C4EEF
:102AE000B04728460121C847E178A378284603EB80
:102AF0000121B047BDE8F88328060020C00000206F
:102B000000800040E508400000C0034075234000FD
:102B1000792340007D23400070B5194D28464FF4BD
:102B2000805100221346174CA04728464FF4A0417D
:102B300000221346A04728464FF4104100221346B6
:102B4000A04728464FF4504100221346A0470E48A4
:102B50000E4B984710F0010F10D00B4C204600216F
:102B60000B4EB04720464FF400610A4DA84720465F
:102B70000121B04720464FF40061A84770BD00BF57
:102B800000800040E508400000C00340752340007D
:102B90007D234000792340004CF25033984215D8F1
:102BA000B0F57A7F15D30F4B18600F4BB3FBF0F0E5
:102BB000B0F1807F15D20D4B5860F0210C4A82F89D
:102BC000231000229A6007221A6070474CF250309E
:102BD00001E04FF47A70034B1860034BB3FBF0F045
:102BE000E9E77047B800002000D8B80510E000E021
:102BF00000ED00E038B52C4B1B78002B4CD10028A1
:102C00004AD141F64D73994246D805398CB2274BCB
:102C100019680A19D078937803EB0023DB009BB284
:102C20009C4239D113461579C5F34000204A1070F3
:102C30005A780B5D03EB02231E4A13601E4B984724
:102C40001E4B1B7813B115F0010F18D01C4A1168E8
:102C5000164B18681060196000231A4A13801A4A2C
:102C60001480114A13700122144B1A70104B1A78F9
:102C7000164B1A700F4B1868154B98470AE0154A07
:102C800011680A4B186810601960134B1C800122F0
:102C9000054B1A70114B9847044B186841F64D715B
:102CA0000F4A104B984738BD21060020BC00002079
:102CB000C4000020B8000020B927400022060020F0
:102CC000C00000202806002026060020B0000020BA
:102CD000992B4000B400002024060020F527400076
:102CE000F52B400099014000284B1B78002B48D061
:102CF00010B54FF08072264B1A63264B1A88264B6C
:102D00001B889A4236D3254B1B78E3B1244A1168BD
:102D1000244B1868106019600023204A13701D4C62
:102D20002380214B1A881C4B1A80204B1A78204B89
:102D30001A70204B98472388083323801E4B18684D
:102D40001E4B984710BD1A4B1B783BB9114C238082
:102D5000184B984723880833238010BD00230D4A61
:102D600013800A4A1370164B98474FF08072084B35
:102D70005A6310BD0F4B9847064A138808331380D7
:102D800010BD4FF08072024B5A637047220600203C
:102D9000000E0E40280600202606002021060020F6
:102DA000C0000020B400002024060020C400002041
:102DB000B0000020612A4000B8000020992B40009C
:102DC000192B400008B5074B186841F64D71064AAB
:102DD000064B9847064B18680321064A064B98474E
:102DE000012008BDBC000020F52B400099014000E7
:102DF000AC000020452E40007D01400008B50023B6
:102E0000054A1370054A1380054B98474FF08072AE
:102E1000044B5A6308BD00BF22060020280600208C
:102E2000192B4000000E0E4020B14FF08062044B81
:102E30001A6370474FF08062014B5A63704700BFBE
:102E4000000E0E4008B5D0B9032918D10F4B1A68EF
:102E50001378012B0BD100230D4A13700D4A1380F8
:102E60004FF080720C4B5A630C4B984707E0022BD3
:102E700005D15078003018BF0120094B9847034B0B
:102E800018680321074A084B984708BDAC0000208A
:102E90002206002028060020000E0E40192B4000BC
:102EA000292E4000452E40007D014000054B4FF08B
:102EB00080621A61C3F8A0204FF080721A61C3F8D3
:102EC000A0207047000E0E4038B50C204FF0006176
:102ED000254CA0470D204FF00061A0470E204FF079
:102EE0000061A0470B204FF00061A0471F4C204617
:102EF0001F4B98470223236080252560636843F0B9
:102F000001036360636823F002036360636843F056
:102F100010036360204600210422164B9847204688
:102F20000621154B984720460E21144B9847204602
:102F300000210A46124B9847204600210A46114BB1
:102F40009847204600212A460F4B984720460021EB
:102F500005220E4B9847204600210A460B460C4D91
:102F6000A8470123236038BDA12440000080004011
:102F7000A90840005D094000D1084000B9084000A0
:102F80001D0940003D094000A1094000B50940006D
:102F9000CD09400038B51E20084B9847084C204604
:102FA000084B984720460021074DA847204601219D
:102FB000A84720460021054B984738BDCD26400044
:102FC00000C0034045234000952340004D234000AE
:102FD00008B50F4B98470F4B98470F4B98470F4B2F
:102FE000984701220E4B1A70BFF35F8F62B60D4BEC
:102FF000984700200C4B83F823001022A3F5406370
:1030000083F82223094B9847094B984730BFFDE7C7
:10301000DD224000952F4000C92E4000AD2E40001B
:10302000A50000204903400000ED00E0292E4000EB
:10303000192B400070B50F4E0F4D761BB61018BF00
:10304000002405D0013455F8043B9847A642F9D135
:103050000A4E0B4D761B00F095F8B61018BF0024F1
:1030600006D0013455F8043B9847A642F9D170BD0B
:1030700070BD00BF90314000903140009831400059
:1030800090314000024B13B1024800F005B8704780
:1030900000000000A5304000014600200246034623
:1030A00000F016B838B5084B084DED1AAC1018BF33
:1030B000ED1805D0013C55F8043D9847002CF9D196
:1030C000BDE8384000F068B8A4314000A8314000A5
:1030D0002DE9F047254C2568D5F848410646884635
:1030E00092469946CCB360681F2818DC431C7EB119
:1030F00004EB80050121C5F888A0D4F8887101FA95
:1031000000F21743022EC4F88871C5F808911ED04A
:103110000230636044F820800020BDE8F087144B43
:1031200003B34FF4C870AFF300800446D0B1D5F8B4
:103130004831002780E88800C5F848413846012317
:10314000C4F88871C4F88C71002EE1D0D0E7D4F8AF
:103150008C110A43C4F88C21DAE705F5A674C5F88A
:103160004841C0E74FF0FF30BDE8F08780314000B4
:10317000000000003030303031000000430000001B
:10318000C8000020F8B500BFF8BC08BC9E467047D8
:1031900085304000F1004000F8B500BFF8BC08BC25
:0831A0009E467047CD0040007F
:1031A8003901400065014000290140002D0140001F
:1031B800000000004C41534441430000484942008C
:1031C80000030000000000000000000000000000F4
:1031D8000403090460000020480000204C0000207F
:1031E800340000200000000000000020120100024E
:1031F80000000040EB03232400010102030100004A
:1032080009024500010100807D0904000000FFFF5C
:10321800FF000904000106FFFFFF000705830308FC
:1032280000010705060308000107058102400000A8
:103238000705020240000007058401000201070596
:10324800050100020101000000093D0048060020B8
:1032580001000000DC440020204E000094250020DE
:103268004C0600200100000000000000B40300200C
:103278001C0400208404002000000000000000005E
:103288000000000000000000000000000000000036
:103298000000000000000000000000007C31400039
:1032A8000000000000000000000000000000000016
:1032B8000000000000000000000000000000000006
:1032C80000000000000000000000000000000000F6
:1032D80000000000000000000000000000000000E6
:1032E80000000000000000000000000000000000D6
:1032F80000000000000000000000000000000000C6
:1033080000000000000000000000000000000000B5
:1033180001000000000000000E33CDAB34126DE652
:10332800ECDE05000B0000000000000000000000BB
:103338000000000000000000000000000000000085
:103348000000000000000000000000000000000075
:103358000000000000000000000000000000000065
:103368000000000000000000000000000000000055
:040000050040282966
:00000001FF
