:020000040040BA
:10000000B03A0020E12B4000DD2B4000DD2B40000A
:10001000DD2B4000DD2B4000DD2B40000000000008
:10002000000000000000000000000000DD2B400088
:10003000DD2B400000000000DD2B4000E9304000D7
:10004000DD2B4000DD2B4000DD2B4000DD2B400090
:10005000DD2B4000DD2B4000DD2B400000000000C8
:10006000DD2B4000DD2B4000000000008108400037
:100070009508400000000000DD2B4000DD2B400013
:100080000000000000000000DD2B4000DD2B4000E0
:10009000DD2B4000DD2B4000DD2B4000DD2B400040
:1000A000DD2B4000DD2B40000000000000000000C0
:1000B00000000000DD2B4000DD2B4000DD2B400068
:1000C000DD2B4000DD2B40002910400010B5054C11
:1000D000237833B9044B13B10448AFF300800123F4
:1000E000237010BDFC08002000000000C83E400046
:1000F000084B10B51BB108480849AFF30080084809
:10010000036803B910BD074B002BFBD0BDE81040BE
:10011000184700BF00000000C83E40000009002052
:10012000C83E40000000000000207047014B1878D6
:10013000704700BF1809002008B5074B9847C378DF
:10014000064A1370012B05D1054B9847003018BFA4
:10015000012008BD012008BD3D0340001809002012
:10016000B531400008B5034B1B78012B01D1024B80
:10017000984708BD180900202532400010B582B00C
:1001800004460B460092062000212246014CA0475F
:1001900002B010BD3520400010B582B004460B46B9
:1001A0000092022000212246014CA04702B010BD5F
:1001B000352040000F4B1B681A6853881A44037897
:1001C0001844904210D24378042B0FD08B4205D1B3
:1001D00070474378042B0BD08B420AD00378184425
:1001E0009042F6D3002070470020704700207047EF
:1001F000002070471C09002008B5034B987800F0D8
:100200007F00024B984708BD800A0020491C40002F
:10021000164B1B780BB3164B1B681B681A7982426E
:100220001DD910B4134A13605C881C44A34218D231
:100230005A78042A09D19A78824206D1DA788A4219
:1002400003D10C4A136001200CE01A781344A34236
:10025000EED3084A1360002004E00020704700201D
:10026000704700205DF8044B704700BF280900204C
:100270001C0900202C0900202DE9F8430446002128
:10028000124B98478046E8B1114B1B685B6853F8E6
:100290002490D9F80C309847014620460B4B9847DC
:1002A000804678B10B4B1C6805260B4D0B4F204642
:1002B0003146A847044610B18078B847F7E7D9F827
:1002C000043098474046BDE8F88300BF1102400063
:1002D0001C0900202C090020B5014000B11D400080
:1002E0002DE9F0418046104B98470346C8B10F4BAB
:1002F0001C6805260E4D0F4F20463146A847044680
:1003000038B18078E178A288B84703460028F3D155
:1003100007E0094B1B685B6853F828301B68984757
:1003200003461846BDE8F081110240002C09002068
:10033000B5014000A91C40001C090020014B1868B1
:10034000704700BF2C09002008B5014B984708BD35
:10035000851B400070B50D4B1B7883B10C4B1B689F
:100360001B681B795BB100240A4E094D2046B0473B
:100370000134E4B22B681B681B79A342F6D8002332
:10038000024A1370044A138070BD00BF2809002080
:100390001C090020790240002609002038B50C4BCA
:1003A0001B789BB10B4B1B681A68127972B1002441
:1003B000084D5B6853F824301B6903B1984701343A
:1003C000E4B22B681A681279A242F2D838BD00BF95
:1003D000280900201C090020F8B5814B00229A81D1
:1003E0001A615A611B7813F0800F00F0F0817C4A8B
:1003F000D288002A40F0E781E1E113F01F0340F0CA
:1004000082807749497806290BD0082973D00029C2
:1004100079D1022A40F0838172480221724B9847B9
:10042000DCE16F4B5A88130A013B0E2B00F26E8100
:10043000DFE813F00F00160034006C016C016C0152
:100440006C016C016C016C016C016C016C016C0144
:100450002A00664B1B6818461978634B984741E0A1
:10046000D2B2624B1B685B7C934240F258815F4B77
:100470005B6853F83230184659885B4B9847584BA5
:100480009B6802225A702DE0584B9B68002B00F0AD
:10049000468118465988544B984723E0D2B2032A24
:1004A00000F23D81DFE812F007000C009701040024
:1004B00005224F4B06E04F4804214B4B984711E073
:1004C0004D4B03221C464D4813F8011B20F8021F18
:1004D000191BC9B29142F7D35200911C47480170D1
:1004E000414B98473E4BDA889B89934240F2768194
:1004F0003B4B9A8172E1012A40F011814048012171
:10050000394B98476AE1012B27D1354949780A29A7
:1005100023D1012A40F00381394B1B78002B00F0D6
:10052000FE802F4B1C79374B1D682B681B79A3422B
:1005300040F2F58020460021334B9847002800F018
:10054000EE806B6853F82430DB6898472F4B1870A7
:1005500018460121244B984740E1022B40F0DF80F0
:100560001F4B5B78002B40F0D380022A40F0D780ED
:100570001B4B1879264B9847264B188018460221AA
:10058000194B98472AE113F01F037FD1144A527880
:10059000013A082A7AD8DFE812F012007900BD008B
:1005A0007900090079007900790041000C4BDB8863
:1005B000002B40F0B480184A094B1A610EE1084B39
:1005C000DB88002B40F0AB80054B5B88012B40F0B3
:1005D000A680044A138823F002031380FEE000BFC4
:1005E000800A0020260900209D1C40003C000020BD
:1005F000943E4000300000201C000020200000201D
:10060000280900201C0900201102400024090020B4
:10061000191E400020090020F9014000714BDB88C1
:10062000002B7CD1704B9847002878D06D4B9A787E
:100630006E4B1B685B7C9A4271DC6D4B9847694B33
:100640009B786C4A1370002B00F0C88003F10053B4
:10065000013B664A526802EBC3006749086052F8E2
:1006600033301B79002B00F0B98000242646634DFF
:100670000F4620463146A847002850D00134E4B246
:100680003B681B681B79A342F3D8A7E0012B19D163
:10069000544A52780B2A15D1524BDB88002B3ED19D
:1006A000544B1B78002B3AD04E4B1C795D8820466A
:1006B000534B9847002832D02046E9B24F4B984719
:1006C00003462AE0022B2AD1464B5B78012B02D04D
:1006D000032B0CD020E0434BDB8803BB414B5B88F2
:1006E000EBB9404B1879474B9847034615E03D4B13
:1006F000DB88A3B93B4B5B888BB93A4C2079424BE2
:1007000098472079414B9847034606E0002304E0D0
:10071000002302E0002300E00023002B5FD1314BD7
:100720001B7803F01F03012B1ED1324B1B78DBB16A
:100730002C4B1C79304B1D682B681B79A34213D9B5
:1007400020460021324B984770B16B6853F8245013
:10075000EB689847014620462D4B984720B1AB687F
:100760009847034600283AD11E4B1B7803F01F031D
:10077000022B26D11F4B1B78EBB11F4B1A68136855
:100780001B79D3B10024224E1B4F536853F82450D9
:10079000EB68984701462046B0470346F8B1AB687E
:1007A00098470346D8B90134E4B23A681168097928
:1007B000A142EAD813E0002311E000230FE0002358
:1007C0000DE000230BE013F0600FA8D115E613F045
:1007D000600FA4D1D7E606220E4B73E6012318461C
:1007E000F8BD00BF800A0020811C40003C000020B2
:1007F00055034000280900201C090020E1024000A8
:1008000079024000451F4000B5214000591E4000BC
:1008100011024000140000202DE9F843814688466B
:10082000124B984705464846114B9847054013D050
:10083000104C04F160062368434508D161682942E1
:1008400005D0E36840469847636825EA0305B4424B
:1008500002D01034002DEED1074B1B6823B1074B9B
:100860001B680BB148469847BDE8F8835D254000FA
:100870006125400034090020980A0020300900203A
:1008800008B502480B21024B984708BD000E0E40E8
:100890001908400008B502480C21024B984708BDD2
:1008A00000100E401908400008B51520014B98476C
:1008B00008BD00BF91274000436823F470234360C4
:1008C0004368090401F470210B434360704700BF83
:1008D000436823F07F434360436843EA016141601A
:1008E000704700BF30B443F6992401E0013C11D0B9
:1008F000056915F0020FF9D0446814F0020F06D014
:10090000120402F4702211430BB141F08071C160F6
:10091000002000E0012030BC704700BF32B100EB86
:100920008100036B43F001030363704700EB810018
:10093000036B23F001030363704700BF32B100EB88
:100940008100036B43F002030363704700EB8100F7
:10095000036B23F002030363704700BF042A0AD12C
:1009600000EB8100036B23F008030363036B43F088
:1009700004030363704752B900EB8100036B23F05B
:1009800008030363036B23F0040303637047082A1F
:1009900005D100EB8100036B43F00803036370474C
:1009A00000EB81010B6B23F0F0030B630B6B1A431D
:1009B0000A63704700EB81010B6B23F47F430B63E9
:1009C0000B6B43EA02220A63704700BF10B400EBCE
:1009D0008101086B80B208630C6B44EA036343EA4D
:1009E00002420A635DF8044B704700BF034A0023CC
:1009F000136153619381024A13707047800A00208B
:100A0000250A002082B005220E4B1A700E4A136B85
:100A10000093009B43F04F030093009B43F020039F
:100A20000093009B136300230193019B132B06D8B3
:100A300000BF019B01330193019B132BF8D902B036
:100A4000704700BF250A00200040034082B0032207
:100A50000E4B1A700E4A136B0093009B43F04F032A
:100A60000093009B43F010030093009B136300234B
:100A70000193019B132B06D800BF019B0133019307
:100A8000019B132BF8D902B0704700BF250A002044
:100A90000040034008B5024B1B6903B1984708BDED
:100AA000800A002030B58BB0754B1B78032B1DD10D
:100AB000744A136B0093009B43F04F030093009B19
:100AC00023F001030093009B136300230193019B18
:100AD000132B06D800BF019B01330193019B132BFD
:100AE000F8D9694B9847694B9847C6E0684B1A8814
:100AF000684B9C89A41AA4B2002C33D166490B8898
:100B000013449BB20B80634AD2889A4202D0634B53
:100B10001B78EBB104225A4B1A705A4A136B02939A
:100B2000029B43F04F030293029B23F001030293C5
:100B3000029B136300230393039B132B00F29D80FE
:100B400000BF039B01330393039B132BF8D994E05D
:100B5000504B5B696BB1984758B100224C4B1A80DF
:100B60004C4B9C893F2C04D900224C4B1A704024DA
:100B700002E00122494B1A70464B9968444B1B888E
:100B8000EFF31080B0FA80F0400972B6BFF35F8FC8
:100B90000025434A15703B4A126B12F0020F01D137
:100BA00024BB2DE028B101223D4B1A70BFF35F8FAB
:100BB00062B60422324B1A70324A136B0493049BC0
:100BC00043F04F030493049B23F001030493049B1D
:100BD000136300230593059B132B4ED800BF059B81
:100BE00001330593059B132BF8D946E019440A46B7
:100BF000244D12F8013B2B65531ADBB2A342F8D304
:100C0000234A13881C4414801E4A136B0693069BC8
:100C100043F04F030693069B43F010030693069B95
:100C2000136300230793079B132B06D800BF079B72
:100C300001330793079B132BF8D9124A136B0893C0
:100C4000089B43F04F030893089B23F0010308938C
:100C5000089B136300230993099B132B06D800BF3D
:100C6000099B01330993099B132BF8D928B1012261
:100C70000B4B1A70BFF35F8F62B60BB030BD00BF75
:100C8000250A002000400340950A4000ED0940007D
:100C9000220A0020800A0020A4090020240A002043
:100CA000AC00002038B50346447C14F0100F15D07A
:100CB000447C6FF30414447405687DB102F10C04A4
:100CC000074850F8240010F4806F18BF42F08002EB
:100CD000012914BF002001209968A84738BD00BF32
:100CE0000040034030B484B0421E830003F140232F
:100CF00003F54033196B1C6B11F0020F0CD014F08C
:100D0000400F13D102EB8201324C04EB81014C7C89
:100D10006FF383044C7409E002EB82012D4C04EB69
:100D200081014C7C012565F383044C7402EB820144
:100D3000284C04EB8101497C11F00C0F25D1196B73
:100D40000091009941F04F010091009921F00201BA
:100D500000910099196300230193019B132B06D87E
:100D600000BF019B01330193019B132BF8D968B39A
:100D700003282BD002EB8202164B03EB82035A7C32
:100D8000012161F383025A7420E0196B02910299E8
:100D900041F04F010291029921F040010291029924
:100DA000196300230393039B132B06D800BF039BF7
:100DB00001330393039B132BF8D902EB8202054BFB
:100DC00003EB8202537C6FF38303537404B030BC93
:100DD000704700BFA80900202DE9F04182B0884685
:100DE0008446461E06EB8602694B03EB82035B7C5E
:100DF000C3F3810320B103280CBF0122022200E0CB
:100E000001229A4240F3B98006EB8603604A02EB66
:100E10008303DA689B689A4209D306EB86015C4C2F
:100E200004EB8101497C11F0400F00F0A88006EB33
:100E30008605574901EB85056C681444991A2B8A7D
:100E4000C3F30907B9423ABF0F464FF0010E4FF006
:100E5000000E06EB86034E4901EB83033A44DA6049
:100E6000072F2BD904F108033D46820002F14022EE
:100E700002F5403213F8081C116513F8071C1165C0
:100E800013F8061C116513F8051C116513F8041CF2
:100E9000116513F8031C116513F8021C116513F892
:100EA000011C1165083D0833072DE3D8A7F108039D
:100EB00023F0070308331C4407F007074FB1E31979
:100EC000344914F8015B0CF1140241F822509C42A1
:100ED000F7D106EB86032E4A02EB83035A7CC2F35A
:100EE0008101013161F383025A74B8F1000F1CD003
:100EF000800000F1402000F54030036B0093009B20
:100F000043F04F030093009B43F010030093009BBA
:100F1000036300230193019B132B06D800BF019BA1
:100F200001330193019B132BF8D9BEF1000F08D0B8
:100F300006EB8603164A02EB83035A7C6FF3861294
:100F40005A7406EB8603124A02EB8303DA689B6845
:100F50009A4216D306EB86030D4A02EB83035B7CB1
:100F600013F0400F0FD106EB860602EB8606737C6A
:100F700043F080037374002006E0012004E00020A9
:100F800002E0012000E0012002B0BDE8F08100BFD6
:100F9000A80900200040034010B40446002835D1C1
:100FA0001E4B1B787BB31E4B9B7803B9FEE7EFF318
:100FB000108372B6BFF35F8F00211A4A117018496F
:100FC0008A78013A8A70F3B90122164B1A70BFF37E
:100FD0005F8F62B617E0124B9B78FF2B00D1FEE7C4
:100FE000EFF3108372B6BFF35F8F00210D4A1170CB
:100FF0000B498A7801328A702BB90122094B1A7089
:10100000BFF35F8F62B6054B1C7004E0034B1B7887
:10101000002BF8D1DFE75DF8044B7047200A002071
:10102000780A0020AC0000202DE9F04FB1B0954BBC
:10103000984760B9944BDB6913F4807F07D172B68F
:10104000BFF35F8F0022914B1A7000F052BD222037
:101050008F4B98478C4B9B6913F4006F0CD08A4BD5
:10106000DB6913F4006F07D04FF40062864B1A62FD
:10107000884B984700F03DBD834BDB6913F0010FAF
:1010800000F0EF81804B1B6B13F0040F00F0C08069
:10109000814B1B781BB1814B9847814B98477A4B0A
:1010A0001B6BC3F30A43082B1CD0774A136B0293C4
:1010B000029B43F04F030293029B23F0040302932D
:1010C000029B136300230393039B132B06D800BFDB
:1010D000039B01330393039B132BF8D9714B984760
:1010E00000F007BD704B03F1080067490A6D03F873
:1010F000012F8342FAD16D4B9847E0B9624A136BD6
:101100000493049B43F04F030493049B23F00403D4
:101110000493049B136300230593059B132B06D8AC
:1011200000BF059B01330593059B132BF8D95D4B3D
:10113000984700F0DEBC5E4B93F90030002B3DDA9F
:10114000514A136B0693069B43F04F030693069B8D
:1011500043F080030693069B136300230793079BCA
:10116000132B06D800BF079B01330793079B132B54
:10117000F8D9454A136B0893089B43F04F03089333
:10118000089B23F004030893089B1363002309932F
:10119000099B132B06D800BF099B01330993099BB8
:1011A000132BF8D90023434A1380434A13800222A9
:1011B000394B1A70414B984700F09BBC324A136B75
:1011C0000A930A9B43F04F030A930A9B23F00403FC
:1011D0000A930A9B136300230B930B9B132B06D8D4
:1011E00000BF0B9B01330B930B9B132BF8D9304B98
:1011F000DB881BB9324B984700F07BBC00232D4A9B
:1012000013802D4A13800122234B1A7000F071BC09
:101210001D4B1B6B13F0010F03D0284B984700F0B8
:1012200068BC194B1B6B13F0020F00F015811A4BB1
:101230001B78012B46D0022B01D0042B02D1174B77
:10124000984701E0174B98470F4A136B0C930C9B80
:1012500043F04F030C930C9B23F002030C930C9B65
:10126000136300230D930D9B132B06D800BF0D9B1A
:1012700001330D930D9B132BF8D9094B984700F0C0
:1012800038BC00BF612B400000400340AC00002090
:10129000912740009D034000250A0020950A400048
:1012A000ED094000050A40007F0A0020D9034000F4
:1012B000800A0020A4090020220A0020A50A40007C
:1012C0004D0A4000914B196BC1F30A41904B9B8929
:1012D000904A15886A189342AEBF89B25B1B99B2D7
:1012E0008B4B98682844A9B10246884C236D02F8BC
:1012F000013B131ADBB28B42F8D30D44ADB2854BE0
:101300001D80402906D1824BDA88834B1B882B44F1
:101310009A423EDC7E4B9D815B69F3B19847E0B910
:101320007E4B9847794A136B0E930E9B43F04F0305
:101330000E930E9B23F002030E930E9B1363002368
:101340000F930F9B132B00F2D48300BF0F9B01332D
:101350000F930F9B132BF8D9CBE36C4A136B1093AD
:10136000109B43F04F031093109B23F00203109344
:10137000109B136300231193119B132B06D800BFFE
:10138000119B01331193119B132BF8D9644B984790
:10139000AFE35F4B9B89AB4243D15D4B5B69CBB9FC
:1013A0005E4B9847594A136B1293129B43F04F03BD
:1013B0001293129B23F002031293129B13630023D8
:1013C000139303E000BF139B01331393139B132B61
:1013D000F8D98EE39847E0B9504B98474B4A136BC6
:1013E0001493149B43F04F031493149B23F00203B4
:1013F0001493149B136300231593159B132B00F276
:10140000788300BF159B01331593159B132BF8D9D7
:101410006FE341493F4A10880B8803440B80002347
:1014200013803A4A136B1693169B43F04F0316939F
:10143000169B23F002031693169B13630023179346
:10144000179B132B00F2558300BF179B0133179393
:10145000179B132BF8D94CE32C4B1B6B13F0080F85
:1014600006D1304F39460123DFF8A0E018461AE0D4
:10147000264A136B0093009B43F04F030093009B9D
:1014800023F008030093009B136300230193019B47
:10149000132B00F22E8300BF019B01330193019BAC
:1014A000132BF8D925E3DEB2DEF818201D4600FA2A
:1014B00003F4144200F0218203F1FF3889469A00B8
:1014C00002F1402202F54032D2F830C01CF0420F47
:1014D00053D008EB8803134A02EB83039A68D96858
:1014E000B3F810A0CAF3090A5B68AD0005F1402506
:1014F00005F540352F6BC7F30A47002F00F0EE8249
:10150000501AB84240F2DE82CDE200BF00400340F4
:10151000800A0020220A0020A4090020050A4000B9
:101520004D0A4000A80900204FF0010B19440B465A
:101530002A6D03F8012B5A1A9042F9D83046A54B70
:101540009847BBF1000F02D1BA4540F2D2822B6B13
:1015500013F0200F40F0CD829F4B5C619F4B4FEA10
:10156000880202EB080103EB8101CB688B604846DF
:10157000002132469A4B9847BBE2D2F830C01CF0AB
:10158000010F00F0908108EB8802944B03EB82027C
:10159000537CC3F38101033161F383035374537CA0
:1015A00013F0200F78D013F00C0F36D0AA0002F100
:1015B000402202F54032136B1893189B43F04F03FF
:1015C0001893189B43F010031893189B1363002380
:1015D0001993199B132B06D800BF199B013319933C
:1015E000199B132BF8D9136B1A931A9B43F04F03D3
:1015F0001A931A9B23F001031A931A9B1363002377
:101600001B931B9B132B00F2748200BF1B9B0133A7
:101610001B931B9B132BF8D96BE2AA0002F140220B
:1016200002F54032136B1C931C9B43F04F031C9339
:101630001C9B23F001031C931C9B136300231D932D
:101640001D9B132B06D800BF1D9B01331D931D9BB3
:10165000132BF8D9136B1E931E9B43F04F031E935D
:101660001E9B43F020031E931E9B136300231F93B6
:101670001F9B132B06D800BF1F9B01331F931F9B7B
:10168000132BF8D908EB8808544B03EB88035A7CDA
:101690006FF345125A742CE213F0800F0FD008EB51
:1016A00088024E4B03EB8203597C6FF3C7115974C8
:1016B000DA689A60484600213246494B984708EB61
:1016C0008803464A02EB8303DA689B689A4238D360
:1016D00008EB8803414A02EB83035B7C13F04C0F59
:1016E0002FD1EFF3108372B6BFF35F8F00213D4A15
:1016F0001170394A54612BB901223A4B1A70BFF369
:101700005F8F62B6AB0003F1402303F540331A6BE1
:101710002092209A42F04F022092209A22F0010259
:101720002092209A1A6300232193219B132B00F20D
:10173000E08100BF219B01332193219B132BF8D91A
:10174000D7E1002E00F08C80032E00F0898008EB9A
:101750008802224B03EB82035B7C13F00C0F45D015
:10176000AA0002F1402202F54032136B2293229B21
:1017700043F04F032293229B43F010032293229BBA
:10178000136300232393239B132B06D800BF239BB3
:1017900001332393239B132BF8D9136B2493249B9E
:1017A00043F04F032493249B23F001032493249BB1
:1017B000136300232593259B132B06D800BF259B7D
:1017C00001332593259B132BF8D930460021064B76
:1017D00098478EE1E50C400000400340A809002036
:1017E000A50C4000AC000020D90D4000304601217E
:1017F000694B984790B91423684A03FB082898F866
:1018000011206FF3C71288F81120D8F80C30C8F8EF
:101810000830484600213246614B9847AB0003F13F
:10182000402303F540331A6B2692269A42F04F026A
:101830002692269A22F001022692269A1A63002303
:101840002793279B132B06D800BF279B0133279391
:10185000279B132BF8D9304600214F4B984748E17E
:10186000304601214C4B9847AB0003F1402303F570
:1018700040331A6B2892289A42F04F022892289AF5
:1018800022F001022892289A1A6300232993299BA7
:10189000132B00F22E8100BF299B01332993299B32
:1018A000132BF8D925E1126B12F0080F25D09B00FD
:1018B00003F1402303F540331A6B2A922A9A42F02F
:1018C0004F022A922A9A22F008022A922A9A1A632E
:1018D00000222B922B9A132A06D800BF2B9A013292
:1018E0002B922B9A132AF8D91A6B02F4E062B2F504
:1018F000807F00F0FE801B6BFBE001331431072B6F
:101900007FF4D1ADEEE0274BDB6913F4005F13D118
:10191000244B9B6913F4007F04D0224BDB6913F442
:10192000007F09D11F4B9B6913F4806F14D01D4BAE
:10193000DB6913F4806F0FD01A4C4FF418532362F5
:1019400063610120184B98474FF480732362236131
:101950004FF400632361CCE0124B9B6913F4807F4A
:1019600026D0104BDB6913F4807F21D00D4B4FF450
:1019700080721A625A614FF400521A614FF4007279
:101980001A614FF480621A612220084B98470020A8
:10199000054B9847ADE000BFD90D4000A8090020D5
:1019A000A50C400000400340990F4000E52740008F
:1019B000514BDB6913F4805F00F09B804FF4805241
:1019C0004D4B1A62002401264C4D0134E4B23846D6
:1019D00031462246A8471437062CF6D1484B984783
:1019E000454B5A6822F001025A605A6822F00202FE
:1019F0005A609A6842F480729A609A6822F07F0274
:101A00009A601A6B2C922C9A42F04F022C922C9ACC
:101A100022F4074222F080022C922C9A42F40042D7
:101A20002C922C9A1A6300232D932D9B132B06D8EE
:101A300000BF2D9B01332D932D9B132BF8D92E4ADC
:101A4000136B2E932E9B43F04F032E932E9B43F448
:101A500000432E932E9B136300232F932F9B132B56
:101A600006D800BF2F9B01332F932F9B132BF8D940
:101A7000EFF3108372B6BFF35F8F0021214A11701C
:101A800001211D4A116123B91E4B1970BFF35F8FED
:101A900062B61D4B9847184B4FF480721A614FF491
:101AA00000621A6125E008EB8802184800EB820208
:101AB0007818D06038464FF0000B37E53046144BAD
:101AC000984744E508EB880EDFF840C00CEB8E0E1B
:101AD000CEF80C2000287FF427ADEFE730460C4B02
:101AE000984731E5044B9B6913F4005F7FF40BAF1B
:101AF0000EE731B0BDE8F08F00400340A50C400078
:101B000055034000AC000020ED094000A80900206A
:101B1000E50C400010B5EFF3108472B6BFF35F8F91
:101B20000022144B1A700120134B98472220134BAC
:101B30009847134B5A6F22F480725A675A6F42F4D7
:101B400000725A674FF480721A614FF400521A61A2
:101B50004FF400721A614FF480621A614FF4006210
:101B60001A612CB90122034B1A70BFF35F8F62B662
:101B700010BD00BFAC000020990F4000912740002D
:101B80000040034038B5EFF3108572B6BFF35F8FA6
:101B90000024244B1C702220234B9847234B98474A
:101BA000234B502283F8222304225A6023462148E3
:101BB0009A00D11800EB8101497C1A4400EB8202A3
:101BC00001F083016FF3C71151740133062BEFD17C
:101BD0004FF48020184B98470022184B1A70184B6E
:101BE0001B78FF2B00D1FEE7EFF3108372B6BFF333
:101BF0005F8F00210B4A117011490A7801320A7077
:101C00002BB90122074B1A70BFF35F8F62B60D4BE1
:101C100098472DB90122034B1A70BFF35F8F62B64C
:101C200038BD00BFAC000020912740005123400088
:101C300000E100E0A809002059284000200A002007
:101C4000780A0020151B40000C4B5A6822F0010254
:101C50005A609A6822F480729A6070B19A6800F0B3
:101C60007F0022F07F02104398609A6842F48072ED
:101C70009A605A6842F001025A607047004003407F
:101C8000054B5B6813F0010F1DBF034B986800F014
:101C90007F000020704700BF00400340014B986068
:101CA00099817047800A0020F0B583B000F00F04DE
:101CB000062C6CD8A30003F1402303F540331D6BC1
:101CC00015F4004F65D101F00305012D03D1002C5F
:101CD00061D0032C61D0251FEDB2022D34BF4FF42B
:101CE0000075402595425ADB661E06EB86072E4D91
:101CF00005EB870505F11007B5F810E062F3090E52
:101D0000A5F810E06A7C02F07F026FF345126A7456
:101D1000C00903D07A786FF383027A70234A966AF7
:101D2000012505FA04F444EA06059562956A25EA58
:101D3000040494621A6B0092009A42F04F020092DF
:101D4000009A22F4074222F08002009238B141F05A
:101D50000402120202F4E06242F4004204E00A02C9
:101D600002F4E06242F4004200990A430092009AB1
:101D70001A6300230193019B132B12D800BF019B10
:101D800001330193019B132BF8D901200AE00020B5
:101D900008E0002006E0002004E0002002E000202F
:101DA00000E0012003B0F0BDA8090020004003407E
:101DB00000F00F02062A2AD800B583B0930003F181
:101DC000402303F54033196B0091009941F04F0116
:101DD0000091009921F400410091009919630023BA
:101DE0000193019B132B06D800BF019B0133019384
:101DF000019B132BF8D9501E00EB8000044B03EB22
:101E000080000121034B984703B05DF804FB704745
:101E1000A8090020A50C400000F00F00062815D8E6
:101E2000431E03EB83030A4A02EB83035B7C13F03C
:101E3000200F09D10C30074B53F8203013F0280F36
:101E400014BF012000207047012070470020704718
:101E5000A80900200040034000F00F01062961D8C6
:101E600010B483B0EFF31082B2FA82F2520972B664
:101E7000BFF35F8F0024304B1C7010F0800F28D010
:101E80004B1E01F10C002D4C54F8200010F0100FE7
:101E900009D103EB83002A4C04EB8000407CC0F3A3
:101EA0008100012815DD03EB8300254B03EB800344
:101EB000587C40F02000587401238B401F490B616F
:101EC000002A31D001201C4B1870BFF35F8F62B61F
:101ED0002DE08B0003F1402303F54033186B009095
:101EE000009840F04F000090009840F020000090D3
:101EF0000098186300230193019B132B06D800BFA1
:101F0000019B01330193019B132BF8D901238B40D3
:101F10000A490B6152B10120074B1870BFF35F8F64
:101F200062B604E000207047012000E0012003B009
:101F30005DF8044B704700BFAC0000200040034038
:101F4000A809002000F00F00062867D8411E01EB09
:101F50008102364B03EB82035A7C6FF345125A74AD
:101F6000820002F1402202F54032136B13F0200F81
:101F700056D030B585B0136B0093009B43F04F03F0
:101F80000093009B23F020030093009B1363002326
:101F90000193019B132B06D800BF019B01330193D2
:101FA000019B132BF8D9224B9D6A012404FA00F0FF
:101FB00040EA05049C629C6A24EA00009862136B64
:101FC0000293029B43F04F030293029B23F008030A
:101FD0000293029B136300230393039B132B06D8E6
:101FE00000BF039B01330393039B132BF8D901EB31
:101FF00081030E4A02EB83035B7C13F0100F11D0B8
:102000008800431802EB83035C7C6FF304145C7458
:10201000014452F821309847012004E00020704725
:1020200001207047012005B030BD00BFA809002085
:1020300000400340F8B500F00F05062D00F2A48023
:10204000AC0004F1402404F54034266B16F4004F34
:1020500000F09C806E1E06EB860E514F07EB8E073C
:102060007F7C17F0200F40F09380276B17F0200F34
:1020700040F090804FF0807E4A4FC7F830E0EFF399
:102080001087B7FA87F77F0972B6BFF35F8F4FF0FB
:10209000000CDFF814E18EF800C006EB860EDFF8C6
:1020A00000C10CEB8E0E9EF811E01EF0100F09D04F
:1020B000002F71D001223C4B1A70BFF35F8F62B6C4
:1020C0000020F8BD06EB860EDFF8D4C00CEB8E0EB8
:1020D0009EF811C04CF0100C8EF811C03FB14FF0BB
:1020E000010E314F87F800E0BFF35F8F62B6DFF873
:1020F000B0C006EB8607BF000CEB070ECEF804203D
:102100000EF10802CEF808304FF0000EC2F804E0DD
:10211000069A4CF8072019B9B3FA83F35B0900E07B
:1021200001231F49B700BA1901EB8202527C63F305
:1021300086123E4401EB860613466FF3C713737491
:10214000EFF3108672B6BFF35F8F0022164B1A7042
:102150000123AB40154A136110F0800F0CD0236BA4
:1021600013F0110F08D128460121114B984718B1DF
:10217000284600210E4B984786B901200A4B18705B
:10218000BFF35F8F62B6F8BD0020F8BD0020F8BD38
:102190000020F8BD0020F8BD0020F8BD0120F8BDEA
:1021A000A8090020000E0E40AC00002000400340B3
:1021B000D90D4000F0B589B000F00F04062C00F2F4
:1021C000BA80EFF3108372B6BFF35F8F00215B4AD2
:1021D00011700125A5405A4A55612BB90122574B70
:1021E0001A70BFF35F8F62B610F0800F0AD1A6009D
:1021F00006F1402606F54036336B13F0420F40F0EF
:10220000818086E0A20002F1402202F54032136B89
:1022100013F0100F53D0002C39D0032C37D0136B90
:102220000093009B43F04F030093009B23F01003A7
:102230000093009B136300230193019B132B06D88B
:1022400000BF019B01330193019B132BF8D9136B42
:1022500013F0100FFBD1136B0293029B43F04F035B
:102260000293029B43F010030293029B136300232B
:102270000393039B132B06D800BF039B01330393E7
:10228000039B132BF8D9136B13F0100FFBD0136BB8
:102290000493049B43F04F030493049B23F0100327
:1022A0000493049B136300230593059B132B06D80B
:1022B00000BF059B01330593059B132BF8D9136BC6
:1022C0000693069B43F04F030693069B23F00103FE
:1022D0000693069B136300230793079B132B06D8D3
:1022E00000BF079B01330793079B132BF8D9631E8D
:1022F00003EB8302134B03EB82035A7C6FF38302DD
:102300005A7406E0104F2046B847336B13F0420F63
:10231000F9D10B4B9A6A2A439A629A6A22EA050516
:102320009D62601E00EB8000064B03EB80000121E4
:102330002246064B984709B0F0BD00BFAC00002014
:1023400000400340A8090020E50C4000A50C400017
:1023500010B500203E210A4B98470A4CA0470028A0
:10236000FCD0094B9847094A094BDA62094CA0474F
:102370000028FCD00020084B9847084B984710BD18
:10238000F12640004527400075274000013F02002C
:1023900000040E4081274000392840004D284000AD
:1023A00010B50E480E4B984700203E210D4B984724
:1023B0000D4CA0470028FCD00C4B98470C4A0D4B05
:1023C0009A620D4CA0470028FCD000200B4B984788
:1023D0000B4B98470B48024B984710BD000E270740
:1023E000A52D4000F126400045274000552740001C
:1023F000013F052000040E4065274000892640006B
:10240000912C400000D8B80501230360704700BF3D
:1024100041B1436843F480734360436843F0100361
:10242000436007E0436843F480734360436823F0EC
:102430001003436000207047006B704701627047D3
:102440004368012906D823F4981343EA0141416007
:102450000020704701207047012904D801238B40D8
:102460000361002070470120704700BF4264B1F152
:10247000C05F2FD007D8B1F1006F14D0B1F1805FE9
:102480001ED039B97047B1F1205F37D004D8B1F10F
:10249000005F29D042607047B1F1405F2ED0B1F1AA
:1024A000605F2BD0F6E710B4016F046FD343214077
:1024B00019400167416F446F21400B4043671AE0A8
:1024C000036F13430367436F416F0B4023EA02031B
:1024D0004367DFE7036F016F0B4023EA02030367E3
:1024E000436F13434367D5E7036F13430367436F9A
:1024F00013434367CEE742605DF8044B704700BF6B
:10250000416412F0010F14BF4166016612F00A0F18
:1025100014BF0162416212F0020F02D0C0F88010B5
:1025200004E012F0080F18BFC0F884104161016088
:10253000704700BF10B44164019C0CB1416600E0DB
:1025400001660BB1016500E041650AB1016300E07D
:102550004163016101605DF8044B7047C06C7047D6
:10256000806C704770B582B00D46430903F50013C7
:1025700003F207735C0201F0F043B3F1005F47D050
:1025800009D8B3F1805F21D0B3F1C05F2FD0B3F190
:10259000006F6FD109E0B3F1405F55D0B3F1605FD8
:1025A00052D0B3F1205F44D064E000F01F00012658
:1025B000864020464FF000613246304B984715F078
:1025C000010F14BF66662666012054E000F01F006C
:1025D0000126864020464FF080513246274B9847CF
:1025E00015F0010F14BF66662666012043E000F077
:1025F0001F000126864020464FF0C05132461F4B37
:10260000984715F0010F14BF66662666012032E078
:1026100000F01F000126864020464FF00051324650
:10262000164B984715F0010F14BF66662666012009
:1026300021E000F01F030126204606FA03F12A4696
:102640000F4B9847304616E000F01F03012605F0B7
:10265000605205EA06010091204606FA03F1B2F144
:10266000605F14BF00220122C5F38003054CA04720
:10267000304600E0002002B070BD00BF6D24400075
:102680000125400035254000184A136B23F07003E4
:1026900018431063936E13F0080F03D009E0013B59
:1026A00003D11EE04FF4006310498A6E12F0080F48
:1026B000F5D00E4A136B23F0030343F002031363B8
:1026C000906E10F0080004D000207047013B03D149
:1026D00009E04FF4006305498A6E12F0080FF5D047
:1026E0007047012070470120704700BF00040E4072
:1026F00038B111490B6A114A1A40114B13430B624E
:1027000070470D4A136A23F45C1323F0030343F468
:102710005C1343F00103090289B20B431362936E09
:1027200013F0010FFBD0044A136A43F09B7343F488
:1027300080331362704700BF00040E40FCFFC8FEE8
:1027400002003701024B986E00F48030704700BFE2
:1027500000040E404FF00052014B9A62704700BFD8
:1027600000040E40024B986E00F00200704700BF5C
:1027700000040E400022014BDA62704700040E4054
:10278000024B986E00F00400704700BF00040E403A
:1027900022281ED81F280CD8114B9A690123834088
:1027A0001A40934217D0012383400D4A1361002041
:1027B00070470B4BD3F808212038012383401A407F
:1027C00093420AD001238340054AC2F80031002019
:1027D000704701207047002070470020704700BFFD
:1027E00000040E4022281ED81F280CD8114B9A69CD
:1027F000012383401A40934217D1012383400D4A9D
:102800005361002070470B4BD3F808212038012377
:1028100083401A4093420AD101238340054AC2F8FB
:1028200004310020704701207047002070470020CD
:10283000704700BF00040E40000200F4706040F0DA
:102840000100014B9863704700040E408022014B49
:102850001A60704700040E40034A136FC0F3120061
:1028600003431367704700BF00040E40014B18601C
:10287000704700BFA8000020114A136F23F4C00165
:10288000104B1B680B431367136A43F45C1343F04C
:1028900004031362936E13F0080FFBD04FF4FA7326
:1028A00000BF013BFCD1064A136A13F0080FFBD0AE
:1028B000034A136F23F4C00343F480031367704784
:1028C00000040E40A8000020431E042B00F22981C2
:1028D000DFE813F005000500120012001701914A0D
:1028E000136923F00403136101228F4B1A70BFF3A5
:1028F0005F8F62B630BF70472DE9F047044603286A
:102900000CBF00204FF40010884B984772B6BFF3FD
:102910005F8F0022844B1A700122854B1A70854B01
:10292000D3F820801D6B844AD2F800909F6AD3F8B8
:102930002CA048F45C1242F008021A6205F003066B
:10294000012E0AD925F0030141F0010119631A464D
:10295000936E13F0080FFBD000E0294611F0700FC2
:1029600008D021F07001734B19631A46936E13F06F
:10297000080FFBD0714B9847714B98476D4A936E87
:1029800013F4003FFBD06B4A136A23F09B7323F4CC
:10299000803343F45C131362936E13F4803FFBD0D7
:1029A00029F47063644A1360042C09D1A2F5C06253
:1029B000136A23F45C1323F0010343F45C131362E2
:1029C000594C01232370BFF35F8F62B65D4B98476C
:1029D00072B6BFF35F8F0023237018F0020F0FD081
:1029E000544A136A58491940584B0B431362136AEF
:1029F00023F45C1323F0780343F45C1313622FE099
:102A000018F0010F2CD04B4B1B6A13F0010F0ED1A5
:102A1000484A136A23F45C1323F0030343F45C1362
:102A200043F001031362936E13F0010FFBD0414B8F
:102A30001B6A13F0807F0AD13E4A136A43F09B73EE
:102A400043F480331362936E13F4803FFBD0394A12
:102A5000136A23F45C1323F0780343F45C131362CA
:102A60003B4B3B402BB147F00057324B9F62022259
:102A700000E00022364B0AEA030323B12D4BC3F8D2
:102A80002CA042F00402022E02D0032E06D00AE04F
:102A900028498B6E13F0020FFBD004E025498B6EA2
:102AA00013F0040FFBD02348016B05F0700321F0F5
:102AB00070010B43036301468B6E13F0080FFBD0CC
:102AC0001D4BC3F80090A3F5C0631D6319468B6EC0
:102AD00013F0080FFBD017498B6E1A42FCD000226E
:102AE000134B1A701B4B1B681BB198470022194BE4
:102AF0001A6001220C4B1A70BFF35F8F62B6BDE8FB
:102B0000F087084A136943F004031361124A134B18
:102B10001A600122044B1A70BFF35F8F62B630BF98
:102B20007047704700ED00E0AC0000206D284000C9
:102B30002C0A002000040E40000A0E4055274000D9
:102B40007527400079284000FCFFC8FE02003701CD
:102B50000000FF07280A0020040000A510140E4002
:102B6000024B187880F00100704700BF2C0A00204B
:102B70000B4B1B687BB9EFF310834BB972B6BFF3F5
:102B80005F8F0022074B1A700122074B1A7002E078
:102B90000022054B1A70024A136801331360704714
:102BA000300A0020AC000020340A0020084B1A68CC
:102BB000013A1A601B6853B9064B1B7813F0FF0FDC
:102BC00005D00122044B1A70BFF35F8F62B67047C5
:102BD000300A0020340A0020AC000020FEE700BFCD
:102BE00008B5204B204A9A4213D9204B1D4A9A42DD
:102BF0001FD21146043203339B1A23F0030304331C
:102C0000194A134452F8040B41F8040B9A42F9D1C3
:102C10000FE0144B144A9A420BD2144B114A9A1AE1
:102C2000134881182AB151F8042943F8042D814230
:102C3000F9D100BF0F4B104A9A420BD2131D0F4A15
:102C4000D21A22F003021A44043B002143F8041B69
:102C50009342FBD10A4B0B4A9A600B4B98470B4BA4
:102C60009847FEE700000020C83E4000FC08002016
:102C7000C43E4000B00A0020FC080020B30A002037
:102C800000ED00E000004000A93540007534400030
:102C90003D4B1B6B03F00303032B5DD8DFE803F010
:102CA000020E2B2B394B5B6913F0800F14BF4FF4CE
:102CB00000424FF4FA42364B1A604DE0324B1B6A29
:102CC00013F0807F03D0334A314B1A6044E0324A1C
:102CD0002F4B1A602C4B1B6A03F07003102B02D091
:102CE000202B04D038E02D4A294B1A6034E0294AC1
:102CF000274B1A6030E0244B1B6A13F0807F03D00F
:102D0000244A234B1A6012E0234A214B1A601E4BBF
:102D10001B6A03F07003102B02D0202B04D006E0B6
:102D20001E4A1B4B1A6002E01A4A194B1A60164BD6
:102D30001B6B03F00303022B134A07BF936A926ACB
:102D4000D36AD26A1248C3F30A41036801FB033312
:102D5000D2B2B3FBF2F303600B4B1B6B03F07003B7
:102D6000702B07D10A4A13680D49A1FB03135B08B6
:102D700013607047044B1A6B0549C2F302120B68CB
:102D8000D3400B60704700BF00040E4010140E408B
:102D9000B0000020001BB70000093D0000127A00BF
:102DA000ABAAAAAA124B984204D84FF08062114BEA
:102DB0001A607047104B984203D8104A0D4B1A60A6
:102DC00070470F4B984203D80E4A0A4B1A6070475F
:102DD0000D4B984203D80D4A064B1A6070470C4BB6
:102DE000984294BF4FF004220A4A024B1A6070477F
:102DF0003F81BA01000A0E407F0275030001000402
:102E0000FFC53E05000200047FCBA40000030004C0
:102E1000FF0D270700050004094B1B6813B9094A79
:102E2000074B1A60064B1B681A180749914204DBCE
:102E30001046034A1060184670474FF0FF30704745
:102E4000380A0020B03A0020FCFF00202DE9F843AA
:102E5000264B1F88264BD3F8008008EB0704254E2D
:102E600061790901304601F5805100221346224D57
:102E7000A847A1790901304601F5A0410022134677
:102E8000A847E1790901A1F5E04189B23046002265
:102E90001346A84721790901A1F5405189B230466E
:102EA00000221346A8471548154B984710F0010F0C
:102EB00016D0124D28460021DFF85090C84761789F
:102EC00018F80730284603EB01210E4EB04728467C
:102ED0000121C847E178A378284603EB0121B047D8
:102EE0004FF08072084B1A63BDE8F883420A002055
:102EF000A80A002000800040E508400000C0034010
:102F0000392440003D244000000E0E404124400082
:102F100070B51B4D28464FF4805100221346194CC2
:102F2000A04728464FF4A04100221346A047284658
:102F30004FF4104100221346A04728464FF4504159
:102F400000221346A0471048104B984710F0010F7D
:102F500010D00D4C204600210D4EB04720464FF4B6
:102F600000610C4DA84720460121B04720464FF490
:102F70000061A8474FF08072074B5A6370BD00BFD5
:102F800000800040E508400000C0034039244000B4
:102F9000412440003D244000000E0E404CF25033CE
:102FA000984214D8052815D90E4B18600E4BB3FB68
:102FB000F0F0B0F1807F14D20C4B5860F0210C4A35
:102FC00082F8231000229A6007221A6070474CF2A0
:102FD000503000E00620034B1860034BB3FBF0F0C9
:102FE000EAE77047B800002000D8B80510E000E01C
:102FF00000ED00E038B52C4B1B78002B4CD100289D
:103000004AD143F68D63994246D805398CB2274B95
:1030100019680A19D078937803EB0023DB009BB280
:103020009C4239D113461579C5F34000204A1070EF
:103030005A780B5D03EB02231E4A13601E4B984720
:103040001E4B1B7813B115F0010F18D01C4A1168E4
:10305000164B18681060196000231A4A13801A4A28
:103060001480114A13700122144B1A70104B1A78F5
:10307000164B1A700F4B1868154B98470AE0154A03
:1030800011680A4B186810601960134B1C800122EC
:10309000054B1A70114B9847044B186843F68D6125
:1030A0000F4A104B984738BD3C0A0020A00A002068
:1030B000BC000020B8000020712B40003D0A002019
:1030C000A80A0020420A0020400A0020B400002084
:1030D0009D2F40009C0A00203E0A0020AD2B40009E
:1030E000F52F400099014000244B1B78002B44D061
:1030F00010B5234B1A88234B1B889A4236D3224B98
:103100001B78E3B1214A1168214B186810601960DF
:1031100000231D4A13701A4C23801E4B1A88194B2A
:103120001A801D4B1A781D4B1A701D4B9847238827
:10313000083323801B4B18681B4B984710BD174B57
:103140001B783BB90E4C2380154B984723880833D6
:10315000238010BD00230A4A1380084A1370134BC2
:1031600098474FF08072124B5A6310BD0C4B984732
:10317000034A13880833138010BD70473D0A0020AE
:10318000420A0020400A00203C0A0020A80A002031
:103190009C0A00203E0A0020BC000020B400002051
:1031A0004D2E4000B80000209D2F4000112F400000
:1031B000000E0E4008B5134B1B78FF2B00D1FEE725
:1031C000EFF3108372B6BFF35F8F00210E4A1170C8
:1031D0000C490A7801320A702BB901220A4B1A7085
:1031E000BFF35F8F62B6094B186843F68D61084ADA
:1031F000084B9847084B18680321084A084B984722
:10320000012008BD780A0020AC000020A00A0020A0
:10321000F52F400099014000A40A0020E932400047
:103220007D01400008B50023214A1370214A138014
:10323000214B98474FF08072204B5A63204BDB782C
:10324000FF2B00D1FEE7EFF3108372B6BFF35F8F61
:1032500000211C4A11701A49CA780132CA702BB970
:103260000122184B1A70BFF35F8F62B672B6BFF3BC
:103270005F8F0022134B1A70114B1B7843B9104B10
:1032800010460130C0B213F8012F002AF9D030B92E
:1032900001220C4B1A70BFF35F8F62B608BD72B685
:1032A000BFF35F8F0022074B1A70074B984708BD8A
:1032B0003D0A0020420A0020112F4000000E0E405F
:1032C000780A0020AC000020C928400020B14FF04F
:1032D0008062044B1A6370474FF08062014B5A635F
:1032E000704700BF000E0E4008B5D0B9032918D1B1
:1032F0000F4B1A681378012B0BD100230D4A137062
:103300000D4A13804FF080720C4B5A630C4B984758
:1033100007E0022B05D15078003018BF0120094B7F
:103320009847034B18680321074A084B984708BD84
:10333000A40A00203D0A0020420A0020000E0E4090
:10334000112F4000CD324000E93240007D014000A5
:10335000054B4FF080621A61C3F8A0204FF08072D5
:103360001A61C3F8A0207047000E0E4038B50C203B
:103370004FF00061254CA0470D204FF00061A047A1
:103380000E204FF00061A0470B204FF00061A047D6
:103390001F4C20461F4B9847022323608025256041
:1033A000636843F001036360636823F002036360B2
:1033B000636843F010036360204600210422164B2B
:1033C000984720460621154B984720460E21144B5E
:1033D0009847204600210A46124B98472046002174
:1033E0000A46114B9847204600212A460F4B984722
:1033F0002046002105220E4B9847204600210A4610
:103400000B460C4DA8470123236038BD65254000BD
:1034100000800040A90840005D094000D10840003C
:10342000B90840001D0940003D094000A1094000C5
:10343000B5094000CD09400038B51E20084B98471B
:10344000084C2046084B984720460021074DA847C6
:1034500020460121A84720460021054B984738BD4A
:103460009127400000C00340092440005924400037
:103470001124400008B540F2D1703A4CA0473A4BB5
:10348000186040F2D170A047384B186040F2D170FC
:10349000A047374B18600820A047364B1860364BC2
:1034A0009847364B9847364B9847364B98470123F9
:1034B000354A1370BFF35F8F62B6344C0025257018
:1034C0006570A570E57025716371314B9847314B7C
:1034D00083F823501022A3F5406383F82223284663
:1034E0002D4B98474FF080722C4B5A632C4B9847CA
:1034F000E378FF2B00D1FEE7EFF3108372B6BFF342
:103500005F8F0021204A11702049CA780132CA70A9
:103510002BB901221C4B1A70BFF35F8F62B672B6D3
:10352000BFF35F8F0022184B1A70184B1B7843B9FA
:10353000164B10460130C0B213F8012F002AF9D003
:1035400030B90122104B1A70BFF35F8F62B607E0EB
:1035500072B6BFF35F8F00220B4B1A70114B984766
:1035600030BFFDE7F9354000A80A00209C0A002082
:10357000A00A0020A40A0020A12340003934400002
:103580006D33400051334000AC000020780A002029
:103590004903400000ED00E0CD324000000E0E4037
:1035A000112F4000C928400070B50F4E0F4D761BFB
:1035B000B61018BF002405D0013455F8043B9847D5
:1035C000A642F9D10A4E0B4D761B00F06BFCB610EB
:1035D00018BF002406D0013455F8043B9847A64292
:1035E000F9D170BD70BD00BFB03E4000B03E40009C
:1035F000B83E4000B03E4000024B0146186800F063
:1036000003B800BFE80400202DE9F04F01F10B05DD
:10361000162D83B0064627D935F0070500F1B68090
:10362000A94200F2B38000F081FAB5F5FC7F22D206
:10363000C24FE80807EBC003DC689C4200F0C88179
:103640006368E168A56823F00303234430465A68A1
:10365000E96042F001028D605A6000F069FA0834B6
:10366000204603B0BDE8F08F102900F28F8000F0F3
:103670005DFA1025DCE7680A00F08F80042800F26C
:103680005481A80938304100AC4F07EB8101CC6868
:10369000A14206D10CE0002A80F28280E468A142B7
:1036A00006D0636823F003035A1B0F2AF3DD0138A9
:1036B0000130A2493C6901F1080E744500F07D819A
:1036C000636823F003035A1B0F2A00F36381002A67
:1036D000C1F814E0C1F810E073DAB3F5007F80F0B0
:1036E0003981DB0801EBC3084FEAA30C4A68D8F81C
:1036F0000890C4F80890012303FA0CF31343C4F8AC
:103700000C804B60C8F80840C9F80C4082100124B6
:1037100094409C4262D8234206D120F0030064000A
:10372000234200F10400FAD007EBC008C4468146EA
:10373000DCF80C309C4507D141E1002980F2518131
:10374000DB689C4500F03B815A6822F00302511B64
:103750000F29F2DD1C46D3F80CC054F8088F5A1913
:1037600045F0010941F00105C3F804903046C8F85E
:103770000CC0CCF808807A613A61C2F80CE0C2F85B
:1037800008E05560515000F0D3F969E700240C239C
:103790002046336003B0BDE8F08F7E213F2073E701
:1037A0002344E1685A68A56842F00102E9603046A6
:1037B0008D605A6000F0BCF90834204603B0BDE8C3
:1037C000F08F234430465A6842F001025A6000F0FC
:1037D000AFF90834204603B0BDE8F08FBC686368D9
:1037E00023F00308454504D8C5EB08030F2B00F36D
:1037F0008C80534BDFF858A11A68DAF80030013397
:103800002A4404EB080B00F0508102F580520F327D
:1038100022F47F6222F00F0211463046019200F03E
:1038200089F9B0F1FF3F8146019A00F04781834555
:1038300000F2EE80434B1968CB451144196000F04B
:103840004281DAF80000DFF808E101301BBFCBEB62
:10385000090B5944CEF80090196019F0070100F0E7
:103860000781C1F10800C1F58051814408314A4403
:10387000C2F30B02C2EB010A51463046019300F03D
:1038800059F9431C019B00F02C81C9EB0002524402
:1038900042F001021968C7F808905144BC42C9F8C7
:1038A00004201960DFF89CA016D0B8F10F0F40F289
:1038B000EE806268A8F10C0323F00703E01802F021
:1038C00001024FF0050E1A430F2B6260C0F804E0AE
:1038D000C0F808E000F209811B4BBC681A689142ED
:1038E00088BF1960194B1A689142626888BF1960D5
:1038F00022F003029542A2EB050301D80F2B04DC52
:10390000304600F015F90024AAE6621943F00103DD
:1039100045F0010565603046BA60536000F008F973
:103920000834204603B0BDE8F08F142868D9542825
:1039300000F29780280B6E304100A5E6EC040020D1
:103940004C0A0020500A0020480A0020440A0020A7
:10395000F80800205A0A042A55D9142A00F2A78030
:103960005B324FEA420C07EB8C0CDFF8BC81DCF8D1
:10397000081061457FD04A6822F00302934202D2C8
:1039800089688C45F7D1CA687B68E260A160946061
:10399000CC60BBE6631942F0010745F001056560A4
:1039A00030464B610B61C3F80CE0C3F808E05F6080
:1039B0009A50083400F0BCF852E64B68A6E609F1CC
:1039C000010919F0030F0CF1080C7FF4B1AE2CE0E3
:1039D00004F108036469A34208BF02303FF469AEF2
:1039E0002EE61A441C465168DB6854F8085F41F023
:1039F000010151603046EB609D6000F099F82FE6C0
:103A00005B30410040E69A0938324FEA420CAAE79F
:103A1000BC42454B3FF40EAF9C68626822F0030243
:103A200068E7D8F8008098457CD110F0030FA8F122
:103A3000080300F1FF30F4D17B6823EA04037B60C4
:103A400064009C423FF6CAAE002C3FF4C7AE23424E
:103A500048467FF469AE6400234200F10400FAD0C6
:103A600062E6B0F5AA7F18D8E80B773041000BE684
:103A70004FF48051FBE6D8F8043092104FF0010C5F
:103A80000CFA02F21343C8F804300A467DE701231A
:103A9000C9F804304C4600222CE740F254539842B7
:103AA0001CD8A80C7C304100EEE51032B4E6542A54
:103AB00023D81A0B6E324FEA420C54E7BC68626896
:103AC00022F0030216E7CBF30B0000287FF4B9AE17
:103AD0004244BB6842F001025A60FDE6FC217E20B0
:103AE000D2E501224FF0000AD4E604F10801304685
:103AF00000F0A6F8DAF80010EEE6B2F5AA7F04D8D6
:103B0000DA0B77324FEA420C2DE740F254518A42E9
:103B100004D89A0C7C324FEA420C24E74FF0FC0C9C
:103B20007E2220E77B688BE7EC040020704700BF13
:103B3000704700BF38B5074C002305460846236090
:103B4000FFF76AF9431C00D038BD2368002BFBD077
:103B50002B6038BDAC0A0020024B13B1024800F0C4
:103B600005B8704700000000793B40000146002086
:103B70000246034600F03CB938B5084B084DED1A33
:103B8000AC1018BFED1805D0013C55F8043D98471E
:103B9000002CF9D1BDE8384000F08EB9C43E400099
:103BA000C83E4000F8B5234F0C460646FFF7BEFF5F
:103BB000BB685D6825F00305291B01F6EF7121F450
:103BC0007F6121F00F01A1F58054B4F5805F07DB20
:103BD00030460021FFF7AEFFBB682B44984204D06B
:103BE0003046FFF7A5FF0020F8BD30466142FFF7E1
:103BF000A1FF01300DD0104BBA6819682D1B45F09C
:103C000001053046091B55601960FFF791FF01203F
:103C1000F8BD30460021FFF78DFFBA68831A0F2BDD
:103C2000DEDD064C0449246843F00103001B5360A9
:103C30000860D5E7EC040020500A0020F8080020B6
:103C400000294ED02DE9F0410C468046FFF76EFF6B
:103C500054F8047C624927F00102A4F10805AB186E
:103C60008E6858689E4220F003005AD0FE075860C4
:103C70000BD454F8087CED1B01F1080EAC687445B8
:103C80003A4467D0EF68E760BC601C186468E407DA
:103C90000CD4544F9C68BC4202447CD0D868E0608D
:103CA00042F0010384606B60AA5003E042F001031C
:103CB0006B60AA50B2F5007F14D2D20801EBC203A8
:103CC00048689F68AF609210012404FA02F2104322
:103CD000EB6048609D60FD604046BDE8F041FFF745
:103CE00027BF7047530A042B47D8930903F13804C0
:103CF000600001EB80003A498368834243D05968F1
:103D000021F00301914202D99B689842F7D1DA6809
:103D1000EA60AB6040469560DD60BDE8F041FFF7CA
:103D200007BFFF07024407D454F8083CED1A1A44B1
:103D3000A868EB68C36098602B4B1B6842F00100D9
:103D40009A4268608D60C7D3284B40461968FFF7D8
:103D500029FFC1E719184968C90709D4D9689B68C0
:103D6000024442F00100D9608B606860AA50B3E75A
:103D700042F001036B60AA50AEE7142B14D803F194
:103D80005B046000B5E74A68A4100120A04002432C
:103D90004A601A46BCE742F001034D610D61EC60D8
:103DA000AC606B60AA5097E7542B04D8130B03F157
:103DB0006E0460009DE7B3F5AA7F04D8D30B03F12E
:103DC0007704600095E740F25450834204D8930C86
:103DD00003F17C0460008CE7FC207E2489E700BFAF
:103DE000EC040020F4040020F40800204C0A002019
:103DF0002DE9F047254C2568D5F848410646884608
:103E000092469946CCB360681F2818DC431C7EB1EB
:103E100004EB80050121C5F888A0D4F8887101FA67
:103E200000F21743022EC4F88871C5F808911ED01D
:103E30000230636044F820800020BDE8F087144B16
:103E400003B34FF4C870FFF7D7FB0446D0B1D5F8E1
:103E50004831002780E88800C5F8484138460123EA
:103E6000C4F88871C4F88C71002EE1D0D0E7D4F882
:103E70008C110A43C4F88C21DAE705F5A674C5F85D
:103E80004841C0E74FF0FF30BDE8F087A03E40005A
:103E9000F935400030303030310000004300000080
:103EA000C0000020F8B500BFF8BC08BC9E467047B3
:103EB000593B4000F1004000F8B500BFF8BC08BC19
:083EC0009E467047CD00400052
:103EC8003901400065014000290140002D014000F2
:103ED800000000004C41534441430000484942005F
:103EE80000030000000000000000000000000000C7
:103EF8000403090460000020480000204C00002052
:103F08003400002000000000000000201201000220
:103F180000000040EB03232400010102030100001C
:103F280009024500010100807D0904000000FFFF2F
:103F3800FF000904000106FFFFFF000705830308CF
:103F4800000107050603080001070581024000007B
:103F58000705020240000007058401000201070569
:103F6800050100020100000000002000010000001F
:103F780000093D0001000000204E00000100000083
:103F880000000000AC030020140400207C04002082
:103F98000000000000000000000000000000000019
:103FA8000000000000000000000000000000000009
:103FB800000000009C3E40000000000000000000DF
:103FC80000000000000000000000000000000000E9
:103FD80000000000000000000000000000000000D9
:103FE80000000000000000000000000000000000C9
:103FF80000000000000000000000000000000000B9
:1040080000000000000000000000000000000000A8
:104018000000000000000000000000000000000098
:104028000000000000000000010000000000000087
:104038000E33CDAB34126DE6ECDE05000B0000004C
:104048000000000000000000000000000000000068
:104058000000000000000000000000000000000058
:104068000000000000000000000000000000000048
:104078000000000000000000000000000000000038
:1043A8000000000000000000C00000200000000025
:1043B80000000000EC040020EC040020F4040020BD
:1043C800F4040020FC040020FC0400200405002064
:1043D800040500200C0500200C0500201405002011
:1043E800140500201C0500201C05002024050020C1
:1043F800240500202C0500202C0500203405002071
:10440800340500203C0500203C0500204405002020
:10441800440500204C0500204C05002054050020D0
:10442800540500205C0500205C0500206405002080
:10443800640500206C0500206C0500207405002030
:10444800740500207C0500207C05002084050020E0
:10445800840500208C0500208C0500209405002090
:10446800940500209C0500209C050020A405002040
:10447800A4050020AC050020AC050020B4050020F0
:10448800B4050020BC050020BC050020C4050020A0
:10449800C4050020CC050020CC050020D405002050
:1044A800D4050020DC050020DC050020E405002000
:1044B800E4050020EC050020EC050020F4050020B0
:1044C800F4050020FC050020FC050020040600205F
:1044D800040600200C0600200C060020140600200C
:1044E800140600201C0600201C06002024060020BC
:1044F800240600202C0600202C060020340600206C
:10450800340600203C0600203C060020440600201B
:10451800440600204C0600204C06002054060020CB
:10452800540600205C0600205C060020640600207B
:10453800640600206C0600206C060020740600202B
:10454800740600207C0600207C06002084060020DB
:10455800840600208C0600208C060020940600208B
:10456800940600209C0600209C060020A40600203B
:10457800A4060020AC060020AC060020B4060020EB
:10458800B4060020BC060020BC060020C40600209B
:10459800C4060020CC060020CC060020D40600204B
:1045A800D4060020DC060020DC060020E4060020FB
:1045B800E4060020EC060020EC060020F4060020AB
:1045C800F4060020FC060020FC060020040700205A
:1045D800040700200C0700200C0700201407002007
:1045E800140700201C0700201C07002024070020B7
:1045F800240700202C0700202C0700203407002067
:10460800340700203C0700203C0700204407002016
:10461800440700204C0700204C07002054070020C6
:10462800540700205C0700205C0700206407002076
:10463800640700206C0700206C0700207407002026
:10464800740700207C0700207C07002084070020D6
:10465800840700208C0700208C0700209407002086
:10466800940700209C0700209C070020A407002036
:10467800A4070020AC070020AC070020B4070020E6
:10468800B4070020BC070020BC070020C407002096
:10469800C4070020CC070020CC070020D407002046
:1046A800D4070020DC070020DC070020E4070020F6
:1046B800E4070020EC070020EC070020F4070020A6
:1046C800F4070020FC070020FC0700200408002055
:1046D800040800200C0800200C0800201408002002
:1046E800140800201C0800201C08002024080020B2
:1046F800240800202C0800202C0800203408002062
:10470800340800203C0800203C0800204408002011
:10471800440800204C0800204C08002054080020C1
:10472800540800205C0800205C0800206408002071
:10473800640800206C0800206C0800207408002021
:10474800740800207C0800207C08002084080020D1
:10475800840800208C0800208C0800209408002081
:10476800940800209C0800209C080020A408002031
:10477800A4080020AC080020AC080020B4080020E1
:10478800B4080020BC080020BC080020C408002091
:10479800C4080020CC080020CC080020D408002041
:1047A800D4080020DC080020DC080020E4080020F1
:0C47B800E408002000000200FFFFFFFFEB
:0400000500402BE1AB
:00000001FF
